{
  "_format": "hh-sol-artifact-1",
  "contractName": "TaskManagement",
  "sourceName": "contracts/TaskManagement.sol",
  "abi": [
    {
      "anonymous": false,
      "inputs": [
        {
          "indexed": false,
          "internalType": "uint256",
          "name": "taskId",
          "type": "uint256"
        }
      ],
      "name": "TaskApproved",
      "type": "event"
    },
    {
      "anonymous": false,
      "inputs": [
        {
          "indexed": false,
          "internalType": "uint256",
          "name": "taskId",
          "type": "uint256"
        },
        {
          "indexed": false,
          "internalType": "address",
          "name": "assignedTo",
          "type": "address"
        }
      ],
      "name": "TaskAssigned",
      "type": "event"
    },
    {
      "anonymous": false,
      "inputs": [
        {
          "indexed": false,
          "internalType": "uint256",
          "name": "taskId",
          "type": "uint256"
        }
      ],
      "name": "TaskCancelled",
      "type": "event"
    },
    {
      "anonymous": false,
      "inputs": [
        {
          "indexed": false,
          "internalType": "uint256",
          "name": "taskId",
          "type": "uint256"
        }
      ],
      "name": "TaskCompleted",
      "type": "event"
    },
    {
      "anonymous": false,
      "inputs": [
        {
          "indexed": false,
          "internalType": "uint256",
          "name": "taskId",
          "type": "uint256"
        },
        {
          "indexed": false,
          "internalType": "string",
          "name": "name",
          "type": "string"
        },
        {
          "indexed": false,
          "internalType": "uint256",
          "name": "expiry",
          "type": "uint256"
        },
        {
          "indexed": false,
          "internalType": "address",
          "name": "creator",
          "type": "address"
        }
      ],
      "name": "TaskCreated",
      "type": "event"
    },
    {
      "inputs": [
        {
          "internalType": "string",
          "name": "name",
          "type": "string"
        },
        {
          "internalType": "string",
          "name": "description",
          "type": "string"
        },
        {
          "internalType": "uint256",
          "name": "expiry",
          "type": "uint256"
        }
      ],
      "name": "addTask",
      "outputs": [],
      "stateMutability": "payable",
      "type": "function"
    },
    {
      "inputs": [
        {
          "internalType": "uint256",
          "name": "taskId",
          "type": "uint256"
        }
      ],
      "name": "approveTask",
      "outputs": [],
      "stateMutability": "nonpayable",
      "type": "function"
    },
    {
      "inputs": [
        {
          "internalType": "uint256",
          "name": "taskId",
          "type": "uint256"
        }
      ],
      "name": "cancelTask",
      "outputs": [],
      "stateMutability": "nonpayable",
      "type": "function"
    },
    {
      "inputs": [
        {
          "internalType": "uint256",
          "name": "taskId",
          "type": "uint256"
        }
      ],
      "name": "completeTask",
      "outputs": [],
      "stateMutability": "nonpayable",
      "type": "function"
    },
    {
      "inputs": [],
      "name": "getAllTasks",
      "outputs": [
        {
          "components": [
            {
              "internalType": "uint256",
              "name": "id",
              "type": "uint256"
            },
            {
              "internalType": "string",
              "name": "name",
              "type": "string"
            },
            {
              "internalType": "string",
              "name": "description",
              "type": "string"
            },
            {
              "internalType": "uint256",
              "name": "timestamp",
              "type": "uint256"
            },
            {
              "internalType": "uint256",
              "name": "expiry",
              "type": "uint256"
            },
            {
              "internalType": "enum TaskManagement.TaskStatus",
              "name": "status",
              "type": "uint8"
            },
            {
              "internalType": "address payable",
              "name": "assignedTo",
              "type": "address"
            },
            {
              "internalType": "address payable",
              "name": "creator",
              "type": "address"
            },
            {
              "internalType": "uint256",
              "name": "reward",
              "type": "uint256"
            }
          ],
          "internalType": "struct TaskManagement.Task[]",
          "name": "",
          "type": "tuple[]"
        }
      ],
      "stateMutability": "view",
      "type": "function"
    },
    {
      "inputs": [
        {
          "internalType": "address",
          "name": "user",
          "type": "address"
        }
      ],
      "name": "getUserTasks",
      "outputs": [
        {
          "components": [
            {
              "internalType": "uint256",
              "name": "id",
              "type": "uint256"
            },
            {
              "internalType": "string",
              "name": "name",
              "type": "string"
            },
            {
              "internalType": "string",
              "name": "description",
              "type": "string"
            },
            {
              "internalType": "uint256",
              "name": "timestamp",
              "type": "uint256"
            },
            {
              "internalType": "uint256",
              "name": "expiry",
              "type": "uint256"
            },
            {
              "internalType": "enum TaskManagement.TaskStatus",
              "name": "status",
              "type": "uint8"
            },
            {
              "internalType": "address payable",
              "name": "assignedTo",
              "type": "address"
            },
            {
              "internalType": "address payable",
              "name": "creator",
              "type": "address"
            },
            {
              "internalType": "uint256",
              "name": "reward",
              "type": "uint256"
            }
          ],
          "internalType": "struct TaskManagement.Task[]",
          "name": "",
          "type": "tuple[]"
        }
      ],
      "stateMutability": "view",
      "type": "function"
    },
    {
      "inputs": [],
      "name": "numTasks",
      "outputs": [
        {
          "internalType": "uint256",
          "name": "",
          "type": "uint256"
        }
      ],
      "stateMutability": "view",
      "type": "function"
    },
    {
      "inputs": [
        {
          "internalType": "uint256",
          "name": "taskId",
          "type": "uint256"
        }
      ],
      "name": "takeTask",
      "outputs": [],
      "stateMutability": "nonpayable",
      "type": "function"
    },
    {
      "inputs": [
        {
          "internalType": "uint256",
          "name": "",
          "type": "uint256"
        }
      ],
      "name": "taskIds",
      "outputs": [
        {
          "internalType": "uint256",
          "name": "",
          "type": "uint256"
        }
      ],
      "stateMutability": "view",
      "type": "function"
    },
    {
      "inputs": [
        {
          "internalType": "uint256",
          "name": "",
          "type": "uint256"
        }
      ],
      "name": "tasks",
      "outputs": [
        {
          "internalType": "uint256",
          "name": "id",
          "type": "uint256"
        },
        {
          "internalType": "string",
          "name": "name",
          "type": "string"
        },
        {
          "internalType": "string",
          "name": "description",
          "type": "string"
        },
        {
          "internalType": "uint256",
          "name": "timestamp",
          "type": "uint256"
        },
        {
          "internalType": "uint256",
          "name": "expiry",
          "type": "uint256"
        },
        {
          "internalType": "enum TaskManagement.TaskStatus",
          "name": "status",
          "type": "uint8"
        },
        {
          "internalType": "address payable",
          "name": "assignedTo",
          "type": "address"
        },
        {
          "internalType": "address payable",
          "name": "creator",
          "type": "address"
        },
        {
          "internalType": "uint256",
          "name": "reward",
          "type": "uint256"
        }
      ],
      "stateMutability": "view",
      "type": "function"
    },
    {
      "inputs": [
        {
          "internalType": "address",
          "name": "",
          "type": "address"
        },
        {
          "internalType": "uint256",
          "name": "",
          "type": "uint256"
        }
      ],
      "name": "userTasks",
      "outputs": [
        {
          "internalType": "uint256",
          "name": "",
          "type": "uint256"
        }
      ],
      "stateMutability": "view",
      "type": "function"
    }
  ],
  "bytecode": "0x6080604052348015600f57600080fd5b50612de68061001f6000396000f3fe60806040526004361061009c5760003560e01c80637cbc9ae9116100645780637cbc9ae9146101985780637eec20a8146101b45780638d977672146101dd57806395d5766014610222578063bda09cd41461025f578063e1e295581461028a5761009c565b80630a07fae6146100a157806339118d25146100ca57806356deb1101461010757806366873a5514610130578063779900b41461016d575b600080fd5b3480156100ad57600080fd5b506100c860048036038101906100c39190611c89565b6102b3565b005b3480156100d657600080fd5b506100f160048036038101906100ec9190611c89565b6105ed565b6040516100fe9190611cc5565b60405180910390f35b34801561011357600080fd5b5061012e60048036038101906101299190611c89565b610611565b005b34801561013c57600080fd5b5061015760048036038101906101529190611d3e565b61089a565b6040516101649190611cc5565b60405180910390f35b34801561017957600080fd5b506101826108cb565b60405161018f9190612043565b60405180910390f35b6101b260048036038101906101ad919061219a565b610bdc565b005b3480156101c057600080fd5b506101db60048036038101906101d69190611c89565b610e8f565b005b3480156101e957600080fd5b5061020460048036038101906101ff9190611c89565b611179565b6040516102199998979695949392919061228d565b60405180910390f35b34801561022e57600080fd5b5061024960048036038101906102449190612328565b611324565b6040516102569190612043565b60405180910390f35b34801561026b57600080fd5b506102746116be565b6040516102819190611cc5565b60405180910390f35b34801561029657600080fd5b506102b160048036038101906102ac9190611c89565b6116c4565b005b600080600083815260200190815260200160002090503373ffffffffffffffffffffffffffffffffffffffff168160060160009054906101000a900473ffffffffffffffffffffffffffffffffffffffff1673ffffffffffffffffffffffffffffffffffffffff161461035b576040517f08c379a0000000000000000000000000000000000000000000000000000000008152600401610352906123a1565b60405180910390fd5b6002600481111561036f5761036e611e49565b5b8160050160009054906101000a900460ff16600481111561039357610392611e49565b5b146103d3576040517f08c379a00000000000000000000000000000000000000000000000000000000081526004016103ca9061240d565b60405180910390fd5b60038160050160006101000a81548160ff021916908360048111156103fb576103fa611e49565b5b021790555060008160050160019054906101000a900473ffffffffffffffffffffffffffffffffffffffff1673ffffffffffffffffffffffffffffffffffffffff16826007015460405161044e9061245e565b60006040518083038185875af1925050503d806000811461048b576040519150601f19603f3d011682016040523d82523d6000602084013e610490565b606091505b50509050806104d4576040517f08c379a00000000000000000000000000000000000000000000000000000000081526004016104cb906124bf565b60405180910390fd5b7f3e9d27a1c2a828db29e4b2a17fbd1bc70201ef21aec4f74b9fa051b02e38e3f0836040516105039190611cc5565b60405180910390a16105a56040518060400160405280600e81526020017f5461736b20617070726f7665643a000000000000000000000000000000000000815250846040518060400160405280600381526020017f546f3a00000000000000000000000000000000000000000000000000000000008152508560050160019054906101000a900473ffffffffffffffffffffffffffffffffffffffff166118e6565b6105e86040518060400160405280600781526020017f5265776172643a000000000000000000000000000000000000000000000000008152508360070154611988565b505050565b600281815481106105fd57600080fd5b906000526020600020016000915090505481565b600080600083815260200190815260200160002090506000600481111561063b5761063a611e49565b5b8160050160009054906101000a900460ff16600481111561065f5761065e611e49565b5b1461069f576040517f08c379a00000000000000000000000000000000000000000000000000000000081526004016106969061252b565b60405180910390fd5b3373ffffffffffffffffffffffffffffffffffffffff168160060160009054906101000a900473ffffffffffffffffffffffffffffffffffffffff1673ffffffffffffffffffffffffffffffffffffffff1603610731576040517f08c379a000000000000000000000000000000000000000000000000000000000815260040161072890612597565b60405180910390fd5b338160050160016101000a81548173ffffffffffffffffffffffffffffffffffffffff021916908373ffffffffffffffffffffffffffffffffffffffff16021790555060018160050160006101000a81548160ff0219169083600481111561079c5761079b611e49565b5b0217905550600160003373ffffffffffffffffffffffffffffffffffffffff1673ffffffffffffffffffffffffffffffffffffffff1681526020019081526020016000208290806001815401808255809150506001900390600052602060002001600090919091909150557f52476d55ecef5cf13caa64038f297fe6bbf865d9584a98b8722a15a6d5db128f82336040516108389291906125c6565b60405180910390a16108966040518060400160405280600e81526020017f5461736b2061737369676e65643a000000000000000000000000000000000000815250833373ffffffffffffffffffffffffffffffffffffffff16611a24565b5050565b600160205281600052604060002081815481106108b657600080fd5b90600052602060002001600091509150505481565b6060600060028054905067ffffffffffffffff8111156108ee576108ed61206f565b5b60405190808252806020026020018201604052801561092757816020015b610914611bab565b81526020019060019003908161090c5790505b50905060005b600280549050811015610bd45760008060028381548110610951576109506125ef565b5b9060005260206000200154815260200190815260200160002060405180610120016040529081600082015481526020016001820180546109909061264d565b80601f01602080910402602001604051908101604052809291908181526020018280546109bc9061264d565b8015610a095780601f106109de57610100808354040283529160200191610a09565b820191906000526020600020905b8154815290600101906020018083116109ec57829003601f168201915b50505050508152602001600282018054610a229061264d565b80601f0160208091040260200160405190810160405280929190818152602001828054610a4e9061264d565b8015610a9b5780601f10610a7057610100808354040283529160200191610a9b565b820191906000526020600020905b815481529060010190602001808311610a7e57829003601f168201915b5050505050815260200160038201548152602001600482015481526020016005820160009054906101000a900460ff166004811115610add57610adc611e49565b5b6004811115610aef57610aee611e49565b5b81526020016005820160019054906101000a900473ffffffffffffffffffffffffffffffffffffffff1673ffffffffffffffffffffffffffffffffffffffff1673ffffffffffffffffffffffffffffffffffffffff1681526020016006820160009054906101000a900473ffffffffffffffffffffffffffffffffffffffff1673ffffffffffffffffffffffffffffffffffffffff1673ffffffffffffffffffffffffffffffffffffffff168152602001600782015481525050828281518110610bbc57610bbb6125ef565b5b6020026020010181905250808060010191505061092d565b508091505090565b60003411610c1f576040517f08c379a0000000000000000000000000000000000000000000000000000000008152600401610c16906126ca565b60405180910390fd5b600060036000815480929190610c3490612719565b91905055905060405180610120016040528082815260200185815260200184815260200142815260200183815260200160006004811115610c7857610c77611e49565b5b8152602001600073ffffffffffffffffffffffffffffffffffffffff1681526020013373ffffffffffffffffffffffffffffffffffffffff16815260200134815250600080838152602001908152602001600020600082015181600001556020820151816001019081610ceb919061290d565b506040820151816002019081610d01919061290d565b50606082015181600301556080820151816004015560a08201518160050160006101000a81548160ff02191690836004811115610d4157610d40611e49565b5b021790555060c08201518160050160016101000a81548173ffffffffffffffffffffffffffffffffffffffff021916908373ffffffffffffffffffffffffffffffffffffffff16021790555060e08201518160060160006101000a81548173ffffffffffffffffffffffffffffffffffffffff021916908373ffffffffffffffffffffffffffffffffffffffff160217905550610100820151816007015590505060028190806001815401808255809150506001900390600052602060002001600090919091909150557f29c8f9924c46286774869ac7896e10bcaed1aaedfeea403b45bdf64cdd3f45ba81858433604051610e4094939291906129df565b60405180910390a1610e896040518060400160405280600f81526020017f4e6577205461736b2041646465643a00000000000000000000000000000000008152508286336118e6565b50505050565b8060008082815260200190815260200160002060060160009054906101000a900473ffffffffffffffffffffffffffffffffffffffff1673ffffffffffffffffffffffffffffffffffffffff163373ffffffffffffffffffffffffffffffffffffffff1614610f33576040517f08c379a0000000000000000000000000000000000000000000000000000000008152600401610f2a90612a77565b60405180910390fd5b6000806000848152602001908152602001600020905060006004811115610f5d57610f5c611e49565b5b8160050160009054906101000a900460ff166004811115610f8157610f80611e49565b5b14610fc1576040517f08c379a0000000000000000000000000000000000000000000000000000000008152600401610fb890612ae3565b60405180910390fd5b60048160050160006101000a81548160ff02191690836004811115610fe957610fe8611e49565b5b021790555060008160060160009054906101000a900473ffffffffffffffffffffffffffffffffffffffff1673ffffffffffffffffffffffffffffffffffffffff16826007015460405161103c9061245e565b60006040518083038185875af1925050503d8060008114611079576040519150601f19603f3d011682016040523d82523d6000602084013e61107e565b606091505b50509050806110c2576040517f08c379a00000000000000000000000000000000000000000000000000000000081526004016110b990612b4f565b60405180910390fd5b7fc6eacc3aa5b2aa77b5a826b832a804ca0b71830ec74f9aa57a15edd978c31ed6846040516110f19190611cc5565b60405180910390a16111736040518060400160405280600f81526020017f5461736b2063616e63656c6c65643a0000000000000000000000000000000000815250856040518060400160405280601081526020017f52657761726420726566756e6465643a000000000000000000000000000000008152508560070154611ac3565b50505050565b60006020528060005260406000206000915090508060000154908060010180546111a29061264d565b80601f01602080910402602001604051908101604052809291908181526020018280546111ce9061264d565b801561121b5780601f106111f05761010080835404028352916020019161121b565b820191906000526020600020905b8154815290600101906020018083116111fe57829003601f168201915b5050505050908060020180546112309061264d565b80601f016020809104026020016040519081016040528092919081815260200182805461125c9061264d565b80156112a95780601f1061127e576101008083540402835291602001916112a9565b820191906000526020600020905b81548152906001019060200180831161128c57829003601f168201915b5050505050908060030154908060040154908060050160009054906101000a900460ff16908060050160019054906101000a900473ffffffffffffffffffffffffffffffffffffffff16908060060160009054906101000a900473ffffffffffffffffffffffffffffffffffffffff16908060070154905089565b60606000600160008473ffffffffffffffffffffffffffffffffffffffff1673ffffffffffffffffffffffffffffffffffffffff1681526020019081526020016000208054806020026020016040519081016040528092919081815260200182805480156113b157602002820191906000526020600020905b81548152602001906001019080831161139d575b505050505090506000815167ffffffffffffffff8111156113d5576113d461206f565b5b60405190808252806020026020018201604052801561140e57816020015b6113fb611bab565b8152602001906001900390816113f35790505b50905060005b82518110156116b357600080848381518110611433576114326125ef565b5b60200260200101518152602001908152602001600020604051806101200160405290816000820154815260200160018201805461146f9061264d565b80601f016020809104026020016040519081016040528092919081815260200182805461149b9061264d565b80156114e85780601f106114bd576101008083540402835291602001916114e8565b820191906000526020600020905b8154815290600101906020018083116114cb57829003601f168201915b505050505081526020016002820180546115019061264d565b80601f016020809104026020016040519081016040528092919081815260200182805461152d9061264d565b801561157a5780601f1061154f5761010080835404028352916020019161157a565b820191906000526020600020905b81548152906001019060200180831161155d57829003601f168201915b5050505050815260200160038201548152602001600482015481526020016005820160009054906101000a900460ff1660048111156115bc576115bb611e49565b5b60048111156115ce576115cd611e49565b5b81526020016005820160019054906101000a900473ffffffffffffffffffffffffffffffffffffffff1673ffffffffffffffffffffffffffffffffffffffff1673ffffffffffffffffffffffffffffffffffffffff1681526020016006820160009054906101000a900473ffffffffffffffffffffffffffffffffffffffff1673ffffffffffffffffffffffffffffffffffffffff1673ffffffffffffffffffffffffffffffffffffffff16815260200160078201548152505082828151811061169b5761169a6125ef565b5b60200260200101819052508080600101915050611414565b508092505050919050565b60035481565b600080600083815260200190815260200160002090503373ffffffffffffffffffffffffffffffffffffffff168160050160019054906101000a900473ffffffffffffffffffffffffffffffffffffffff1673ffffffffffffffffffffffffffffffffffffffff161461176c576040517f08c379a000000000000000000000000000000000000000000000000000000000815260040161176390612be1565b60405180910390fd5b600160048111156117805761177f611e49565b5b8160050160009054906101000a900460ff1660048111156117a4576117a3611e49565b5b146117e4576040517f08c379a00000000000000000000000000000000000000000000000000000000081526004016117db90612c4d565b60405180910390fd5b60028160050160006101000a81548160ff0219169083600481111561180c5761180b611e49565b5b02179055507fc1fa7142cfb933d0855114a3bffde296944c30b727f297c14d0db4d553d3a5c7826040516118409190611cc5565b60405180910390a16118e26040518060400160405280600f81526020017f5461736b20636f6d706c657465643a0000000000000000000000000000000000815250836040518060400160405280600381526020017f42793a00000000000000000000000000000000000000000000000000000000008152508460050160019054906101000a900473ffffffffffffffffffffffffffffffffffffffff166118e6565b5050565b611982848484846040516024016119009493929190612c6d565b6040516020818303038152906040527f7c4632a4000000000000000000000000000000000000000000000000000000007bffffffffffffffffffffffffffffffffffffffffffffffffffffffff19166020820180517bffffffffffffffffffffffffffffffffffffffffffffffffffffffff8381831617835250505050611b65565b50505050565b611a20828260405160240161199e929190612cc0565b6040516020818303038152906040527fb60e72cc000000000000000000000000000000000000000000000000000000007bffffffffffffffffffffffffffffffffffffffffffffffffffffffff19166020820180517bffffffffffffffffffffffffffffffffffffffffffffffffffffffff8381831617835250505050611b65565b5050565b611abe838383604051602401611a3c93929190612cf0565b6040516020818303038152906040527fca47c4eb000000000000000000000000000000000000000000000000000000007bffffffffffffffffffffffffffffffffffffffffffffffffffffffff19166020820180517bffffffffffffffffffffffffffffffffffffffffffffffffffffffff8381831617835250505050611b65565b505050565b611b5f84848484604051602401611add9493929190612d2e565b6040516020818303038152906040527fc67ea9d1000000000000000000000000000000000000000000000000000000007bffffffffffffffffffffffffffffffffffffffffffffffffffffffff19166020820180517bffffffffffffffffffffffffffffffffffffffffffffffffffffffff8381831617835250505050611b65565b50505050565b611b7c81611b74611b7f611ba0565b63ffffffff16565b50565b60006a636f6e736f6c652e6c6f679050600080835160208501845afa505050565b611c35819050919050565b604051806101200160405280600081526020016060815260200160608152602001600081526020016000815260200160006004811115611bee57611bed611e49565b5b8152602001600073ffffffffffffffffffffffffffffffffffffffff168152602001600073ffffffffffffffffffffffffffffffffffffffff168152602001600081525090565b611c3d612d81565b565b6000604051905090565b600080fd5b600080fd5b6000819050919050565b611c6681611c53565b8114611c7157600080fd5b50565b600081359050611c8381611c5d565b92915050565b600060208284031215611c9f57611c9e611c49565b5b6000611cad84828501611c74565b91505092915050565b611cbf81611c53565b82525050565b6000602082019050611cda6000830184611cb6565b92915050565b600073ffffffffffffffffffffffffffffffffffffffff82169050919050565b6000611d0b82611ce0565b9050919050565b611d1b81611d00565b8114611d2657600080fd5b50565b600081359050611d3881611d12565b92915050565b60008060408385031215611d5557611d54611c49565b5b6000611d6385828601611d29565b9250506020611d7485828601611c74565b9150509250929050565b600081519050919050565b600082825260208201905092915050565b6000819050602082019050919050565b611db381611c53565b82525050565b600081519050919050565b600082825260208201905092915050565b60005b83811015611df3578082015181840152602081019050611dd8565b60008484015250505050565b6000601f19601f8301169050919050565b6000611e1b82611db9565b611e258185611dc4565b9350611e35818560208601611dd5565b611e3e81611dff565b840191505092915050565b7f4e487b7100000000000000000000000000000000000000000000000000000000600052602160045260246000fd5b60058110611e8957611e88611e49565b5b50565b6000819050611e9a82611e78565b919050565b6000611eaa82611e8c565b9050919050565b611eba81611e9f565b82525050565b6000611ecb82611ce0565b9050919050565b611edb81611ec0565b82525050565b600061012083016000830151611efa6000860182611daa565b5060208301518482036020860152611f128282611e10565b91505060408301518482036040860152611f2c8282611e10565b9150506060830151611f416060860182611daa565b506080830151611f546080860182611daa565b5060a0830151611f6760a0860182611eb1565b5060c0830151611f7a60c0860182611ed2565b5060e0830151611f8d60e0860182611ed2565b50610100830151611fa2610100860182611daa565b508091505092915050565b6000611fb98383611ee1565b905092915050565b6000602082019050919050565b6000611fd982611d7e565b611fe38185611d89565b935083602082028501611ff585611d9a565b8060005b8581101561203157848403895281516120128582611fad565b945061201d83611fc1565b925060208a01995050600181019050611ff9565b50829750879550505050505092915050565b6000602082019050818103600083015261205d8184611fce565b905092915050565b600080fd5b600080fd5b7f4e487b7100000000000000000000000000000000000000000000000000000000600052604160045260246000fd5b6120a782611dff565b810181811067ffffffffffffffff821117156120c6576120c561206f565b5b80604052505050565b60006120d9611c3f565b90506120e5828261209e565b919050565b600067ffffffffffffffff8211156121055761210461206f565b5b61210e82611dff565b9050602081019050919050565b82818337600083830152505050565b600061213d612138846120ea565b6120cf565b9050828152602081018484840111156121595761215861206a565b5b61216484828561211b565b509392505050565b600082601f83011261218157612180612065565b5b813561219184826020860161212a565b91505092915050565b6000806000606084860312156121b3576121b2611c49565b5b600084013567ffffffffffffffff8111156121d1576121d0611c4e565b5b6121dd8682870161216c565b935050602084013567ffffffffffffffff8111156121fe576121fd611c4e565b5b61220a8682870161216c565b925050604061221b86828701611c74565b9150509250925092565b600082825260208201905092915050565b600061224182611db9565b61224b8185612225565b935061225b818560208601611dd5565b61226481611dff565b840191505092915050565b61227881611e9f565b82525050565b61228781611ec0565b82525050565b6000610120820190506122a3600083018c611cb6565b81810360208301526122b5818b612236565b905081810360408301526122c9818a612236565b90506122d86060830189611cb6565b6122e56080830188611cb6565b6122f260a083018761226f565b6122ff60c083018661227e565b61230c60e083018561227e565b61231a610100830184611cb6565b9a9950505050505050505050565b60006020828403121561233e5761233d611c49565b5b600061234c84828501611d29565b91505092915050565b7f596f7520617265206e6f74207468652063726561746f72000000000000000000600082015250565b600061238b601783612225565b915061239682612355565b602082019050919050565b600060208201905081810360008301526123ba8161237e565b9050919050565b7f546865207461736b206973206e6f742070656e64696e6720617070726f76616c600082015250565b60006123f7602083612225565b9150612402826123c1565b602082019050919050565b60006020820190508181036000830152612426816123ea565b9050919050565b600081905092915050565b50565b600061244860008361242d565b915061245382612438565b600082019050919050565b60006124698261243b565b9150819050919050565b7f526577617264207061796d656e74206661696c65640000000000000000000000600082015250565b60006124a9601583612225565b91506124b482612473565b602082019050919050565b600060208201905081810360008301526124d88161249c565b9050919050565b7f4e6f7420756e616c6c6f63617465640000000000000000000000000000000000600082015250565b6000612515600f83612225565b9150612520826124df565b602082019050919050565b6000602082019050818103600083015261254481612508565b9050919050565b7f43726561746f722063616e6e6f742074616b65206f776e207461736b00000000600082015250565b6000612581601c83612225565b915061258c8261254b565b602082019050919050565b600060208201905081810360008301526125b081612574565b9050919050565b6125c081611d00565b82525050565b60006040820190506125db6000830185611cb6565b6125e860208301846125b7565b9392505050565b7f4e487b7100000000000000000000000000000000000000000000000000000000600052603260045260246000fd5b7f4e487b7100000000000000000000000000000000000000000000000000000000600052602260045260246000fd5b6000600282049050600182168061266557607f821691505b6020821081036126785761267761261e565b5b50919050565b7f526577617264206d757374206265203e20300000000000000000000000000000600082015250565b60006126b4601283612225565b91506126bf8261267e565b602082019050919050565b600060208201905081810360008301526126e3816126a7565b9050919050565b7f4e487b7100000000000000000000000000000000000000000000000000000000600052601160045260246000fd5b600061272482611c53565b91507fffffffffffffffffffffffffffffffffffffffffffffffffffffffffffffffff8203612756576127556126ea565b5b600182019050919050565b60008190508160005260206000209050919050565b60006020601f8301049050919050565b600082821b905092915050565b6000600883026127c37fffffffffffffffffffffffffffffffffffffffffffffffffffffffffffffffff82612786565b6127cd8683612786565b95508019841693508086168417925050509392505050565b6000819050919050565b600061280a61280561280084611c53565b6127e5565b611c53565b9050919050565b6000819050919050565b612824836127ef565b61283861283082612811565b848454612793565b825550505050565b600090565b61284d612840565b61285881848461281b565b505050565b5b8181101561287c57612871600082612845565b60018101905061285e565b5050565b601f8211156128c15761289281612761565b61289b84612776565b810160208510156128aa578190505b6128be6128b685612776565b83018261285d565b50505b505050565b600082821c905092915050565b60006128e4600019846008026128c6565b1980831691505092915050565b60006128fd83836128d3565b9150826002028217905092915050565b61291682611db9565b67ffffffffffffffff81111561292f5761292e61206f565b5b612939825461264d565b612944828285612880565b600060209050601f8311600181146129775760008415612965578287015190505b61296f85826128f1565b8655506129d7565b601f19841661298586612761565b60005b828110156129ad57848901518255600182019150602085019450602081019050612988565b868310156129ca57848901516129c6601f8916826128d3565b8355505b6001600288020188555050505b505050505050565b60006080820190506129f46000830187611cb6565b8181036020830152612a068186612236565b9050612a156040830185611cb6565b612a2260608301846125b7565b95945050505050565b7f4e6f74207461736b2063726561746f7200000000000000000000000000000000600082015250565b6000612a61601083612225565b9150612a6c82612a2b565b602082019050919050565b60006020820190508181036000830152612a9081612a54565b9050919050565b7f5461736b20616c726561647920616c6c6f636174656400000000000000000000600082015250565b6000612acd601683612225565b9150612ad882612a97565b602082019050919050565b60006020820190508181036000830152612afc81612ac0565b9050919050565b7f526566756e64206661696c656400000000000000000000000000000000000000600082015250565b6000612b39600d83612225565b9150612b4482612b03565b602082019050919050565b60006020820190508181036000830152612b6881612b2c565b9050919050565b7f596f7520617265206e6f742061737369676e656420746f20746869732074617360008201527f6b00000000000000000000000000000000000000000000000000000000000000602082015250565b6000612bcb602183612225565b9150612bd682612b6f565b604082019050919050565b60006020820190508181036000830152612bfa81612bbe565b9050919050565b7f5461736b206e6f7420696e2070726f6772657373000000000000000000000000600082015250565b6000612c37601483612225565b9150612c4282612c01565b602082019050919050565b60006020820190508181036000830152612c6681612c2a565b9050919050565b60006080820190508181036000830152612c878187612236565b9050612c966020830186611cb6565b8181036040830152612ca88185612236565b9050612cb760608301846125b7565b95945050505050565b60006040820190508181036000830152612cda8185612236565b9050612ce96020830184611cb6565b9392505050565b60006060820190508181036000830152612d0a8186612236565b9050612d196020830185611cb6565b612d266040830184611cb6565b949350505050565b60006080820190508181036000830152612d488187612236565b9050612d576020830186611cb6565b8181036040830152612d698185612236565b9050612d786060830184611cb6565b95945050505050565b7f4e487b7100000000000000000000000000000000000000000000000000000000600052605160045260246000fdfea2646970667358221220c0a8463133c2fd7c6b0bc2b4a41a90fdce15f731d4a9fa39c4fce0144fb8b55a64736f6c634300081c0033",
  "linkReferences": {},
  "deployedLinkReferences": {}
}