{
  "_format": "hh-sol-artifact-1",
  "contractName": "TaskManagement",
  "sourceName": "contracts/TaskManagement.sol",
  "abi": [
    {
      "anonymous": false,
      "inputs": [
        {
          "indexed": false,
          "internalType": "uint256",
          "name": "taskId",
          "type": "uint256"
        },
        {
          "indexed": false,
          "internalType": "address",
          "name": "assignedTo",
          "type": "address"
        }
      ],
      "name": "TaskAssigned",
      "type": "event"
    },
    {
      "anonymous": false,
      "inputs": [
        {
          "indexed": false,
          "internalType": "uint256",
          "name": "taskId",
          "type": "uint256"
        }
      ],
      "name": "TaskCancelled",
      "type": "event"
    },
    {
      "anonymous": false,
      "inputs": [
        {
          "indexed": false,
          "internalType": "uint256",
          "name": "taskId",
          "type": "uint256"
        }
      ],
      "name": "TaskCompleted",
      "type": "event"
    },
    {
      "anonymous": false,
      "inputs": [
        {
          "indexed": false,
          "internalType": "uint256",
          "name": "taskId",
          "type": "uint256"
        },
        {
          "indexed": false,
          "internalType": "string",
          "name": "name",
          "type": "string"
        },
        {
          "indexed": false,
          "internalType": "uint256",
          "name": "expiry",
          "type": "uint256"
        },
        {
          "indexed": false,
          "internalType": "address",
          "name": "creator",
          "type": "address"
        }
      ],
      "name": "TaskCreated",
      "type": "event"
    },
    {
      "inputs": [
        {
          "internalType": "string",
          "name": "name",
          "type": "string"
        },
        {
          "internalType": "string",
          "name": "description",
          "type": "string"
        },
        {
          "internalType": "uint256",
          "name": "expiry",
          "type": "uint256"
        }
      ],
      "name": "addTask",
      "outputs": [],
      "stateMutability": "nonpayable",
      "type": "function"
    },
    {
      "inputs": [
        {
          "internalType": "uint256",
          "name": "taskId",
          "type": "uint256"
        }
      ],
      "name": "cancelTask",
      "outputs": [
        {
          "internalType": "bool",
          "name": "",
          "type": "bool"
        }
      ],
      "stateMutability": "nonpayable",
      "type": "function"
    },
    {
      "inputs": [
        {
          "internalType": "uint256",
          "name": "taskId",
          "type": "uint256"
        }
      ],
      "name": "completeTask",
      "outputs": [
        {
          "internalType": "bool",
          "name": "",
          "type": "bool"
        }
      ],
      "stateMutability": "nonpayable",
      "type": "function"
    },
    {
      "inputs": [],
      "name": "getAllTasks",
      "outputs": [
        {
          "components": [
            {
              "internalType": "uint256",
              "name": "id",
              "type": "uint256"
            },
            {
              "internalType": "string",
              "name": "name",
              "type": "string"
            },
            {
              "internalType": "string",
              "name": "description",
              "type": "string"
            },
            {
              "internalType": "uint256",
              "name": "timestamp",
              "type": "uint256"
            },
            {
              "internalType": "uint256",
              "name": "expiry",
              "type": "uint256"
            },
            {
              "internalType": "enum TaskManagement.TaskStatus",
              "name": "status",
              "type": "uint8"
            },
            {
              "internalType": "address",
              "name": "assignedTo",
              "type": "address"
            },
            {
              "internalType": "address",
              "name": "creator",
              "type": "address"
            }
          ],
          "internalType": "struct TaskManagement.Task[]",
          "name": "",
          "type": "tuple[]"
        }
      ],
      "stateMutability": "view",
      "type": "function"
    },
    {
      "inputs": [
        {
          "internalType": "address",
          "name": "user",
          "type": "address"
        }
      ],
      "name": "getUserTasks",
      "outputs": [
        {
          "components": [
            {
              "internalType": "uint256",
              "name": "id",
              "type": "uint256"
            },
            {
              "internalType": "string",
              "name": "name",
              "type": "string"
            },
            {
              "internalType": "string",
              "name": "description",
              "type": "string"
            },
            {
              "internalType": "uint256",
              "name": "timestamp",
              "type": "uint256"
            },
            {
              "internalType": "uint256",
              "name": "expiry",
              "type": "uint256"
            },
            {
              "internalType": "enum TaskManagement.TaskStatus",
              "name": "status",
              "type": "uint8"
            },
            {
              "internalType": "address",
              "name": "assignedTo",
              "type": "address"
            },
            {
              "internalType": "address",
              "name": "creator",
              "type": "address"
            }
          ],
          "internalType": "struct TaskManagement.Task[]",
          "name": "",
          "type": "tuple[]"
        }
      ],
      "stateMutability": "view",
      "type": "function"
    },
    {
      "inputs": [],
      "name": "numTasks",
      "outputs": [
        {
          "internalType": "uint256",
          "name": "",
          "type": "uint256"
        }
      ],
      "stateMutability": "view",
      "type": "function"
    },
    {
      "inputs": [
        {
          "internalType": "uint256",
          "name": "taskId",
          "type": "uint256"
        }
      ],
      "name": "takeTask",
      "outputs": [
        {
          "internalType": "bool",
          "name": "",
          "type": "bool"
        }
      ],
      "stateMutability": "nonpayable",
      "type": "function"
    },
    {
      "inputs": [
        {
          "internalType": "uint256",
          "name": "",
          "type": "uint256"
        }
      ],
      "name": "taskIds",
      "outputs": [
        {
          "internalType": "uint256",
          "name": "",
          "type": "uint256"
        }
      ],
      "stateMutability": "view",
      "type": "function"
    },
    {
      "inputs": [
        {
          "internalType": "uint256",
          "name": "",
          "type": "uint256"
        }
      ],
      "name": "tasks",
      "outputs": [
        {
          "internalType": "uint256",
          "name": "id",
          "type": "uint256"
        },
        {
          "internalType": "string",
          "name": "name",
          "type": "string"
        },
        {
          "internalType": "string",
          "name": "description",
          "type": "string"
        },
        {
          "internalType": "uint256",
          "name": "timestamp",
          "type": "uint256"
        },
        {
          "internalType": "uint256",
          "name": "expiry",
          "type": "uint256"
        },
        {
          "internalType": "enum TaskManagement.TaskStatus",
          "name": "status",
          "type": "uint8"
        },
        {
          "internalType": "address",
          "name": "assignedTo",
          "type": "address"
        },
        {
          "internalType": "address",
          "name": "creator",
          "type": "address"
        }
      ],
      "stateMutability": "view",
      "type": "function"
    },
    {
      "inputs": [
        {
          "internalType": "address",
          "name": "",
          "type": "address"
        },
        {
          "internalType": "uint256",
          "name": "",
          "type": "uint256"
        }
      ],
      "name": "userTasks",
      "outputs": [
        {
          "internalType": "uint256",
          "name": "",
          "type": "uint256"
        }
      ],
      "stateMutability": "view",
      "type": "function"
    }
  ],
  "bytecode": "0x6080604052348015600f57600080fd5b5061248d8061001f6000396000f3fe608060405234801561001057600080fd5b506004361061009e5760003560e01c80637eec20a8116100665780637eec20a81461016d5780638d9776721461019d57806395d57660146101d4578063bda09cd414610204578063e1e29558146102225761009e565b806339118d25146100a357806356deb110146100d357806366873a5514610103578063779900b4146101335780637cbc9ae914610151575b600080fd5b6100bd60048036038101906100b891906116f2565b610252565b6040516100ca919061172e565b60405180910390f35b6100ed60048036038101906100e891906116f2565b610276565b6040516100fa9190611764565b60405180910390f35b61011d600480360381019061011891906117dd565b6104ef565b60405161012a919061172e565b60405180910390f35b61013b610520565b6040516101489190611abb565b60405180910390f35b61016b60048036038101906101669190611c12565b610867565b005b610187600480360381019061018291906116f2565b610ac6565b6040516101949190611764565b60405180910390f35b6101b760048036038101906101b291906116f2565b610cf0565b6040516101cb989796959493929190611d05565b60405180910390f35b6101ee60048036038101906101e99190611d91565b610e95565b6040516101fb9190611abb565b60405180910390f35b61020c611265565b604051610219919061172e565b60405180910390f35b61023c600480360381019061023791906116f2565b61126b565b6040516102499190611764565b60405180910390f35b6002818154811061026257600080fd5b906000526020600020016000915090505481565b6000806000808481526020019081526020016000209050600060038111156102a1576102a06118e8565b5b8160050160009054906101000a900460ff1660038111156102c5576102c46118e8565b5b14610305576040517f08c379a00000000000000000000000000000000000000000000000000000000081526004016102fc90611e0a565b60405180910390fd5b3373ffffffffffffffffffffffffffffffffffffffff168160060160009054906101000a900473ffffffffffffffffffffffffffffffffffffffff1673ffffffffffffffffffffffffffffffffffffffff1603610397576040517f08c379a000000000000000000000000000000000000000000000000000000000815260040161038e90611e76565b60405180910390fd5b338160050160016101000a81548173ffffffffffffffffffffffffffffffffffffffff021916908373ffffffffffffffffffffffffffffffffffffffff16021790555060018160050160006101000a81548160ff02191690836003811115610402576104016118e8565b5b0217905550600160003373ffffffffffffffffffffffffffffffffffffffff1673ffffffffffffffffffffffffffffffffffffffff1681526020019081526020016000208390806001815401808255809150506001900390600052602060002001600090919091909150557f52476d55ecef5cf13caa64038f297fe6bbf865d9584a98b8722a15a6d5db128f833360405161049e929190611e96565b60405180910390a16104e56040518060400160405280600f81526020017f5461736b2061737369676e65643a200000000000000000000000000000000000815250846113f8565b6001915050919050565b6001602052816000526040600020818154811061050b57600080fd5b90600052602060002001600091509150505481565b60606000600280549050905060008167ffffffffffffffff81111561054857610547611ae7565b5b60405190808252806020026020018201604052801561058157816020015b61056e61161b565b8152602001906001900390816105665790505b50905060005b8281101561081f57600080600283815481106105a6576105a5611ebf565b5b9060005260206000200154815260200190815260200160002060405180610100016040529081600082015481526020016001820180546105e590611f1d565b80601f016020809104026020016040519081016040528092919081815260200182805461061190611f1d565b801561065e5780601f106106335761010080835404028352916020019161065e565b820191906000526020600020905b81548152906001019060200180831161064157829003601f168201915b5050505050815260200160028201805461067790611f1d565b80601f01602080910402602001604051908101604052809291908181526020018280546106a390611f1d565b80156106f05780601f106106c5576101008083540402835291602001916106f0565b820191906000526020600020905b8154815290600101906020018083116106d357829003601f168201915b5050505050815260200160038201548152602001600482015481526020016005820160009054906101000a900460ff166003811115610732576107316118e8565b5b6003811115610744576107436118e8565b5b81526020016005820160019054906101000a900473ffffffffffffffffffffffffffffffffffffffff1673ffffffffffffffffffffffffffffffffffffffff1673ffffffffffffffffffffffffffffffffffffffff1681526020016006820160009054906101000a900473ffffffffffffffffffffffffffffffffffffffff1673ffffffffffffffffffffffffffffffffffffffff1673ffffffffffffffffffffffffffffffffffffffff168152505082828151811061080757610806611ebf565b5b60200260200101819052508080600101915050610587565b5061085f6040518060400160405280601181526020017f5461736b73205265747269657665643a20000000000000000000000000000000815250836113f8565b809250505090565b60006003600081548092919061087c90611f7d565b919050559050604051806101000160405280828152602001858152602001848152602001428152602001838152602001600060038111156108c0576108bf6118e8565b5b8152602001600073ffffffffffffffffffffffffffffffffffffffff1681526020013373ffffffffffffffffffffffffffffffffffffffff1681525060008083815260200190815260200160002060008201518160000155602082015181600101908161092d9190612171565b5060408201518160020190816109439190612171565b50606082015181600301556080820151816004015560a08201518160050160006101000a81548160ff02191690836003811115610983576109826118e8565b5b021790555060c08201518160050160016101000a81548173ffffffffffffffffffffffffffffffffffffffff021916908373ffffffffffffffffffffffffffffffffffffffff16021790555060e08201518160060160006101000a81548173ffffffffffffffffffffffffffffffffffffffff021916908373ffffffffffffffffffffffffffffffffffffffff16021790555090505060028190806001815401808255809150506001900390600052602060002001600090919091909150557f29c8f9924c46286774869ac7896e10bcaed1aaedfeea403b45bdf64cdd3f45ba81858433604051610a779493929190612243565b60405180910390a1610ac06040518060400160405280601081526020017f4e6577205461736b2041646465643a2000000000000000000000000000000000815250828633611494565b50505050565b6000813373ffffffffffffffffffffffffffffffffffffffff1660008083815260200190815260200160002060060160009054906101000a900473ffffffffffffffffffffffffffffffffffffffff1673ffffffffffffffffffffffffffffffffffffffff1614610b6c576040517f08c379a0000000000000000000000000000000000000000000000000000000008152600401610b63906122db565b60405180910390fd5b6000806000858152602001908152602001600020905060006003811115610b9657610b956118e8565b5b8160050160009054906101000a900460ff166003811115610bba57610bb96118e8565b5b14610bfa576040517f08c379a0000000000000000000000000000000000000000000000000000000008152600401610bf190612347565b60405180910390fd5b60006003811115610c0e57610c0d6118e8565b5b8160050160009054906101000a900460ff166003811115610c3257610c316118e8565b5b03610ce45760038160050160006101000a81548160ff02191690836003811115610c5f57610c5e6118e8565b5b02179055507fc6eacc3aa5b2aa77b5a826b832a804ca0b71830ec74f9aa57a15edd978c31ed684604051610c93919061172e565b60405180910390a1610cda6040518060400160405280601081526020017f5461736b2063616e63656c6c65643a2000000000000000000000000000000000815250856113f8565b6001925050610cea565b60009250505b50919050565b6000602052806000526040600020600091509050806000015490806001018054610d1990611f1d565b80601f0160208091040260200160405190810160405280929190818152602001828054610d4590611f1d565b8015610d925780601f10610d6757610100808354040283529160200191610d92565b820191906000526020600020905b815481529060010190602001808311610d7557829003601f168201915b505050505090806002018054610da790611f1d565b80601f0160208091040260200160405190810160405280929190818152602001828054610dd390611f1d565b8015610e205780601f10610df557610100808354040283529160200191610e20565b820191906000526020600020905b815481529060010190602001808311610e0357829003601f168201915b5050505050908060030154908060040154908060050160009054906101000a900460ff16908060050160019054906101000a900473ffffffffffffffffffffffffffffffffffffffff16908060060160009054906101000a900473ffffffffffffffffffffffffffffffffffffffff16905088565b60606000600160008473ffffffffffffffffffffffffffffffffffffffff1673ffffffffffffffffffffffffffffffffffffffff168152602001908152602001600020805480602002602001604051908101604052809291908181526020018280548015610f2257602002820191906000526020600020905b815481526020019060010190808311610f0e575b505050505090506000815167ffffffffffffffff811115610f4657610f45611ae7565b5b604051908082528060200260200182016040528015610f7f57816020015b610f6c61161b565b815260200190600190039081610f645790505b50905060005b825181101561121a57600080848381518110610fa457610fa3611ebf565b5b602002602001015181526020019081526020016000206040518061010001604052908160008201548152602001600182018054610fe090611f1d565b80601f016020809104026020016040519081016040528092919081815260200182805461100c90611f1d565b80156110595780601f1061102e57610100808354040283529160200191611059565b820191906000526020600020905b81548152906001019060200180831161103c57829003601f168201915b5050505050815260200160028201805461107290611f1d565b80601f016020809104026020016040519081016040528092919081815260200182805461109e90611f1d565b80156110eb5780601f106110c0576101008083540402835291602001916110eb565b820191906000526020600020905b8154815290600101906020018083116110ce57829003601f168201915b5050505050815260200160038201548152602001600482015481526020016005820160009054906101000a900460ff16600381111561112d5761112c6118e8565b5b600381111561113f5761113e6118e8565b5b81526020016005820160019054906101000a900473ffffffffffffffffffffffffffffffffffffffff1673ffffffffffffffffffffffffffffffffffffffff1673ffffffffffffffffffffffffffffffffffffffff1681526020016006820160009054906101000a900473ffffffffffffffffffffffffffffffffffffffff1673ffffffffffffffffffffffffffffffffffffffff1673ffffffffffffffffffffffffffffffffffffffff168152505082828151811061120257611201611ebf565b5b60200260200101819052508080600101915050610f85565b5061125b6040518060400160405280601181526020017f5461736b73205265747269657665643a2000000000000000000000000000000081525083516113f8565b8092505050919050565b60035481565b60008060008084815260200190815260200160002090503373ffffffffffffffffffffffffffffffffffffffff168160050160019054906101000a900473ffffffffffffffffffffffffffffffffffffffff1673ffffffffffffffffffffffffffffffffffffffff161480156113165750600160038111156112f0576112ef6118e8565b5b8160050160009054906101000a900460ff166003811115611314576113136118e8565b5b145b156113ed5760028160050160006101000a81548160ff02191690836003811115611343576113426118e8565b5b02179055507fc1fa7142cfb933d0855114a3bffde296944c30b727f297c14d0db4d553d3a5c783604051611377919061172e565b60405180910390a16113e36040518060400160405280601081526020017f5461736b20636f6d706c657465643a2000000000000000000000000000000000815250848360050160019054906101000a900473ffffffffffffffffffffffffffffffffffffffff16611536565b60019150506113f3565b60009150505b919050565b611490828260405160240161140e929190612367565b6040516020818303038152906040527fb60e72cc000000000000000000000000000000000000000000000000000000007bffffffffffffffffffffffffffffffffffffffffffffffffffffffff19166020820180517bffffffffffffffffffffffffffffffffffffffffffffffffffffffff83818316178352505050506115d5565b5050565b611530848484846040516024016114ae9493929190612397565b6040516020818303038152906040527f7c4632a4000000000000000000000000000000000000000000000000000000007bffffffffffffffffffffffffffffffffffffffffffffffffffffffff19166020820180517bffffffffffffffffffffffffffffffffffffffffffffffffffffffff83818316178352505050506115d5565b50505050565b6115d083838360405160240161154e939291906123ea565b6040516020818303038152906040527f1c7ec448000000000000000000000000000000000000000000000000000000007bffffffffffffffffffffffffffffffffffffffffffffffffffffffff19166020820180517bffffffffffffffffffffffffffffffffffffffffffffffffffffffff83818316178352505050506115d5565b505050565b6115ec816115e46115ef611610565b63ffffffff16565b50565b60006a636f6e736f6c652e6c6f679050600080835160208501845afa505050565b61169e819050919050565b60405180610100016040528060008152602001606081526020016060815260200160008152602001600081526020016000600381111561165e5761165d6118e8565b5b8152602001600073ffffffffffffffffffffffffffffffffffffffff168152602001600073ffffffffffffffffffffffffffffffffffffffff1681525090565b6116a6612428565b565b6000604051905090565b600080fd5b600080fd5b6000819050919050565b6116cf816116bc565b81146116da57600080fd5b50565b6000813590506116ec816116c6565b92915050565b600060208284031215611708576117076116b2565b5b6000611716848285016116dd565b91505092915050565b611728816116bc565b82525050565b6000602082019050611743600083018461171f565b92915050565b60008115159050919050565b61175e81611749565b82525050565b60006020820190506117796000830184611755565b92915050565b600073ffffffffffffffffffffffffffffffffffffffff82169050919050565b60006117aa8261177f565b9050919050565b6117ba8161179f565b81146117c557600080fd5b50565b6000813590506117d7816117b1565b92915050565b600080604083850312156117f4576117f36116b2565b5b6000611802858286016117c8565b9250506020611813858286016116dd565b9150509250929050565b600081519050919050565b600082825260208201905092915050565b6000819050602082019050919050565b611852816116bc565b82525050565b600081519050919050565b600082825260208201905092915050565b60005b83811015611892578082015181840152602081019050611877565b60008484015250505050565b6000601f19601f8301169050919050565b60006118ba82611858565b6118c48185611863565b93506118d4818560208601611874565b6118dd8161189e565b840191505092915050565b7f4e487b7100000000000000000000000000000000000000000000000000000000600052602160045260246000fd5b60048110611928576119276118e8565b5b50565b600081905061193982611917565b919050565b60006119498261192b565b9050919050565b6119598161193e565b82525050565b6119688161179f565b82525050565b6000610100830160008301516119876000860182611849565b506020830151848203602086015261199f82826118af565b915050604083015184820360408601526119b982826118af565b91505060608301516119ce6060860182611849565b5060808301516119e16080860182611849565b5060a08301516119f460a0860182611950565b5060c0830151611a0760c086018261195f565b5060e0830151611a1a60e086018261195f565b508091505092915050565b6000611a31838361196e565b905092915050565b6000602082019050919050565b6000611a518261181d565b611a5b8185611828565b935083602082028501611a6d85611839565b8060005b85811015611aa95784840389528151611a8a8582611a25565b9450611a9583611a39565b925060208a01995050600181019050611a71565b50829750879550505050505092915050565b60006020820190508181036000830152611ad58184611a46565b905092915050565b600080fd5b600080fd5b7f4e487b7100000000000000000000000000000000000000000000000000000000600052604160045260246000fd5b611b1f8261189e565b810181811067ffffffffffffffff82111715611b3e57611b3d611ae7565b5b80604052505050565b6000611b516116a8565b9050611b5d8282611b16565b919050565b600067ffffffffffffffff821115611b7d57611b7c611ae7565b5b611b868261189e565b9050602081019050919050565b82818337600083830152505050565b6000611bb5611bb084611b62565b611b47565b905082815260208101848484011115611bd157611bd0611ae2565b5b611bdc848285611b93565b509392505050565b600082601f830112611bf957611bf8611add565b5b8135611c09848260208601611ba2565b91505092915050565b600080600060608486031215611c2b57611c2a6116b2565b5b600084013567ffffffffffffffff811115611c4957611c486116b7565b5b611c5586828701611be4565b935050602084013567ffffffffffffffff811115611c7657611c756116b7565b5b611c8286828701611be4565b9250506040611c93868287016116dd565b9150509250925092565b600082825260208201905092915050565b6000611cb982611858565b611cc38185611c9d565b9350611cd3818560208601611874565b611cdc8161189e565b840191505092915050565b611cf08161193e565b82525050565b611cff8161179f565b82525050565b600061010082019050611d1b600083018b61171f565b8181036020830152611d2d818a611cae565b90508181036040830152611d418189611cae565b9050611d50606083018861171f565b611d5d608083018761171f565b611d6a60a0830186611ce7565b611d7760c0830185611cf6565b611d8460e0830184611cf6565b9998505050505050505050565b600060208284031215611da757611da66116b2565b5b6000611db5848285016117c8565b91505092915050565b7f4e6f7420756e616c6c6f63617465640000000000000000000000000000000000600082015250565b6000611df4600f83611c9d565b9150611dff82611dbe565b602082019050919050565b60006020820190508181036000830152611e2381611de7565b9050919050565b7f43726561746f722063616e6e6f742074616b65206f776e207461736b00000000600082015250565b6000611e60601c83611c9d565b9150611e6b82611e2a565b602082019050919050565b60006020820190508181036000830152611e8f81611e53565b9050919050565b6000604082019050611eab600083018561171f565b611eb86020830184611cf6565b9392505050565b7f4e487b7100000000000000000000000000000000000000000000000000000000600052603260045260246000fd5b7f4e487b7100000000000000000000000000000000000000000000000000000000600052602260045260246000fd5b60006002820490506001821680611f3557607f821691505b602082108103611f4857611f47611eee565b5b50919050565b7f4e487b7100000000000000000000000000000000000000000000000000000000600052601160045260246000fd5b6000611f88826116bc565b91507fffffffffffffffffffffffffffffffffffffffffffffffffffffffffffffffff8203611fba57611fb9611f4e565b5b600182019050919050565b60008190508160005260206000209050919050565b60006020601f8301049050919050565b600082821b905092915050565b6000600883026120277fffffffffffffffffffffffffffffffffffffffffffffffffffffffffffffffff82611fea565b6120318683611fea565b95508019841693508086168417925050509392505050565b6000819050919050565b600061206e612069612064846116bc565b612049565b6116bc565b9050919050565b6000819050919050565b61208883612053565b61209c61209482612075565b848454611ff7565b825550505050565b600090565b6120b16120a4565b6120bc81848461207f565b505050565b5b818110156120e0576120d56000826120a9565b6001810190506120c2565b5050565b601f821115612125576120f681611fc5565b6120ff84611fda565b8101602085101561210e578190505b61212261211a85611fda565b8301826120c1565b50505b505050565b600082821c905092915050565b60006121486000198460080261212a565b1980831691505092915050565b60006121618383612137565b9150826002028217905092915050565b61217a82611858565b67ffffffffffffffff81111561219357612192611ae7565b5b61219d8254611f1d565b6121a88282856120e4565b600060209050601f8311600181146121db57600084156121c9578287015190505b6121d38582612155565b86555061223b565b601f1984166121e986611fc5565b60005b82811015612211578489015182556001820191506020850194506020810190506121ec565b8683101561222e578489015161222a601f891682612137565b8355505b6001600288020188555050505b505050505050565b6000608082019050612258600083018761171f565b818103602083015261226a8186611cae565b9050612279604083018561171f565b6122866060830184611cf6565b95945050505050565b7f4e6f74207461736b2063726561746f7200000000000000000000000000000000600082015250565b60006122c5601083611c9d565b91506122d08261228f565b602082019050919050565b600060208201905081810360008301526122f4816122b8565b9050919050565b7f5461736b20616c726561647920616c6c6f636174656400000000000000000000600082015250565b6000612331601683611c9d565b915061233c826122fb565b602082019050919050565b6000602082019050818103600083015261236081612324565b9050919050565b600060408201905081810360008301526123818185611cae565b9050612390602083018461171f565b9392505050565b600060808201905081810360008301526123b18187611cae565b90506123c0602083018661171f565b81810360408301526123d28185611cae565b90506123e16060830184611cf6565b95945050505050565b600060608201905081810360008301526124048186611cae565b9050612413602083018561171f565b6124206040830184611cf6565b949350505050565b7f4e487b7100000000000000000000000000000000000000000000000000000000600052605160045260246000fdfea2646970667358221220d8120de2fbd5726216b947a2089dab4eafa77502a63035334712626afca61d9f64736f6c634300081c0033",
  "linkReferences": {},
  "deployedLinkReferences": {}
}