{"contracts/TaskManagement.sol":{"TaskManagement":{"abi":[{"anonymous":false,"inputs":[{"indexed":false,"internalType":"uint256","name":"taskId","type":"uint256"}],"name":"TaskApproved","type":"event"},{"anonymous":false,"inputs":[{"indexed":false,"internalType":"uint256","name":"taskId","type":"uint256"},{"indexed":false,"internalType":"address","name":"assignedTo","type":"address"}],"name":"TaskAssigned","type":"event"},{"anonymous":false,"inputs":[{"indexed":false,"internalType":"uint256","name":"taskId","type":"uint256"}],"name":"TaskCancelled","type":"event"},{"anonymous":false,"inputs":[{"indexed":false,"internalType":"uint256","name":"taskId","type":"uint256"}],"name":"TaskCompleted","type":"event"},{"anonymous":false,"inputs":[{"indexed":false,"internalType":"uint256","name":"taskId","type":"uint256"},{"indexed":false,"internalType":"string","name":"name","type":"string"},{"indexed":false,"internalType":"uint256","name":"expiry","type":"uint256"},{"indexed":false,"internalType":"address","name":"creator","type":"address"}],"name":"TaskCreated","type":"event"},{"inputs":[{"internalType":"string","name":"name","type":"string"},{"internalType":"string","name":"description","type":"string"},{"internalType":"uint256","name":"expiry","type":"uint256"}],"name":"addTask","outputs":[],"stateMutability":"payable","type":"function"},{"inputs":[{"internalType":"uint256","name":"taskId","type":"uint256"}],"name":"approveTask","outputs":[],"stateMutability":"nonpayable","type":"function"},{"inputs":[{"internalType":"uint256","name":"taskId","type":"uint256"}],"name":"cancelTask","outputs":[],"stateMutability":"nonpayable","type":"function"},{"inputs":[{"internalType":"uint256","name":"taskId","type":"uint256"}],"name":"completeTask","outputs":[],"stateMutability":"nonpayable","type":"function"},{"inputs":[],"name":"getAllTasks","outputs":[{"components":[{"internalType":"uint256","name":"id","type":"uint256"},{"internalType":"string","name":"name","type":"string"},{"internalType":"string","name":"description","type":"string"},{"internalType":"uint256","name":"timestamp","type":"uint256"},{"internalType":"uint256","name":"expiry","type":"uint256"},{"internalType":"enum TaskManagement.TaskStatus","name":"status","type":"uint8"},{"internalType":"address payable","name":"assignedTo","type":"address"},{"internalType":"address payable","name":"creator","type":"address"},{"internalType":"uint256","name":"reward","type":"uint256"}],"internalType":"struct TaskManagement.Task[]","name":"","type":"tuple[]"}],"stateMutability":"view","type":"function"},{"inputs":[{"internalType":"address","name":"user","type":"address"}],"name":"getUserTasks","outputs":[{"components":[{"internalType":"uint256","name":"id","type":"uint256"},{"internalType":"string","name":"name","type":"string"},{"internalType":"string","name":"description","type":"string"},{"internalType":"uint256","name":"timestamp","type":"uint256"},{"internalType":"uint256","name":"expiry","type":"uint256"},{"internalType":"enum TaskManagement.TaskStatus","name":"status","type":"uint8"},{"internalType":"address payable","name":"assignedTo","type":"address"},{"internalType":"address payable","name":"creator","type":"address"},{"internalType":"uint256","name":"reward","type":"uint256"}],"internalType":"struct TaskManagement.Task[]","name":"","type":"tuple[]"}],"stateMutability":"view","type":"function"},{"inputs":[],"name":"numTasks","outputs":[{"internalType":"uint256","name":"","type":"uint256"}],"stateMutability":"view","type":"function"},{"inputs":[{"internalType":"uint256","name":"taskId","type":"uint256"}],"name":"takeTask","outputs":[],"stateMutability":"nonpayable","type":"function"},{"inputs":[{"internalType":"uint256","name":"","type":"uint256"}],"name":"taskIds","outputs":[{"internalType":"uint256","name":"","type":"uint256"}],"stateMutability":"view","type":"function"},{"inputs":[{"internalType":"uint256","name":"","type":"uint256"}],"name":"tasks","outputs":[{"internalType":"uint256","name":"id","type":"uint256"},{"internalType":"string","name":"name","type":"string"},{"internalType":"string","name":"description","type":"string"},{"internalType":"uint256","name":"timestamp","type":"uint256"},{"internalType":"uint256","name":"expiry","type":"uint256"},{"internalType":"enum TaskManagement.TaskStatus","name":"status","type":"uint8"},{"internalType":"address payable","name":"assignedTo","type":"address"},{"internalType":"address payable","name":"creator","type":"address"},{"internalType":"uint256","name":"reward","type":"uint256"}],"stateMutability":"view","type":"function"},{"inputs":[{"internalType":"address","name":"","type":"address"},{"internalType":"uint256","name":"","type":"uint256"}],"name":"userTasks","outputs":[{"internalType":"uint256","name":"","type":"uint256"}],"stateMutability":"view","type":"function"}],"evm":{"bytecode":{"linkReferences":{},"object":"6080604052348015600f57600080fd5b50612f068061001f6000396000f3fe60806040526004361061009c5760003560e01c80637cbc9ae9116100645780637cbc9ae9146101985780637eec20a8146101b45780638d977672146101dd57806395d5766014610222578063bda09cd41461025f578063e1e295581461028a5761009c565b80630a07fae6146100a157806339118d25146100ca57806356deb1101461010757806366873a5514610130578063779900b41461016d575b600080fd5b3480156100ad57600080fd5b506100c860048036038101906100c39190611d3d565b6102b3565b005b3480156100d657600080fd5b506100f160048036038101906100ec9190611d3d565b6105ed565b6040516100fe9190611d79565b60405180910390f35b34801561011357600080fd5b5061012e60048036038101906101299190611d3d565b610611565b005b34801561013c57600080fd5b5061015760048036038101906101529190611df2565b6108f4565b6040516101649190611d79565b60405180910390f35b34801561017957600080fd5b50610182610925565b60405161018f91906120f7565b60405180910390f35b6101b260048036038101906101ad919061224e565b610c36565b005b3480156101c057600080fd5b506101db60048036038101906101d69190611d3d565b610ee9565b005b3480156101e957600080fd5b5061020460048036038101906101ff9190611d3d565b6111d3565b60405161021999989796959493929190612341565b60405180910390f35b34801561022e57600080fd5b50610249600480360381019061024491906123dc565b61137e565b60405161025691906120f7565b60405180910390f35b34801561026b57600080fd5b50610274611718565b6040516102819190611d79565b60405180910390f35b34801561029657600080fd5b506102b160048036038101906102ac9190611d3d565b61171e565b005b600080600083815260200190815260200160002090503373ffffffffffffffffffffffffffffffffffffffff168160060160009054906101000a900473ffffffffffffffffffffffffffffffffffffffff1673ffffffffffffffffffffffffffffffffffffffff161461035b576040517f08c379a000000000000000000000000000000000000000000000000000000000815260040161035290612455565b60405180910390fd5b6002600481111561036f5761036e611efd565b5b8160050160009054906101000a900460ff16600481111561039357610392611efd565b5b146103d3576040517f08c379a00000000000000000000000000000000000000000000000000000000081526004016103ca906124c1565b60405180910390fd5b60038160050160006101000a81548160ff021916908360048111156103fb576103fa611efd565b5b021790555060008160050160019054906101000a900473ffffffffffffffffffffffffffffffffffffffff1673ffffffffffffffffffffffffffffffffffffffff16826007015460405161044e90612512565b60006040518083038185875af1925050503d806000811461048b576040519150601f19603f3d011682016040523d82523d6000602084013e610490565b606091505b50509050806104d4576040517f08c379a00000000000000000000000000000000000000000000000000000000081526004016104cb90612573565b60405180910390fd5b7f3e9d27a1c2a828db29e4b2a17fbd1bc70201ef21aec4f74b9fa051b02e38e3f0836040516105039190611d79565b60405180910390a16105a56040518060400160405280600e81526020017f5461736b20617070726f7665643a000000000000000000000000000000000000815250846040518060400160405280600381526020017f546f3a00000000000000000000000000000000000000000000000000000000008152508560050160019054906101000a900473ffffffffffffffffffffffffffffffffffffffff1661199a565b6105e86040518060400160405280600781526020017f5265776172643a000000000000000000000000000000000000000000000000008152508360070154611a3c565b505050565b600281815481106105fd57600080fd5b906000526020600020016000915090505481565b806000808281526020019081526020016000206004015442111561066a576040517f08c379a0000000000000000000000000000000000000000000000000000000008152600401610661906125df565b60405180910390fd5b600080600084815260200190815260200160002090506000600481111561069457610693611efd565b5b8160050160009054906101000a900460ff1660048111156106b8576106b7611efd565b5b146106f8576040517f08c379a00000000000000000000000000000000000000000000000000000000081526004016106ef9061264b565b60405180910390fd5b3373ffffffffffffffffffffffffffffffffffffffff168160060160009054906101000a900473ffffffffffffffffffffffffffffffffffffffff1673ffffffffffffffffffffffffffffffffffffffff160361078a576040517f08c379a0000000000000000000000000000000000000000000000000000000008152600401610781906126b7565b60405180910390fd5b338160050160016101000a81548173ffffffffffffffffffffffffffffffffffffffff021916908373ffffffffffffffffffffffffffffffffffffffff16021790555060018160050160006101000a81548160ff021916908360048111156107f5576107f4611efd565b5b0217905550600160003373ffffffffffffffffffffffffffffffffffffffff1673ffffffffffffffffffffffffffffffffffffffff1681526020019081526020016000208390806001815401808255809150506001900390600052602060002001600090919091909150557f52476d55ecef5cf13caa64038f297fe6bbf865d9584a98b8722a15a6d5db128f83336040516108919291906126e6565b60405180910390a16108ef6040518060400160405280600e81526020017f5461736b2061737369676e65643a000000000000000000000000000000000000815250843373ffffffffffffffffffffffffffffffffffffffff16611ad8565b505050565b6001602052816000526040600020818154811061091057600080fd5b90600052602060002001600091509150505481565b6060600060028054905067ffffffffffffffff81111561094857610947612123565b5b60405190808252806020026020018201604052801561098157816020015b61096e611c5f565b8152602001906001900390816109665790505b50905060005b600280549050811015610c2e57600080600283815481106109ab576109aa61270f565b5b9060005260206000200154815260200190815260200160002060405180610120016040529081600082015481526020016001820180546109ea9061276d565b80601f0160208091040260200160405190810160405280929190818152602001828054610a169061276d565b8015610a635780601f10610a3857610100808354040283529160200191610a63565b820191906000526020600020905b815481529060010190602001808311610a4657829003601f168201915b50505050508152602001600282018054610a7c9061276d565b80601f0160208091040260200160405190810160405280929190818152602001828054610aa89061276d565b8015610af55780601f10610aca57610100808354040283529160200191610af5565b820191906000526020600020905b815481529060010190602001808311610ad857829003601f168201915b5050505050815260200160038201548152602001600482015481526020016005820160009054906101000a900460ff166004811115610b3757610b36611efd565b5b6004811115610b4957610b48611efd565b5b81526020016005820160019054906101000a900473ffffffffffffffffffffffffffffffffffffffff1673ffffffffffffffffffffffffffffffffffffffff1673ffffffffffffffffffffffffffffffffffffffff1681526020016006820160009054906101000a900473ffffffffffffffffffffffffffffffffffffffff1673ffffffffffffffffffffffffffffffffffffffff1673ffffffffffffffffffffffffffffffffffffffff168152602001600782015481525050828281518110610c1657610c1561270f565b5b60200260200101819052508080600101915050610987565b508091505090565b60003411610c79576040517f08c379a0000000000000000000000000000000000000000000000000000000008152600401610c70906127ea565b60405180910390fd5b600060036000815480929190610c8e90612839565b91905055905060405180610120016040528082815260200185815260200184815260200142815260200183815260200160006004811115610cd257610cd1611efd565b5b8152602001600073ffffffffffffffffffffffffffffffffffffffff1681526020013373ffffffffffffffffffffffffffffffffffffffff16815260200134815250600080838152602001908152602001600020600082015181600001556020820151816001019081610d459190612a2d565b506040820151816002019081610d5b9190612a2d565b50606082015181600301556080820151816004015560a08201518160050160006101000a81548160ff02191690836004811115610d9b57610d9a611efd565b5b021790555060c08201518160050160016101000a81548173ffffffffffffffffffffffffffffffffffffffff021916908373ffffffffffffffffffffffffffffffffffffffff16021790555060e08201518160060160006101000a81548173ffffffffffffffffffffffffffffffffffffffff021916908373ffffffffffffffffffffffffffffffffffffffff160217905550610100820151816007015590505060028190806001815401808255809150506001900390600052602060002001600090919091909150557f29c8f9924c46286774869ac7896e10bcaed1aaedfeea403b45bdf64cdd3f45ba81858433604051610e9a9493929190612aff565b60405180910390a1610ee36040518060400160405280600f81526020017f4e6577205461736b2041646465643a000000000000000000000000000000000081525082863361199a565b50505050565b8060008082815260200190815260200160002060060160009054906101000a900473ffffffffffffffffffffffffffffffffffffffff1673ffffffffffffffffffffffffffffffffffffffff163373ffffffffffffffffffffffffffffffffffffffff1614610f8d576040517f08c379a0000000000000000000000000000000000000000000000000000000008152600401610f8490612b97565b60405180910390fd5b6000806000848152602001908152602001600020905060006004811115610fb757610fb6611efd565b5b8160050160009054906101000a900460ff166004811115610fdb57610fda611efd565b5b1461101b576040517f08c379a000000000000000000000000000000000000000000000000000000000815260040161101290612c03565b60405180910390fd5b60048160050160006101000a81548160ff0219169083600481111561104357611042611efd565b5b021790555060008160060160009054906101000a900473ffffffffffffffffffffffffffffffffffffffff1673ffffffffffffffffffffffffffffffffffffffff16826007015460405161109690612512565b60006040518083038185875af1925050503d80600081146110d3576040519150601f19603f3d011682016040523d82523d6000602084013e6110d8565b606091505b505090508061111c576040517f08c379a000000000000000000000000000000000000000000000000000000000815260040161111390612c6f565b60405180910390fd5b7fc6eacc3aa5b2aa77b5a826b832a804ca0b71830ec74f9aa57a15edd978c31ed68460405161114b9190611d79565b60405180910390a16111cd6040518060400160405280600f81526020017f5461736b2063616e63656c6c65643a0000000000000000000000000000000000815250856040518060400160405280601081526020017f52657761726420726566756e6465643a000000000000000000000000000000008152508560070154611b77565b50505050565b60006020528060005260406000206000915090508060000154908060010180546111fc9061276d565b80601f01602080910402602001604051908101604052809291908181526020018280546112289061276d565b80156112755780601f1061124a57610100808354040283529160200191611275565b820191906000526020600020905b81548152906001019060200180831161125857829003601f168201915b50505050509080600201805461128a9061276d565b80601f01602080910402602001604051908101604052809291908181526020018280546112b69061276d565b80156113035780601f106112d857610100808354040283529160200191611303565b820191906000526020600020905b8154815290600101906020018083116112e657829003601f168201915b5050505050908060030154908060040154908060050160009054906101000a900460ff16908060050160019054906101000a900473ffffffffffffffffffffffffffffffffffffffff16908060060160009054906101000a900473ffffffffffffffffffffffffffffffffffffffff16908060070154905089565b60606000600160008473ffffffffffffffffffffffffffffffffffffffff1673ffffffffffffffffffffffffffffffffffffffff16815260200190815260200160002080548060200260200160405190810160405280929190818152602001828054801561140b57602002820191906000526020600020905b8154815260200190600101908083116113f7575b505050505090506000815167ffffffffffffffff81111561142f5761142e612123565b5b60405190808252806020026020018201604052801561146857816020015b611455611c5f565b81526020019060019003908161144d5790505b50905060005b825181101561170d5760008084838151811061148d5761148c61270f565b5b6020026020010151815260200190815260200160002060405180610120016040529081600082015481526020016001820180546114c99061276d565b80601f01602080910402602001604051908101604052809291908181526020018280546114f59061276d565b80156115425780601f1061151757610100808354040283529160200191611542565b820191906000526020600020905b81548152906001019060200180831161152557829003601f168201915b5050505050815260200160028201805461155b9061276d565b80601f01602080910402602001604051908101604052809291908181526020018280546115879061276d565b80156115d45780601f106115a9576101008083540402835291602001916115d4565b820191906000526020600020905b8154815290600101906020018083116115b757829003601f168201915b5050505050815260200160038201548152602001600482015481526020016005820160009054906101000a900460ff16600481111561161657611615611efd565b5b600481111561162857611627611efd565b5b81526020016005820160019054906101000a900473ffffffffffffffffffffffffffffffffffffffff1673ffffffffffffffffffffffffffffffffffffffff1673ffffffffffffffffffffffffffffffffffffffff1681526020016006820160009054906101000a900473ffffffffffffffffffffffffffffffffffffffff1673ffffffffffffffffffffffffffffffffffffffff1673ffffffffffffffffffffffffffffffffffffffff1681526020016007820154815250508282815181106116f5576116f461270f565b5b6020026020010181905250808060010191505061146e565b508092505050919050565b60035481565b8060008082815260200190815260200160002060040154421115611777576040517f08c379a000000000000000000000000000000000000000000000000000000000815260040161176e906125df565b60405180910390fd5b600080600084815260200190815260200160002090503373ffffffffffffffffffffffffffffffffffffffff168160050160019054906101000a900473ffffffffffffffffffffffffffffffffffffffff1673ffffffffffffffffffffffffffffffffffffffff161461181f576040517f08c379a000000000000000000000000000000000000000000000000000000000815260040161181690612d01565b60405180910390fd5b6001600481111561183357611832611efd565b5b8160050160009054906101000a900460ff16600481111561185757611856611efd565b5b14611897576040517f08c379a000000000000000000000000000000000000000000000000000000000815260040161188e90612d6d565b60405180910390fd5b60028160050160006101000a81548160ff021916908360048111156118bf576118be611efd565b5b02179055507fc1fa7142cfb933d0855114a3bffde296944c30b727f297c14d0db4d553d3a5c7836040516118f39190611d79565b60405180910390a16119956040518060400160405280600f81526020017f5461736b20636f6d706c657465643a0000000000000000000000000000000000815250846040518060400160405280600381526020017f42793a00000000000000000000000000000000000000000000000000000000008152508460050160019054906101000a900473ffffffffffffffffffffffffffffffffffffffff1661199a565b505050565b611a36848484846040516024016119b49493929190612d8d565b6040516020818303038152906040527f7c4632a4000000000000000000000000000000000000000000000000000000007bffffffffffffffffffffffffffffffffffffffffffffffffffffffff19166020820180517bffffffffffffffffffffffffffffffffffffffffffffffffffffffff8381831617835250505050611c19565b50505050565b611ad48282604051602401611a52929190612de0565b6040516020818303038152906040527fb60e72cc000000000000000000000000000000000000000000000000000000007bffffffffffffffffffffffffffffffffffffffffffffffffffffffff19166020820180517bffffffffffffffffffffffffffffffffffffffffffffffffffffffff8381831617835250505050611c19565b5050565b611b72838383604051602401611af093929190612e10565b6040516020818303038152906040527fca47c4eb000000000000000000000000000000000000000000000000000000007bffffffffffffffffffffffffffffffffffffffffffffffffffffffff19166020820180517bffffffffffffffffffffffffffffffffffffffffffffffffffffffff8381831617835250505050611c19565b505050565b611c1384848484604051602401611b919493929190612e4e565b6040516020818303038152906040527fc67ea9d1000000000000000000000000000000000000000000000000000000007bffffffffffffffffffffffffffffffffffffffffffffffffffffffff19166020820180517bffffffffffffffffffffffffffffffffffffffffffffffffffffffff8381831617835250505050611c19565b50505050565b611c3081611c28611c33611c54565b63ffffffff16565b50565b60006a636f6e736f6c652e6c6f679050600080835160208501845afa505050565b611ce9819050919050565b604051806101200160405280600081526020016060815260200160608152602001600081526020016000815260200160006004811115611ca257611ca1611efd565b5b8152602001600073ffffffffffffffffffffffffffffffffffffffff168152602001600073ffffffffffffffffffffffffffffffffffffffff168152602001600081525090565b611cf1612ea1565b565b6000604051905090565b600080fd5b600080fd5b6000819050919050565b611d1a81611d07565b8114611d2557600080fd5b50565b600081359050611d3781611d11565b92915050565b600060208284031215611d5357611d52611cfd565b5b6000611d6184828501611d28565b91505092915050565b611d7381611d07565b82525050565b6000602082019050611d8e6000830184611d6a565b92915050565b600073ffffffffffffffffffffffffffffffffffffffff82169050919050565b6000611dbf82611d94565b9050919050565b611dcf81611db4565b8114611dda57600080fd5b50565b600081359050611dec81611dc6565b92915050565b60008060408385031215611e0957611e08611cfd565b5b6000611e1785828601611ddd565b9250506020611e2885828601611d28565b9150509250929050565b600081519050919050565b600082825260208201905092915050565b6000819050602082019050919050565b611e6781611d07565b82525050565b600081519050919050565b600082825260208201905092915050565b60005b83811015611ea7578082015181840152602081019050611e8c565b60008484015250505050565b6000601f19601f8301169050919050565b6000611ecf82611e6d565b611ed98185611e78565b9350611ee9818560208601611e89565b611ef281611eb3565b840191505092915050565b7f4e487b7100000000000000000000000000000000000000000000000000000000600052602160045260246000fd5b60058110611f3d57611f3c611efd565b5b50565b6000819050611f4e82611f2c565b919050565b6000611f5e82611f40565b9050919050565b611f6e81611f53565b82525050565b6000611f7f82611d94565b9050919050565b611f8f81611f74565b82525050565b600061012083016000830151611fae6000860182611e5e565b5060208301518482036020860152611fc68282611ec4565b91505060408301518482036040860152611fe08282611ec4565b9150506060830151611ff56060860182611e5e565b5060808301516120086080860182611e5e565b5060a083015161201b60a0860182611f65565b5060c083015161202e60c0860182611f86565b5060e083015161204160e0860182611f86565b50610100830151612056610100860182611e5e565b508091505092915050565b600061206d8383611f95565b905092915050565b6000602082019050919050565b600061208d82611e32565b6120978185611e3d565b9350836020820285016120a985611e4e565b8060005b858110156120e557848403895281516120c68582612061565b94506120d183612075565b925060208a019950506001810190506120ad565b50829750879550505050505092915050565b600060208201905081810360008301526121118184612082565b905092915050565b600080fd5b600080fd5b7f4e487b7100000000000000000000000000000000000000000000000000000000600052604160045260246000fd5b61215b82611eb3565b810181811067ffffffffffffffff8211171561217a57612179612123565b5b80604052505050565b600061218d611cf3565b90506121998282612152565b919050565b600067ffffffffffffffff8211156121b9576121b8612123565b5b6121c282611eb3565b9050602081019050919050565b82818337600083830152505050565b60006121f16121ec8461219e565b612183565b90508281526020810184848401111561220d5761220c61211e565b5b6122188482856121cf565b509392505050565b600082601f83011261223557612234612119565b5b81356122458482602086016121de565b91505092915050565b60008060006060848603121561226757612266611cfd565b5b600084013567ffffffffffffffff81111561228557612284611d02565b5b61229186828701612220565b935050602084013567ffffffffffffffff8111156122b2576122b1611d02565b5b6122be86828701612220565b92505060406122cf86828701611d28565b9150509250925092565b600082825260208201905092915050565b60006122f582611e6d565b6122ff81856122d9565b935061230f818560208601611e89565b61231881611eb3565b840191505092915050565b61232c81611f53565b82525050565b61233b81611f74565b82525050565b600061012082019050612357600083018c611d6a565b8181036020830152612369818b6122ea565b9050818103604083015261237d818a6122ea565b905061238c6060830189611d6a565b6123996080830188611d6a565b6123a660a0830187612323565b6123b360c0830186612332565b6123c060e0830185612332565b6123ce610100830184611d6a565b9a9950505050505050505050565b6000602082840312156123f2576123f1611cfd565b5b600061240084828501611ddd565b91505092915050565b7f596f7520617265206e6f74207468652063726561746f72000000000000000000600082015250565b600061243f6017836122d9565b915061244a82612409565b602082019050919050565b6000602082019050818103600083015261246e81612432565b9050919050565b7f546865207461736b206973206e6f742070656e64696e6720617070726f76616c600082015250565b60006124ab6020836122d9565b91506124b682612475565b602082019050919050565b600060208201905081810360008301526124da8161249e565b9050919050565b600081905092915050565b50565b60006124fc6000836124e1565b9150612507826124ec565b600082019050919050565b600061251d826124ef565b9150819050919050565b7f526577617264207061796d656e74206661696c65640000000000000000000000600082015250565b600061255d6015836122d9565b915061256882612527565b602082019050919050565b6000602082019050818103600083015261258c81612550565b9050919050565b7f5461736b20657870697265642020000000000000000000000000000000000000600082015250565b60006125c9600e836122d9565b91506125d482612593565b602082019050919050565b600060208201905081810360008301526125f8816125bc565b9050919050565b7f4e6f7420756e616c6c6f63617465640000000000000000000000000000000000600082015250565b6000612635600f836122d9565b9150612640826125ff565b602082019050919050565b6000602082019050818103600083015261266481612628565b9050919050565b7f43726561746f722063616e6e6f742074616b65206f776e207461736b00000000600082015250565b60006126a1601c836122d9565b91506126ac8261266b565b602082019050919050565b600060208201905081810360008301526126d081612694565b9050919050565b6126e081611db4565b82525050565b60006040820190506126fb6000830185611d6a565b61270860208301846126d7565b9392505050565b7f4e487b7100000000000000000000000000000000000000000000000000000000600052603260045260246000fd5b7f4e487b7100000000000000000000000000000000000000000000000000000000600052602260045260246000fd5b6000600282049050600182168061278557607f821691505b6020821081036127985761279761273e565b5b50919050565b7f526577617264206d757374206265203e20300000000000000000000000000000600082015250565b60006127d46012836122d9565b91506127df8261279e565b602082019050919050565b60006020820190508181036000830152612803816127c7565b9050919050565b7f4e487b7100000000000000000000000000000000000000000000000000000000600052601160045260246000fd5b600061284482611d07565b91507fffffffffffffffffffffffffffffffffffffffffffffffffffffffffffffffff82036128765761287561280a565b5b600182019050919050565b60008190508160005260206000209050919050565b60006020601f8301049050919050565b600082821b905092915050565b6000600883026128e37fffffffffffffffffffffffffffffffffffffffffffffffffffffffffffffffff826128a6565b6128ed86836128a6565b95508019841693508086168417925050509392505050565b6000819050919050565b600061292a61292561292084611d07565b612905565b611d07565b9050919050565b6000819050919050565b6129448361290f565b61295861295082612931565b8484546128b3565b825550505050565b600090565b61296d612960565b61297881848461293b565b505050565b5b8181101561299c57612991600082612965565b60018101905061297e565b5050565b601f8211156129e1576129b281612881565b6129bb84612896565b810160208510156129ca578190505b6129de6129d685612896565b83018261297d565b50505b505050565b600082821c905092915050565b6000612a04600019846008026129e6565b1980831691505092915050565b6000612a1d83836129f3565b9150826002028217905092915050565b612a3682611e6d565b67ffffffffffffffff811115612a4f57612a4e612123565b5b612a59825461276d565b612a648282856129a0565b600060209050601f831160018114612a975760008415612a85578287015190505b612a8f8582612a11565b865550612af7565b601f198416612aa586612881565b60005b82811015612acd57848901518255600182019150602085019450602081019050612aa8565b86831015612aea5784890151612ae6601f8916826129f3565b8355505b6001600288020188555050505b505050505050565b6000608082019050612b146000830187611d6a565b8181036020830152612b2681866122ea565b9050612b356040830185611d6a565b612b4260608301846126d7565b95945050505050565b7f4e6f74207461736b2063726561746f7200000000000000000000000000000000600082015250565b6000612b816010836122d9565b9150612b8c82612b4b565b602082019050919050565b60006020820190508181036000830152612bb081612b74565b9050919050565b7f5461736b20616c726561647920616c6c6f636174656400000000000000000000600082015250565b6000612bed6016836122d9565b9150612bf882612bb7565b602082019050919050565b60006020820190508181036000830152612c1c81612be0565b9050919050565b7f526566756e64206661696c656400000000000000000000000000000000000000600082015250565b6000612c59600d836122d9565b9150612c6482612c23565b602082019050919050565b60006020820190508181036000830152612c8881612c4c565b9050919050565b7f596f7520617265206e6f742061737369676e656420746f20746869732074617360008201527f6b00000000000000000000000000000000000000000000000000000000000000602082015250565b6000612ceb6021836122d9565b9150612cf682612c8f565b604082019050919050565b60006020820190508181036000830152612d1a81612cde565b9050919050565b7f5461736b206e6f7420696e2070726f6772657373000000000000000000000000600082015250565b6000612d576014836122d9565b9150612d6282612d21565b602082019050919050565b60006020820190508181036000830152612d8681612d4a565b9050919050565b60006080820190508181036000830152612da781876122ea565b9050612db66020830186611d6a565b8181036040830152612dc881856122ea565b9050612dd760608301846126d7565b95945050505050565b60006040820190508181036000830152612dfa81856122ea565b9050612e096020830184611d6a565b9392505050565b60006060820190508181036000830152612e2a81866122ea565b9050612e396020830185611d6a565b612e466040830184611d6a565b949350505050565b60006080820190508181036000830152612e6881876122ea565b9050612e776020830186611d6a565b8181036040830152612e8981856122ea565b9050612e986060830184611d6a565b95945050505050565b7f4e487b7100000000000000000000000000000000000000000000000000000000600052605160045260246000fdfea2646970667358221220838a59262bc0d316f31ef2a8e7975f33f64bf5bfa817eae4a647805988b8c10264736f6c634300081c0033","opcodes":"PUSH1 0x80 PUSH1 0x40 MSTORE CALLVALUE DUP1 ISZERO PUSH1 0xF JUMPI PUSH1 0x0 DUP1 REVERT JUMPDEST POP PUSH2 0x2F06 DUP1 PUSH2 0x1F PUSH1 0x0 CODECOPY PUSH1 0x0 RETURN INVALID PUSH1 0x80 PUSH1 0x40 MSTORE PUSH1 0x4 CALLDATASIZE LT PUSH2 0x9C JUMPI PUSH1 0x0 CALLDATALOAD PUSH1 0xE0 SHR DUP1 PUSH4 0x7CBC9AE9 GT PUSH2 0x64 JUMPI DUP1 PUSH4 0x7CBC9AE9 EQ PUSH2 0x198 JUMPI DUP1 PUSH4 0x7EEC20A8 EQ PUSH2 0x1B4 JUMPI DUP1 PUSH4 0x8D977672 EQ PUSH2 0x1DD JUMPI DUP1 PUSH4 0x95D57660 EQ PUSH2 0x222 JUMPI DUP1 PUSH4 0xBDA09CD4 EQ PUSH2 0x25F JUMPI DUP1 PUSH4 0xE1E29558 EQ PUSH2 0x28A JUMPI PUSH2 0x9C JUMP JUMPDEST DUP1 PUSH4 0xA07FAE6 EQ PUSH2 0xA1 JUMPI DUP1 PUSH4 0x39118D25 EQ PUSH2 0xCA JUMPI DUP1 PUSH4 0x56DEB110 EQ PUSH2 0x107 JUMPI DUP1 PUSH4 0x66873A55 EQ PUSH2 0x130 JUMPI DUP1 PUSH4 0x779900B4 EQ PUSH2 0x16D JUMPI JUMPDEST PUSH1 0x0 DUP1 REVERT JUMPDEST CALLVALUE DUP1 ISZERO PUSH2 0xAD JUMPI PUSH1 0x0 DUP1 REVERT JUMPDEST POP PUSH2 0xC8 PUSH1 0x4 DUP1 CALLDATASIZE SUB DUP2 ADD SWAP1 PUSH2 0xC3 SWAP2 SWAP1 PUSH2 0x1D3D JUMP JUMPDEST PUSH2 0x2B3 JUMP JUMPDEST STOP JUMPDEST CALLVALUE DUP1 ISZERO PUSH2 0xD6 JUMPI PUSH1 0x0 DUP1 REVERT JUMPDEST POP PUSH2 0xF1 PUSH1 0x4 DUP1 CALLDATASIZE SUB DUP2 ADD SWAP1 PUSH2 0xEC SWAP2 SWAP1 PUSH2 0x1D3D JUMP JUMPDEST PUSH2 0x5ED JUMP JUMPDEST PUSH1 0x40 MLOAD PUSH2 0xFE SWAP2 SWAP1 PUSH2 0x1D79 JUMP JUMPDEST PUSH1 0x40 MLOAD DUP1 SWAP2 SUB SWAP1 RETURN JUMPDEST CALLVALUE DUP1 ISZERO PUSH2 0x113 JUMPI PUSH1 0x0 DUP1 REVERT JUMPDEST POP PUSH2 0x12E PUSH1 0x4 DUP1 CALLDATASIZE SUB DUP2 ADD SWAP1 PUSH2 0x129 SWAP2 SWAP1 PUSH2 0x1D3D JUMP JUMPDEST PUSH2 0x611 JUMP JUMPDEST STOP JUMPDEST CALLVALUE DUP1 ISZERO PUSH2 0x13C JUMPI PUSH1 0x0 DUP1 REVERT JUMPDEST POP PUSH2 0x157 PUSH1 0x4 DUP1 CALLDATASIZE SUB DUP2 ADD SWAP1 PUSH2 0x152 SWAP2 SWAP1 PUSH2 0x1DF2 JUMP JUMPDEST PUSH2 0x8F4 JUMP JUMPDEST PUSH1 0x40 MLOAD PUSH2 0x164 SWAP2 SWAP1 PUSH2 0x1D79 JUMP JUMPDEST PUSH1 0x40 MLOAD DUP1 SWAP2 SUB SWAP1 RETURN JUMPDEST CALLVALUE DUP1 ISZERO PUSH2 0x179 JUMPI PUSH1 0x0 DUP1 REVERT JUMPDEST POP PUSH2 0x182 PUSH2 0x925 JUMP JUMPDEST PUSH1 0x40 MLOAD PUSH2 0x18F SWAP2 SWAP1 PUSH2 0x20F7 JUMP JUMPDEST PUSH1 0x40 MLOAD DUP1 SWAP2 SUB SWAP1 RETURN JUMPDEST PUSH2 0x1B2 PUSH1 0x4 DUP1 CALLDATASIZE SUB DUP2 ADD SWAP1 PUSH2 0x1AD SWAP2 SWAP1 PUSH2 0x224E JUMP JUMPDEST PUSH2 0xC36 JUMP JUMPDEST STOP JUMPDEST CALLVALUE DUP1 ISZERO PUSH2 0x1C0 JUMPI PUSH1 0x0 DUP1 REVERT JUMPDEST POP PUSH2 0x1DB PUSH1 0x4 DUP1 CALLDATASIZE SUB DUP2 ADD SWAP1 PUSH2 0x1D6 SWAP2 SWAP1 PUSH2 0x1D3D JUMP JUMPDEST PUSH2 0xEE9 JUMP JUMPDEST STOP JUMPDEST CALLVALUE DUP1 ISZERO PUSH2 0x1E9 JUMPI PUSH1 0x0 DUP1 REVERT JUMPDEST POP PUSH2 0x204 PUSH1 0x4 DUP1 CALLDATASIZE SUB DUP2 ADD SWAP1 PUSH2 0x1FF SWAP2 SWAP1 PUSH2 0x1D3D JUMP JUMPDEST PUSH2 0x11D3 JUMP JUMPDEST PUSH1 0x40 MLOAD PUSH2 0x219 SWAP10 SWAP9 SWAP8 SWAP7 SWAP6 SWAP5 SWAP4 SWAP3 SWAP2 SWAP1 PUSH2 0x2341 JUMP JUMPDEST PUSH1 0x40 MLOAD DUP1 SWAP2 SUB SWAP1 RETURN JUMPDEST CALLVALUE DUP1 ISZERO PUSH2 0x22E JUMPI PUSH1 0x0 DUP1 REVERT JUMPDEST POP PUSH2 0x249 PUSH1 0x4 DUP1 CALLDATASIZE SUB DUP2 ADD SWAP1 PUSH2 0x244 SWAP2 SWAP1 PUSH2 0x23DC JUMP JUMPDEST PUSH2 0x137E JUMP JUMPDEST PUSH1 0x40 MLOAD PUSH2 0x256 SWAP2 SWAP1 PUSH2 0x20F7 JUMP JUMPDEST PUSH1 0x40 MLOAD DUP1 SWAP2 SUB SWAP1 RETURN JUMPDEST CALLVALUE DUP1 ISZERO PUSH2 0x26B JUMPI PUSH1 0x0 DUP1 REVERT JUMPDEST POP PUSH2 0x274 PUSH2 0x1718 JUMP JUMPDEST PUSH1 0x40 MLOAD PUSH2 0x281 SWAP2 SWAP1 PUSH2 0x1D79 JUMP JUMPDEST PUSH1 0x40 MLOAD DUP1 SWAP2 SUB SWAP1 RETURN JUMPDEST CALLVALUE DUP1 ISZERO PUSH2 0x296 JUMPI PUSH1 0x0 DUP1 REVERT JUMPDEST POP PUSH2 0x2B1 PUSH1 0x4 DUP1 CALLDATASIZE SUB DUP2 ADD SWAP1 PUSH2 0x2AC SWAP2 SWAP1 PUSH2 0x1D3D JUMP JUMPDEST PUSH2 0x171E JUMP JUMPDEST STOP JUMPDEST PUSH1 0x0 DUP1 PUSH1 0x0 DUP4 DUP2 MSTORE PUSH1 0x20 ADD SWAP1 DUP2 MSTORE PUSH1 0x20 ADD PUSH1 0x0 KECCAK256 SWAP1 POP CALLER PUSH20 0xFFFFFFFFFFFFFFFFFFFFFFFFFFFFFFFFFFFFFFFF AND DUP2 PUSH1 0x6 ADD PUSH1 0x0 SWAP1 SLOAD SWAP1 PUSH2 0x100 EXP SWAP1 DIV PUSH20 0xFFFFFFFFFFFFFFFFFFFFFFFFFFFFFFFFFFFFFFFF AND PUSH20 0xFFFFFFFFFFFFFFFFFFFFFFFFFFFFFFFFFFFFFFFF AND EQ PUSH2 0x35B JUMPI PUSH1 0x40 MLOAD PUSH32 0x8C379A000000000000000000000000000000000000000000000000000000000 DUP2 MSTORE PUSH1 0x4 ADD PUSH2 0x352 SWAP1 PUSH2 0x2455 JUMP JUMPDEST PUSH1 0x40 MLOAD DUP1 SWAP2 SUB SWAP1 REVERT JUMPDEST PUSH1 0x2 PUSH1 0x4 DUP2 GT ISZERO PUSH2 0x36F JUMPI PUSH2 0x36E PUSH2 0x1EFD JUMP JUMPDEST JUMPDEST DUP2 PUSH1 0x5 ADD PUSH1 0x0 SWAP1 SLOAD SWAP1 PUSH2 0x100 EXP SWAP1 DIV PUSH1 0xFF AND PUSH1 0x4 DUP2 GT ISZERO PUSH2 0x393 JUMPI PUSH2 0x392 PUSH2 0x1EFD JUMP JUMPDEST JUMPDEST EQ PUSH2 0x3D3 JUMPI PUSH1 0x40 MLOAD PUSH32 0x8C379A000000000000000000000000000000000000000000000000000000000 DUP2 MSTORE PUSH1 0x4 ADD PUSH2 0x3CA SWAP1 PUSH2 0x24C1 JUMP JUMPDEST PUSH1 0x40 MLOAD DUP1 SWAP2 SUB SWAP1 REVERT JUMPDEST PUSH1 0x3 DUP2 PUSH1 0x5 ADD PUSH1 0x0 PUSH2 0x100 EXP DUP2 SLOAD DUP2 PUSH1 0xFF MUL NOT AND SWAP1 DUP4 PUSH1 0x4 DUP2 GT ISZERO PUSH2 0x3FB JUMPI PUSH2 0x3FA PUSH2 0x1EFD JUMP JUMPDEST JUMPDEST MUL OR SWAP1 SSTORE POP PUSH1 0x0 DUP2 PUSH1 0x5 ADD PUSH1 0x1 SWAP1 SLOAD SWAP1 PUSH2 0x100 EXP SWAP1 DIV PUSH20 0xFFFFFFFFFFFFFFFFFFFFFFFFFFFFFFFFFFFFFFFF AND PUSH20 0xFFFFFFFFFFFFFFFFFFFFFFFFFFFFFFFFFFFFFFFF AND DUP3 PUSH1 0x7 ADD SLOAD PUSH1 0x40 MLOAD PUSH2 0x44E SWAP1 PUSH2 0x2512 JUMP JUMPDEST PUSH1 0x0 PUSH1 0x40 MLOAD DUP1 DUP4 SUB DUP2 DUP6 DUP8 GAS CALL SWAP3 POP POP POP RETURNDATASIZE DUP1 PUSH1 0x0 DUP2 EQ PUSH2 0x48B JUMPI PUSH1 0x40 MLOAD SWAP2 POP PUSH1 0x1F NOT PUSH1 0x3F RETURNDATASIZE ADD AND DUP3 ADD PUSH1 0x40 MSTORE RETURNDATASIZE DUP3 MSTORE RETURNDATASIZE PUSH1 0x0 PUSH1 0x20 DUP5 ADD RETURNDATACOPY PUSH2 0x490 JUMP JUMPDEST PUSH1 0x60 SWAP2 POP JUMPDEST POP POP SWAP1 POP DUP1 PUSH2 0x4D4 JUMPI PUSH1 0x40 MLOAD PUSH32 0x8C379A000000000000000000000000000000000000000000000000000000000 DUP2 MSTORE PUSH1 0x4 ADD PUSH2 0x4CB SWAP1 PUSH2 0x2573 JUMP JUMPDEST PUSH1 0x40 MLOAD DUP1 SWAP2 SUB SWAP1 REVERT JUMPDEST PUSH32 0x3E9D27A1C2A828DB29E4B2A17FBD1BC70201EF21AEC4F74B9FA051B02E38E3F0 DUP4 PUSH1 0x40 MLOAD PUSH2 0x503 SWAP2 SWAP1 PUSH2 0x1D79 JUMP JUMPDEST PUSH1 0x40 MLOAD DUP1 SWAP2 SUB SWAP1 LOG1 PUSH2 0x5A5 PUSH1 0x40 MLOAD DUP1 PUSH1 0x40 ADD PUSH1 0x40 MSTORE DUP1 PUSH1 0xE DUP2 MSTORE PUSH1 0x20 ADD PUSH32 0x5461736B20617070726F7665643A000000000000000000000000000000000000 DUP2 MSTORE POP DUP5 PUSH1 0x40 MLOAD DUP1 PUSH1 0x40 ADD PUSH1 0x40 MSTORE DUP1 PUSH1 0x3 DUP2 MSTORE PUSH1 0x20 ADD PUSH32 0x546F3A0000000000000000000000000000000000000000000000000000000000 DUP2 MSTORE POP DUP6 PUSH1 0x5 ADD PUSH1 0x1 SWAP1 SLOAD SWAP1 PUSH2 0x100 EXP SWAP1 DIV PUSH20 0xFFFFFFFFFFFFFFFFFFFFFFFFFFFFFFFFFFFFFFFF AND PUSH2 0x199A JUMP JUMPDEST PUSH2 0x5E8 PUSH1 0x40 MLOAD DUP1 PUSH1 0x40 ADD PUSH1 0x40 MSTORE DUP1 PUSH1 0x7 DUP2 MSTORE PUSH1 0x20 ADD PUSH32 0x5265776172643A00000000000000000000000000000000000000000000000000 DUP2 MSTORE POP DUP4 PUSH1 0x7 ADD SLOAD PUSH2 0x1A3C JUMP JUMPDEST POP POP POP JUMP JUMPDEST PUSH1 0x2 DUP2 DUP2 SLOAD DUP2 LT PUSH2 0x5FD JUMPI PUSH1 0x0 DUP1 REVERT JUMPDEST SWAP1 PUSH1 0x0 MSTORE PUSH1 0x20 PUSH1 0x0 KECCAK256 ADD PUSH1 0x0 SWAP2 POP SWAP1 POP SLOAD DUP2 JUMP JUMPDEST DUP1 PUSH1 0x0 DUP1 DUP3 DUP2 MSTORE PUSH1 0x20 ADD SWAP1 DUP2 MSTORE PUSH1 0x20 ADD PUSH1 0x0 KECCAK256 PUSH1 0x4 ADD SLOAD TIMESTAMP GT ISZERO PUSH2 0x66A JUMPI PUSH1 0x40 MLOAD PUSH32 0x8C379A000000000000000000000000000000000000000000000000000000000 DUP2 MSTORE PUSH1 0x4 ADD PUSH2 0x661 SWAP1 PUSH2 0x25DF JUMP JUMPDEST PUSH1 0x40 MLOAD DUP1 SWAP2 SUB SWAP1 REVERT JUMPDEST PUSH1 0x0 DUP1 PUSH1 0x0 DUP5 DUP2 MSTORE PUSH1 0x20 ADD SWAP1 DUP2 MSTORE PUSH1 0x20 ADD PUSH1 0x0 KECCAK256 SWAP1 POP PUSH1 0x0 PUSH1 0x4 DUP2 GT ISZERO PUSH2 0x694 JUMPI PUSH2 0x693 PUSH2 0x1EFD JUMP JUMPDEST JUMPDEST DUP2 PUSH1 0x5 ADD PUSH1 0x0 SWAP1 SLOAD SWAP1 PUSH2 0x100 EXP SWAP1 DIV PUSH1 0xFF AND PUSH1 0x4 DUP2 GT ISZERO PUSH2 0x6B8 JUMPI PUSH2 0x6B7 PUSH2 0x1EFD JUMP JUMPDEST JUMPDEST EQ PUSH2 0x6F8 JUMPI PUSH1 0x40 MLOAD PUSH32 0x8C379A000000000000000000000000000000000000000000000000000000000 DUP2 MSTORE PUSH1 0x4 ADD PUSH2 0x6EF SWAP1 PUSH2 0x264B JUMP JUMPDEST PUSH1 0x40 MLOAD DUP1 SWAP2 SUB SWAP1 REVERT JUMPDEST CALLER PUSH20 0xFFFFFFFFFFFFFFFFFFFFFFFFFFFFFFFFFFFFFFFF AND DUP2 PUSH1 0x6 ADD PUSH1 0x0 SWAP1 SLOAD SWAP1 PUSH2 0x100 EXP SWAP1 DIV PUSH20 0xFFFFFFFFFFFFFFFFFFFFFFFFFFFFFFFFFFFFFFFF AND PUSH20 0xFFFFFFFFFFFFFFFFFFFFFFFFFFFFFFFFFFFFFFFF AND SUB PUSH2 0x78A JUMPI PUSH1 0x40 MLOAD PUSH32 0x8C379A000000000000000000000000000000000000000000000000000000000 DUP2 MSTORE PUSH1 0x4 ADD PUSH2 0x781 SWAP1 PUSH2 0x26B7 JUMP JUMPDEST PUSH1 0x40 MLOAD DUP1 SWAP2 SUB SWAP1 REVERT JUMPDEST CALLER DUP2 PUSH1 0x5 ADD PUSH1 0x1 PUSH2 0x100 EXP DUP2 SLOAD DUP2 PUSH20 0xFFFFFFFFFFFFFFFFFFFFFFFFFFFFFFFFFFFFFFFF MUL NOT AND SWAP1 DUP4 PUSH20 0xFFFFFFFFFFFFFFFFFFFFFFFFFFFFFFFFFFFFFFFF AND MUL OR SWAP1 SSTORE POP PUSH1 0x1 DUP2 PUSH1 0x5 ADD PUSH1 0x0 PUSH2 0x100 EXP DUP2 SLOAD DUP2 PUSH1 0xFF MUL NOT AND SWAP1 DUP4 PUSH1 0x4 DUP2 GT ISZERO PUSH2 0x7F5 JUMPI PUSH2 0x7F4 PUSH2 0x1EFD JUMP JUMPDEST JUMPDEST MUL OR SWAP1 SSTORE POP PUSH1 0x1 PUSH1 0x0 CALLER PUSH20 0xFFFFFFFFFFFFFFFFFFFFFFFFFFFFFFFFFFFFFFFF AND PUSH20 0xFFFFFFFFFFFFFFFFFFFFFFFFFFFFFFFFFFFFFFFF AND DUP2 MSTORE PUSH1 0x20 ADD SWAP1 DUP2 MSTORE PUSH1 0x20 ADD PUSH1 0x0 KECCAK256 DUP4 SWAP1 DUP1 PUSH1 0x1 DUP2 SLOAD ADD DUP1 DUP3 SSTORE DUP1 SWAP2 POP POP PUSH1 0x1 SWAP1 SUB SWAP1 PUSH1 0x0 MSTORE PUSH1 0x20 PUSH1 0x0 KECCAK256 ADD PUSH1 0x0 SWAP1 SWAP2 SWAP1 SWAP2 SWAP1 SWAP2 POP SSTORE PUSH32 0x52476D55ECEF5CF13CAA64038F297FE6BBF865D9584A98B8722A15A6D5DB128F DUP4 CALLER PUSH1 0x40 MLOAD PUSH2 0x891 SWAP3 SWAP2 SWAP1 PUSH2 0x26E6 JUMP JUMPDEST PUSH1 0x40 MLOAD DUP1 SWAP2 SUB SWAP1 LOG1 PUSH2 0x8EF PUSH1 0x40 MLOAD DUP1 PUSH1 0x40 ADD PUSH1 0x40 MSTORE DUP1 PUSH1 0xE DUP2 MSTORE PUSH1 0x20 ADD PUSH32 0x5461736B2061737369676E65643A000000000000000000000000000000000000 DUP2 MSTORE POP DUP5 CALLER PUSH20 0xFFFFFFFFFFFFFFFFFFFFFFFFFFFFFFFFFFFFFFFF AND PUSH2 0x1AD8 JUMP JUMPDEST POP POP POP JUMP JUMPDEST PUSH1 0x1 PUSH1 0x20 MSTORE DUP2 PUSH1 0x0 MSTORE PUSH1 0x40 PUSH1 0x0 KECCAK256 DUP2 DUP2 SLOAD DUP2 LT PUSH2 0x910 JUMPI PUSH1 0x0 DUP1 REVERT JUMPDEST SWAP1 PUSH1 0x0 MSTORE PUSH1 0x20 PUSH1 0x0 KECCAK256 ADD PUSH1 0x0 SWAP2 POP SWAP2 POP POP SLOAD DUP2 JUMP JUMPDEST PUSH1 0x60 PUSH1 0x0 PUSH1 0x2 DUP1 SLOAD SWAP1 POP PUSH8 0xFFFFFFFFFFFFFFFF DUP2 GT ISZERO PUSH2 0x948 JUMPI PUSH2 0x947 PUSH2 0x2123 JUMP JUMPDEST JUMPDEST PUSH1 0x40 MLOAD SWAP1 DUP1 DUP3 MSTORE DUP1 PUSH1 0x20 MUL PUSH1 0x20 ADD DUP3 ADD PUSH1 0x40 MSTORE DUP1 ISZERO PUSH2 0x981 JUMPI DUP2 PUSH1 0x20 ADD JUMPDEST PUSH2 0x96E PUSH2 0x1C5F JUMP JUMPDEST DUP2 MSTORE PUSH1 0x20 ADD SWAP1 PUSH1 0x1 SWAP1 SUB SWAP1 DUP2 PUSH2 0x966 JUMPI SWAP1 POP JUMPDEST POP SWAP1 POP PUSH1 0x0 JUMPDEST PUSH1 0x2 DUP1 SLOAD SWAP1 POP DUP2 LT ISZERO PUSH2 0xC2E JUMPI PUSH1 0x0 DUP1 PUSH1 0x2 DUP4 DUP2 SLOAD DUP2 LT PUSH2 0x9AB JUMPI PUSH2 0x9AA PUSH2 0x270F JUMP JUMPDEST JUMPDEST SWAP1 PUSH1 0x0 MSTORE PUSH1 0x20 PUSH1 0x0 KECCAK256 ADD SLOAD DUP2 MSTORE PUSH1 0x20 ADD SWAP1 DUP2 MSTORE PUSH1 0x20 ADD PUSH1 0x0 KECCAK256 PUSH1 0x40 MLOAD DUP1 PUSH2 0x120 ADD PUSH1 0x40 MSTORE SWAP1 DUP2 PUSH1 0x0 DUP3 ADD SLOAD DUP2 MSTORE PUSH1 0x20 ADD PUSH1 0x1 DUP3 ADD DUP1 SLOAD PUSH2 0x9EA SWAP1 PUSH2 0x276D JUMP JUMPDEST DUP1 PUSH1 0x1F ADD PUSH1 0x20 DUP1 SWAP2 DIV MUL PUSH1 0x20 ADD PUSH1 0x40 MLOAD SWAP1 DUP2 ADD PUSH1 0x40 MSTORE DUP1 SWAP3 SWAP2 SWAP1 DUP2 DUP2 MSTORE PUSH1 0x20 ADD DUP3 DUP1 SLOAD PUSH2 0xA16 SWAP1 PUSH2 0x276D JUMP JUMPDEST DUP1 ISZERO PUSH2 0xA63 JUMPI DUP1 PUSH1 0x1F LT PUSH2 0xA38 JUMPI PUSH2 0x100 DUP1 DUP4 SLOAD DIV MUL DUP4 MSTORE SWAP2 PUSH1 0x20 ADD SWAP2 PUSH2 0xA63 JUMP JUMPDEST DUP3 ADD SWAP2 SWAP1 PUSH1 0x0 MSTORE PUSH1 0x20 PUSH1 0x0 KECCAK256 SWAP1 JUMPDEST DUP2 SLOAD DUP2 MSTORE SWAP1 PUSH1 0x1 ADD SWAP1 PUSH1 0x20 ADD DUP1 DUP4 GT PUSH2 0xA46 JUMPI DUP3 SWAP1 SUB PUSH1 0x1F AND DUP3 ADD SWAP2 JUMPDEST POP POP POP POP POP DUP2 MSTORE PUSH1 0x20 ADD PUSH1 0x2 DUP3 ADD DUP1 SLOAD PUSH2 0xA7C SWAP1 PUSH2 0x276D JUMP JUMPDEST DUP1 PUSH1 0x1F ADD PUSH1 0x20 DUP1 SWAP2 DIV MUL PUSH1 0x20 ADD PUSH1 0x40 MLOAD SWAP1 DUP2 ADD PUSH1 0x40 MSTORE DUP1 SWAP3 SWAP2 SWAP1 DUP2 DUP2 MSTORE PUSH1 0x20 ADD DUP3 DUP1 SLOAD PUSH2 0xAA8 SWAP1 PUSH2 0x276D JUMP JUMPDEST DUP1 ISZERO PUSH2 0xAF5 JUMPI DUP1 PUSH1 0x1F LT PUSH2 0xACA JUMPI PUSH2 0x100 DUP1 DUP4 SLOAD DIV MUL DUP4 MSTORE SWAP2 PUSH1 0x20 ADD SWAP2 PUSH2 0xAF5 JUMP JUMPDEST DUP3 ADD SWAP2 SWAP1 PUSH1 0x0 MSTORE PUSH1 0x20 PUSH1 0x0 KECCAK256 SWAP1 JUMPDEST DUP2 SLOAD DUP2 MSTORE SWAP1 PUSH1 0x1 ADD SWAP1 PUSH1 0x20 ADD DUP1 DUP4 GT PUSH2 0xAD8 JUMPI DUP3 SWAP1 SUB PUSH1 0x1F AND DUP3 ADD SWAP2 JUMPDEST POP POP POP POP POP DUP2 MSTORE PUSH1 0x20 ADD PUSH1 0x3 DUP3 ADD SLOAD DUP2 MSTORE PUSH1 0x20 ADD PUSH1 0x4 DUP3 ADD SLOAD DUP2 MSTORE PUSH1 0x20 ADD PUSH1 0x5 DUP3 ADD PUSH1 0x0 SWAP1 SLOAD SWAP1 PUSH2 0x100 EXP SWAP1 DIV PUSH1 0xFF AND PUSH1 0x4 DUP2 GT ISZERO PUSH2 0xB37 JUMPI PUSH2 0xB36 PUSH2 0x1EFD JUMP JUMPDEST JUMPDEST PUSH1 0x4 DUP2 GT ISZERO PUSH2 0xB49 JUMPI PUSH2 0xB48 PUSH2 0x1EFD JUMP JUMPDEST JUMPDEST DUP2 MSTORE PUSH1 0x20 ADD PUSH1 0x5 DUP3 ADD PUSH1 0x1 SWAP1 SLOAD SWAP1 PUSH2 0x100 EXP SWAP1 DIV PUSH20 0xFFFFFFFFFFFFFFFFFFFFFFFFFFFFFFFFFFFFFFFF AND PUSH20 0xFFFFFFFFFFFFFFFFFFFFFFFFFFFFFFFFFFFFFFFF AND PUSH20 0xFFFFFFFFFFFFFFFFFFFFFFFFFFFFFFFFFFFFFFFF AND DUP2 MSTORE PUSH1 0x20 ADD PUSH1 0x6 DUP3 ADD PUSH1 0x0 SWAP1 SLOAD SWAP1 PUSH2 0x100 EXP SWAP1 DIV PUSH20 0xFFFFFFFFFFFFFFFFFFFFFFFFFFFFFFFFFFFFFFFF AND PUSH20 0xFFFFFFFFFFFFFFFFFFFFFFFFFFFFFFFFFFFFFFFF AND PUSH20 0xFFFFFFFFFFFFFFFFFFFFFFFFFFFFFFFFFFFFFFFF AND DUP2 MSTORE PUSH1 0x20 ADD PUSH1 0x7 DUP3 ADD SLOAD DUP2 MSTORE POP POP DUP3 DUP3 DUP2 MLOAD DUP2 LT PUSH2 0xC16 JUMPI PUSH2 0xC15 PUSH2 0x270F JUMP JUMPDEST JUMPDEST PUSH1 0x20 MUL PUSH1 0x20 ADD ADD DUP2 SWAP1 MSTORE POP DUP1 DUP1 PUSH1 0x1 ADD SWAP2 POP POP PUSH2 0x987 JUMP JUMPDEST POP DUP1 SWAP2 POP POP SWAP1 JUMP JUMPDEST PUSH1 0x0 CALLVALUE GT PUSH2 0xC79 JUMPI PUSH1 0x40 MLOAD PUSH32 0x8C379A000000000000000000000000000000000000000000000000000000000 DUP2 MSTORE PUSH1 0x4 ADD PUSH2 0xC70 SWAP1 PUSH2 0x27EA JUMP JUMPDEST PUSH1 0x40 MLOAD DUP1 SWAP2 SUB SWAP1 REVERT JUMPDEST PUSH1 0x0 PUSH1 0x3 PUSH1 0x0 DUP2 SLOAD DUP1 SWAP3 SWAP2 SWAP1 PUSH2 0xC8E SWAP1 PUSH2 0x2839 JUMP JUMPDEST SWAP2 SWAP1 POP SSTORE SWAP1 POP PUSH1 0x40 MLOAD DUP1 PUSH2 0x120 ADD PUSH1 0x40 MSTORE DUP1 DUP3 DUP2 MSTORE PUSH1 0x20 ADD DUP6 DUP2 MSTORE PUSH1 0x20 ADD DUP5 DUP2 MSTORE PUSH1 0x20 ADD TIMESTAMP DUP2 MSTORE PUSH1 0x20 ADD DUP4 DUP2 MSTORE PUSH1 0x20 ADD PUSH1 0x0 PUSH1 0x4 DUP2 GT ISZERO PUSH2 0xCD2 JUMPI PUSH2 0xCD1 PUSH2 0x1EFD JUMP JUMPDEST JUMPDEST DUP2 MSTORE PUSH1 0x20 ADD PUSH1 0x0 PUSH20 0xFFFFFFFFFFFFFFFFFFFFFFFFFFFFFFFFFFFFFFFF AND DUP2 MSTORE PUSH1 0x20 ADD CALLER PUSH20 0xFFFFFFFFFFFFFFFFFFFFFFFFFFFFFFFFFFFFFFFF AND DUP2 MSTORE PUSH1 0x20 ADD CALLVALUE DUP2 MSTORE POP PUSH1 0x0 DUP1 DUP4 DUP2 MSTORE PUSH1 0x20 ADD SWAP1 DUP2 MSTORE PUSH1 0x20 ADD PUSH1 0x0 KECCAK256 PUSH1 0x0 DUP3 ADD MLOAD DUP2 PUSH1 0x0 ADD SSTORE PUSH1 0x20 DUP3 ADD MLOAD DUP2 PUSH1 0x1 ADD SWAP1 DUP2 PUSH2 0xD45 SWAP2 SWAP1 PUSH2 0x2A2D JUMP JUMPDEST POP PUSH1 0x40 DUP3 ADD MLOAD DUP2 PUSH1 0x2 ADD SWAP1 DUP2 PUSH2 0xD5B SWAP2 SWAP1 PUSH2 0x2A2D JUMP JUMPDEST POP PUSH1 0x60 DUP3 ADD MLOAD DUP2 PUSH1 0x3 ADD SSTORE PUSH1 0x80 DUP3 ADD MLOAD DUP2 PUSH1 0x4 ADD SSTORE PUSH1 0xA0 DUP3 ADD MLOAD DUP2 PUSH1 0x5 ADD PUSH1 0x0 PUSH2 0x100 EXP DUP2 SLOAD DUP2 PUSH1 0xFF MUL NOT AND SWAP1 DUP4 PUSH1 0x4 DUP2 GT ISZERO PUSH2 0xD9B JUMPI PUSH2 0xD9A PUSH2 0x1EFD JUMP JUMPDEST JUMPDEST MUL OR SWAP1 SSTORE POP PUSH1 0xC0 DUP3 ADD MLOAD DUP2 PUSH1 0x5 ADD PUSH1 0x1 PUSH2 0x100 EXP DUP2 SLOAD DUP2 PUSH20 0xFFFFFFFFFFFFFFFFFFFFFFFFFFFFFFFFFFFFFFFF MUL NOT AND SWAP1 DUP4 PUSH20 0xFFFFFFFFFFFFFFFFFFFFFFFFFFFFFFFFFFFFFFFF AND MUL OR SWAP1 SSTORE POP PUSH1 0xE0 DUP3 ADD MLOAD DUP2 PUSH1 0x6 ADD PUSH1 0x0 PUSH2 0x100 EXP DUP2 SLOAD DUP2 PUSH20 0xFFFFFFFFFFFFFFFFFFFFFFFFFFFFFFFFFFFFFFFF MUL NOT AND SWAP1 DUP4 PUSH20 0xFFFFFFFFFFFFFFFFFFFFFFFFFFFFFFFFFFFFFFFF AND MUL OR SWAP1 SSTORE POP PUSH2 0x100 DUP3 ADD MLOAD DUP2 PUSH1 0x7 ADD SSTORE SWAP1 POP POP PUSH1 0x2 DUP2 SWAP1 DUP1 PUSH1 0x1 DUP2 SLOAD ADD DUP1 DUP3 SSTORE DUP1 SWAP2 POP POP PUSH1 0x1 SWAP1 SUB SWAP1 PUSH1 0x0 MSTORE PUSH1 0x20 PUSH1 0x0 KECCAK256 ADD PUSH1 0x0 SWAP1 SWAP2 SWAP1 SWAP2 SWAP1 SWAP2 POP SSTORE PUSH32 0x29C8F9924C46286774869AC7896E10BCAED1AAEDFEEA403B45BDF64CDD3F45BA DUP2 DUP6 DUP5 CALLER PUSH1 0x40 MLOAD PUSH2 0xE9A SWAP5 SWAP4 SWAP3 SWAP2 SWAP1 PUSH2 0x2AFF JUMP JUMPDEST PUSH1 0x40 MLOAD DUP1 SWAP2 SUB SWAP1 LOG1 PUSH2 0xEE3 PUSH1 0x40 MLOAD DUP1 PUSH1 0x40 ADD PUSH1 0x40 MSTORE DUP1 PUSH1 0xF DUP2 MSTORE PUSH1 0x20 ADD PUSH32 0x4E6577205461736B2041646465643A0000000000000000000000000000000000 DUP2 MSTORE POP DUP3 DUP7 CALLER PUSH2 0x199A JUMP JUMPDEST POP POP POP POP JUMP JUMPDEST DUP1 PUSH1 0x0 DUP1 DUP3 DUP2 MSTORE PUSH1 0x20 ADD SWAP1 DUP2 MSTORE PUSH1 0x20 ADD PUSH1 0x0 KECCAK256 PUSH1 0x6 ADD PUSH1 0x0 SWAP1 SLOAD SWAP1 PUSH2 0x100 EXP SWAP1 DIV PUSH20 0xFFFFFFFFFFFFFFFFFFFFFFFFFFFFFFFFFFFFFFFF AND PUSH20 0xFFFFFFFFFFFFFFFFFFFFFFFFFFFFFFFFFFFFFFFF AND CALLER PUSH20 0xFFFFFFFFFFFFFFFFFFFFFFFFFFFFFFFFFFFFFFFF AND EQ PUSH2 0xF8D JUMPI PUSH1 0x40 MLOAD PUSH32 0x8C379A000000000000000000000000000000000000000000000000000000000 DUP2 MSTORE PUSH1 0x4 ADD PUSH2 0xF84 SWAP1 PUSH2 0x2B97 JUMP JUMPDEST PUSH1 0x40 MLOAD DUP1 SWAP2 SUB SWAP1 REVERT JUMPDEST PUSH1 0x0 DUP1 PUSH1 0x0 DUP5 DUP2 MSTORE PUSH1 0x20 ADD SWAP1 DUP2 MSTORE PUSH1 0x20 ADD PUSH1 0x0 KECCAK256 SWAP1 POP PUSH1 0x0 PUSH1 0x4 DUP2 GT ISZERO PUSH2 0xFB7 JUMPI PUSH2 0xFB6 PUSH2 0x1EFD JUMP JUMPDEST JUMPDEST DUP2 PUSH1 0x5 ADD PUSH1 0x0 SWAP1 SLOAD SWAP1 PUSH2 0x100 EXP SWAP1 DIV PUSH1 0xFF AND PUSH1 0x4 DUP2 GT ISZERO PUSH2 0xFDB JUMPI PUSH2 0xFDA PUSH2 0x1EFD JUMP JUMPDEST JUMPDEST EQ PUSH2 0x101B JUMPI PUSH1 0x40 MLOAD PUSH32 0x8C379A000000000000000000000000000000000000000000000000000000000 DUP2 MSTORE PUSH1 0x4 ADD PUSH2 0x1012 SWAP1 PUSH2 0x2C03 JUMP JUMPDEST PUSH1 0x40 MLOAD DUP1 SWAP2 SUB SWAP1 REVERT JUMPDEST PUSH1 0x4 DUP2 PUSH1 0x5 ADD PUSH1 0x0 PUSH2 0x100 EXP DUP2 SLOAD DUP2 PUSH1 0xFF MUL NOT AND SWAP1 DUP4 PUSH1 0x4 DUP2 GT ISZERO PUSH2 0x1043 JUMPI PUSH2 0x1042 PUSH2 0x1EFD JUMP JUMPDEST JUMPDEST MUL OR SWAP1 SSTORE POP PUSH1 0x0 DUP2 PUSH1 0x6 ADD PUSH1 0x0 SWAP1 SLOAD SWAP1 PUSH2 0x100 EXP SWAP1 DIV PUSH20 0xFFFFFFFFFFFFFFFFFFFFFFFFFFFFFFFFFFFFFFFF AND PUSH20 0xFFFFFFFFFFFFFFFFFFFFFFFFFFFFFFFFFFFFFFFF AND DUP3 PUSH1 0x7 ADD SLOAD PUSH1 0x40 MLOAD PUSH2 0x1096 SWAP1 PUSH2 0x2512 JUMP JUMPDEST PUSH1 0x0 PUSH1 0x40 MLOAD DUP1 DUP4 SUB DUP2 DUP6 DUP8 GAS CALL SWAP3 POP POP POP RETURNDATASIZE DUP1 PUSH1 0x0 DUP2 EQ PUSH2 0x10D3 JUMPI PUSH1 0x40 MLOAD SWAP2 POP PUSH1 0x1F NOT PUSH1 0x3F RETURNDATASIZE ADD AND DUP3 ADD PUSH1 0x40 MSTORE RETURNDATASIZE DUP3 MSTORE RETURNDATASIZE PUSH1 0x0 PUSH1 0x20 DUP5 ADD RETURNDATACOPY PUSH2 0x10D8 JUMP JUMPDEST PUSH1 0x60 SWAP2 POP JUMPDEST POP POP SWAP1 POP DUP1 PUSH2 0x111C JUMPI PUSH1 0x40 MLOAD PUSH32 0x8C379A000000000000000000000000000000000000000000000000000000000 DUP2 MSTORE PUSH1 0x4 ADD PUSH2 0x1113 SWAP1 PUSH2 0x2C6F JUMP JUMPDEST PUSH1 0x40 MLOAD DUP1 SWAP2 SUB SWAP1 REVERT JUMPDEST PUSH32 0xC6EACC3AA5B2AA77B5A826B832A804CA0B71830EC74F9AA57A15EDD978C31ED6 DUP5 PUSH1 0x40 MLOAD PUSH2 0x114B SWAP2 SWAP1 PUSH2 0x1D79 JUMP JUMPDEST PUSH1 0x40 MLOAD DUP1 SWAP2 SUB SWAP1 LOG1 PUSH2 0x11CD PUSH1 0x40 MLOAD DUP1 PUSH1 0x40 ADD PUSH1 0x40 MSTORE DUP1 PUSH1 0xF DUP2 MSTORE PUSH1 0x20 ADD PUSH32 0x5461736B2063616E63656C6C65643A0000000000000000000000000000000000 DUP2 MSTORE POP DUP6 PUSH1 0x40 MLOAD DUP1 PUSH1 0x40 ADD PUSH1 0x40 MSTORE DUP1 PUSH1 0x10 DUP2 MSTORE PUSH1 0x20 ADD PUSH32 0x52657761726420726566756E6465643A00000000000000000000000000000000 DUP2 MSTORE POP DUP6 PUSH1 0x7 ADD SLOAD PUSH2 0x1B77 JUMP JUMPDEST POP POP POP POP JUMP JUMPDEST PUSH1 0x0 PUSH1 0x20 MSTORE DUP1 PUSH1 0x0 MSTORE PUSH1 0x40 PUSH1 0x0 KECCAK256 PUSH1 0x0 SWAP2 POP SWAP1 POP DUP1 PUSH1 0x0 ADD SLOAD SWAP1 DUP1 PUSH1 0x1 ADD DUP1 SLOAD PUSH2 0x11FC SWAP1 PUSH2 0x276D JUMP JUMPDEST DUP1 PUSH1 0x1F ADD PUSH1 0x20 DUP1 SWAP2 DIV MUL PUSH1 0x20 ADD PUSH1 0x40 MLOAD SWAP1 DUP2 ADD PUSH1 0x40 MSTORE DUP1 SWAP3 SWAP2 SWAP1 DUP2 DUP2 MSTORE PUSH1 0x20 ADD DUP3 DUP1 SLOAD PUSH2 0x1228 SWAP1 PUSH2 0x276D JUMP JUMPDEST DUP1 ISZERO PUSH2 0x1275 JUMPI DUP1 PUSH1 0x1F LT PUSH2 0x124A JUMPI PUSH2 0x100 DUP1 DUP4 SLOAD DIV MUL DUP4 MSTORE SWAP2 PUSH1 0x20 ADD SWAP2 PUSH2 0x1275 JUMP JUMPDEST DUP3 ADD SWAP2 SWAP1 PUSH1 0x0 MSTORE PUSH1 0x20 PUSH1 0x0 KECCAK256 SWAP1 JUMPDEST DUP2 SLOAD DUP2 MSTORE SWAP1 PUSH1 0x1 ADD SWAP1 PUSH1 0x20 ADD DUP1 DUP4 GT PUSH2 0x1258 JUMPI DUP3 SWAP1 SUB PUSH1 0x1F AND DUP3 ADD SWAP2 JUMPDEST POP POP POP POP POP SWAP1 DUP1 PUSH1 0x2 ADD DUP1 SLOAD PUSH2 0x128A SWAP1 PUSH2 0x276D JUMP JUMPDEST DUP1 PUSH1 0x1F ADD PUSH1 0x20 DUP1 SWAP2 DIV MUL PUSH1 0x20 ADD PUSH1 0x40 MLOAD SWAP1 DUP2 ADD PUSH1 0x40 MSTORE DUP1 SWAP3 SWAP2 SWAP1 DUP2 DUP2 MSTORE PUSH1 0x20 ADD DUP3 DUP1 SLOAD PUSH2 0x12B6 SWAP1 PUSH2 0x276D JUMP JUMPDEST DUP1 ISZERO PUSH2 0x1303 JUMPI DUP1 PUSH1 0x1F LT PUSH2 0x12D8 JUMPI PUSH2 0x100 DUP1 DUP4 SLOAD DIV MUL DUP4 MSTORE SWAP2 PUSH1 0x20 ADD SWAP2 PUSH2 0x1303 JUMP JUMPDEST DUP3 ADD SWAP2 SWAP1 PUSH1 0x0 MSTORE PUSH1 0x20 PUSH1 0x0 KECCAK256 SWAP1 JUMPDEST DUP2 SLOAD DUP2 MSTORE SWAP1 PUSH1 0x1 ADD SWAP1 PUSH1 0x20 ADD DUP1 DUP4 GT PUSH2 0x12E6 JUMPI DUP3 SWAP1 SUB PUSH1 0x1F AND DUP3 ADD SWAP2 JUMPDEST POP POP POP POP POP SWAP1 DUP1 PUSH1 0x3 ADD SLOAD SWAP1 DUP1 PUSH1 0x4 ADD SLOAD SWAP1 DUP1 PUSH1 0x5 ADD PUSH1 0x0 SWAP1 SLOAD SWAP1 PUSH2 0x100 EXP SWAP1 DIV PUSH1 0xFF AND SWAP1 DUP1 PUSH1 0x5 ADD PUSH1 0x1 SWAP1 SLOAD SWAP1 PUSH2 0x100 EXP SWAP1 DIV PUSH20 0xFFFFFFFFFFFFFFFFFFFFFFFFFFFFFFFFFFFFFFFF AND SWAP1 DUP1 PUSH1 0x6 ADD PUSH1 0x0 SWAP1 SLOAD SWAP1 PUSH2 0x100 EXP SWAP1 DIV PUSH20 0xFFFFFFFFFFFFFFFFFFFFFFFFFFFFFFFFFFFFFFFF AND SWAP1 DUP1 PUSH1 0x7 ADD SLOAD SWAP1 POP DUP10 JUMP JUMPDEST PUSH1 0x60 PUSH1 0x0 PUSH1 0x1 PUSH1 0x0 DUP5 PUSH20 0xFFFFFFFFFFFFFFFFFFFFFFFFFFFFFFFFFFFFFFFF AND PUSH20 0xFFFFFFFFFFFFFFFFFFFFFFFFFFFFFFFFFFFFFFFF AND DUP2 MSTORE PUSH1 0x20 ADD SWAP1 DUP2 MSTORE PUSH1 0x20 ADD PUSH1 0x0 KECCAK256 DUP1 SLOAD DUP1 PUSH1 0x20 MUL PUSH1 0x20 ADD PUSH1 0x40 MLOAD SWAP1 DUP2 ADD PUSH1 0x40 MSTORE DUP1 SWAP3 SWAP2 SWAP1 DUP2 DUP2 MSTORE PUSH1 0x20 ADD DUP3 DUP1 SLOAD DUP1 ISZERO PUSH2 0x140B JUMPI PUSH1 0x20 MUL DUP3 ADD SWAP2 SWAP1 PUSH1 0x0 MSTORE PUSH1 0x20 PUSH1 0x0 KECCAK256 SWAP1 JUMPDEST DUP2 SLOAD DUP2 MSTORE PUSH1 0x20 ADD SWAP1 PUSH1 0x1 ADD SWAP1 DUP1 DUP4 GT PUSH2 0x13F7 JUMPI JUMPDEST POP POP POP POP POP SWAP1 POP PUSH1 0x0 DUP2 MLOAD PUSH8 0xFFFFFFFFFFFFFFFF DUP2 GT ISZERO PUSH2 0x142F JUMPI PUSH2 0x142E PUSH2 0x2123 JUMP JUMPDEST JUMPDEST PUSH1 0x40 MLOAD SWAP1 DUP1 DUP3 MSTORE DUP1 PUSH1 0x20 MUL PUSH1 0x20 ADD DUP3 ADD PUSH1 0x40 MSTORE DUP1 ISZERO PUSH2 0x1468 JUMPI DUP2 PUSH1 0x20 ADD JUMPDEST PUSH2 0x1455 PUSH2 0x1C5F JUMP JUMPDEST DUP2 MSTORE PUSH1 0x20 ADD SWAP1 PUSH1 0x1 SWAP1 SUB SWAP1 DUP2 PUSH2 0x144D JUMPI SWAP1 POP JUMPDEST POP SWAP1 POP PUSH1 0x0 JUMPDEST DUP3 MLOAD DUP2 LT ISZERO PUSH2 0x170D JUMPI PUSH1 0x0 DUP1 DUP5 DUP4 DUP2 MLOAD DUP2 LT PUSH2 0x148D JUMPI PUSH2 0x148C PUSH2 0x270F JUMP JUMPDEST JUMPDEST PUSH1 0x20 MUL PUSH1 0x20 ADD ADD MLOAD DUP2 MSTORE PUSH1 0x20 ADD SWAP1 DUP2 MSTORE PUSH1 0x20 ADD PUSH1 0x0 KECCAK256 PUSH1 0x40 MLOAD DUP1 PUSH2 0x120 ADD PUSH1 0x40 MSTORE SWAP1 DUP2 PUSH1 0x0 DUP3 ADD SLOAD DUP2 MSTORE PUSH1 0x20 ADD PUSH1 0x1 DUP3 ADD DUP1 SLOAD PUSH2 0x14C9 SWAP1 PUSH2 0x276D JUMP JUMPDEST DUP1 PUSH1 0x1F ADD PUSH1 0x20 DUP1 SWAP2 DIV MUL PUSH1 0x20 ADD PUSH1 0x40 MLOAD SWAP1 DUP2 ADD PUSH1 0x40 MSTORE DUP1 SWAP3 SWAP2 SWAP1 DUP2 DUP2 MSTORE PUSH1 0x20 ADD DUP3 DUP1 SLOAD PUSH2 0x14F5 SWAP1 PUSH2 0x276D JUMP JUMPDEST DUP1 ISZERO PUSH2 0x1542 JUMPI DUP1 PUSH1 0x1F LT PUSH2 0x1517 JUMPI PUSH2 0x100 DUP1 DUP4 SLOAD DIV MUL DUP4 MSTORE SWAP2 PUSH1 0x20 ADD SWAP2 PUSH2 0x1542 JUMP JUMPDEST DUP3 ADD SWAP2 SWAP1 PUSH1 0x0 MSTORE PUSH1 0x20 PUSH1 0x0 KECCAK256 SWAP1 JUMPDEST DUP2 SLOAD DUP2 MSTORE SWAP1 PUSH1 0x1 ADD SWAP1 PUSH1 0x20 ADD DUP1 DUP4 GT PUSH2 0x1525 JUMPI DUP3 SWAP1 SUB PUSH1 0x1F AND DUP3 ADD SWAP2 JUMPDEST POP POP POP POP POP DUP2 MSTORE PUSH1 0x20 ADD PUSH1 0x2 DUP3 ADD DUP1 SLOAD PUSH2 0x155B SWAP1 PUSH2 0x276D JUMP JUMPDEST DUP1 PUSH1 0x1F ADD PUSH1 0x20 DUP1 SWAP2 DIV MUL PUSH1 0x20 ADD PUSH1 0x40 MLOAD SWAP1 DUP2 ADD PUSH1 0x40 MSTORE DUP1 SWAP3 SWAP2 SWAP1 DUP2 DUP2 MSTORE PUSH1 0x20 ADD DUP3 DUP1 SLOAD PUSH2 0x1587 SWAP1 PUSH2 0x276D JUMP JUMPDEST DUP1 ISZERO PUSH2 0x15D4 JUMPI DUP1 PUSH1 0x1F LT PUSH2 0x15A9 JUMPI PUSH2 0x100 DUP1 DUP4 SLOAD DIV MUL DUP4 MSTORE SWAP2 PUSH1 0x20 ADD SWAP2 PUSH2 0x15D4 JUMP JUMPDEST DUP3 ADD SWAP2 SWAP1 PUSH1 0x0 MSTORE PUSH1 0x20 PUSH1 0x0 KECCAK256 SWAP1 JUMPDEST DUP2 SLOAD DUP2 MSTORE SWAP1 PUSH1 0x1 ADD SWAP1 PUSH1 0x20 ADD DUP1 DUP4 GT PUSH2 0x15B7 JUMPI DUP3 SWAP1 SUB PUSH1 0x1F AND DUP3 ADD SWAP2 JUMPDEST POP POP POP POP POP DUP2 MSTORE PUSH1 0x20 ADD PUSH1 0x3 DUP3 ADD SLOAD DUP2 MSTORE PUSH1 0x20 ADD PUSH1 0x4 DUP3 ADD SLOAD DUP2 MSTORE PUSH1 0x20 ADD PUSH1 0x5 DUP3 ADD PUSH1 0x0 SWAP1 SLOAD SWAP1 PUSH2 0x100 EXP SWAP1 DIV PUSH1 0xFF AND PUSH1 0x4 DUP2 GT ISZERO PUSH2 0x1616 JUMPI PUSH2 0x1615 PUSH2 0x1EFD JUMP JUMPDEST JUMPDEST PUSH1 0x4 DUP2 GT ISZERO PUSH2 0x1628 JUMPI PUSH2 0x1627 PUSH2 0x1EFD JUMP JUMPDEST JUMPDEST DUP2 MSTORE PUSH1 0x20 ADD PUSH1 0x5 DUP3 ADD PUSH1 0x1 SWAP1 SLOAD SWAP1 PUSH2 0x100 EXP SWAP1 DIV PUSH20 0xFFFFFFFFFFFFFFFFFFFFFFFFFFFFFFFFFFFFFFFF AND PUSH20 0xFFFFFFFFFFFFFFFFFFFFFFFFFFFFFFFFFFFFFFFF AND PUSH20 0xFFFFFFFFFFFFFFFFFFFFFFFFFFFFFFFFFFFFFFFF AND DUP2 MSTORE PUSH1 0x20 ADD PUSH1 0x6 DUP3 ADD PUSH1 0x0 SWAP1 SLOAD SWAP1 PUSH2 0x100 EXP SWAP1 DIV PUSH20 0xFFFFFFFFFFFFFFFFFFFFFFFFFFFFFFFFFFFFFFFF AND PUSH20 0xFFFFFFFFFFFFFFFFFFFFFFFFFFFFFFFFFFFFFFFF AND PUSH20 0xFFFFFFFFFFFFFFFFFFFFFFFFFFFFFFFFFFFFFFFF AND DUP2 MSTORE PUSH1 0x20 ADD PUSH1 0x7 DUP3 ADD SLOAD DUP2 MSTORE POP POP DUP3 DUP3 DUP2 MLOAD DUP2 LT PUSH2 0x16F5 JUMPI PUSH2 0x16F4 PUSH2 0x270F JUMP JUMPDEST JUMPDEST PUSH1 0x20 MUL PUSH1 0x20 ADD ADD DUP2 SWAP1 MSTORE POP DUP1 DUP1 PUSH1 0x1 ADD SWAP2 POP POP PUSH2 0x146E JUMP JUMPDEST POP DUP1 SWAP3 POP POP POP SWAP2 SWAP1 POP JUMP JUMPDEST PUSH1 0x3 SLOAD DUP2 JUMP JUMPDEST DUP1 PUSH1 0x0 DUP1 DUP3 DUP2 MSTORE PUSH1 0x20 ADD SWAP1 DUP2 MSTORE PUSH1 0x20 ADD PUSH1 0x0 KECCAK256 PUSH1 0x4 ADD SLOAD TIMESTAMP GT ISZERO PUSH2 0x1777 JUMPI PUSH1 0x40 MLOAD PUSH32 0x8C379A000000000000000000000000000000000000000000000000000000000 DUP2 MSTORE PUSH1 0x4 ADD PUSH2 0x176E SWAP1 PUSH2 0x25DF JUMP JUMPDEST PUSH1 0x40 MLOAD DUP1 SWAP2 SUB SWAP1 REVERT JUMPDEST PUSH1 0x0 DUP1 PUSH1 0x0 DUP5 DUP2 MSTORE PUSH1 0x20 ADD SWAP1 DUP2 MSTORE PUSH1 0x20 ADD PUSH1 0x0 KECCAK256 SWAP1 POP CALLER PUSH20 0xFFFFFFFFFFFFFFFFFFFFFFFFFFFFFFFFFFFFFFFF AND DUP2 PUSH1 0x5 ADD PUSH1 0x1 SWAP1 SLOAD SWAP1 PUSH2 0x100 EXP SWAP1 DIV PUSH20 0xFFFFFFFFFFFFFFFFFFFFFFFFFFFFFFFFFFFFFFFF AND PUSH20 0xFFFFFFFFFFFFFFFFFFFFFFFFFFFFFFFFFFFFFFFF AND EQ PUSH2 0x181F JUMPI PUSH1 0x40 MLOAD PUSH32 0x8C379A000000000000000000000000000000000000000000000000000000000 DUP2 MSTORE PUSH1 0x4 ADD PUSH2 0x1816 SWAP1 PUSH2 0x2D01 JUMP JUMPDEST PUSH1 0x40 MLOAD DUP1 SWAP2 SUB SWAP1 REVERT JUMPDEST PUSH1 0x1 PUSH1 0x4 DUP2 GT ISZERO PUSH2 0x1833 JUMPI PUSH2 0x1832 PUSH2 0x1EFD JUMP JUMPDEST JUMPDEST DUP2 PUSH1 0x5 ADD PUSH1 0x0 SWAP1 SLOAD SWAP1 PUSH2 0x100 EXP SWAP1 DIV PUSH1 0xFF AND PUSH1 0x4 DUP2 GT ISZERO PUSH2 0x1857 JUMPI PUSH2 0x1856 PUSH2 0x1EFD JUMP JUMPDEST JUMPDEST EQ PUSH2 0x1897 JUMPI PUSH1 0x40 MLOAD PUSH32 0x8C379A000000000000000000000000000000000000000000000000000000000 DUP2 MSTORE PUSH1 0x4 ADD PUSH2 0x188E SWAP1 PUSH2 0x2D6D JUMP JUMPDEST PUSH1 0x40 MLOAD DUP1 SWAP2 SUB SWAP1 REVERT JUMPDEST PUSH1 0x2 DUP2 PUSH1 0x5 ADD PUSH1 0x0 PUSH2 0x100 EXP DUP2 SLOAD DUP2 PUSH1 0xFF MUL NOT AND SWAP1 DUP4 PUSH1 0x4 DUP2 GT ISZERO PUSH2 0x18BF JUMPI PUSH2 0x18BE PUSH2 0x1EFD JUMP JUMPDEST JUMPDEST MUL OR SWAP1 SSTORE POP PUSH32 0xC1FA7142CFB933D0855114A3BFFDE296944C30B727F297C14D0DB4D553D3A5C7 DUP4 PUSH1 0x40 MLOAD PUSH2 0x18F3 SWAP2 SWAP1 PUSH2 0x1D79 JUMP JUMPDEST PUSH1 0x40 MLOAD DUP1 SWAP2 SUB SWAP1 LOG1 PUSH2 0x1995 PUSH1 0x40 MLOAD DUP1 PUSH1 0x40 ADD PUSH1 0x40 MSTORE DUP1 PUSH1 0xF DUP2 MSTORE PUSH1 0x20 ADD PUSH32 0x5461736B20636F6D706C657465643A0000000000000000000000000000000000 DUP2 MSTORE POP DUP5 PUSH1 0x40 MLOAD DUP1 PUSH1 0x40 ADD PUSH1 0x40 MSTORE DUP1 PUSH1 0x3 DUP2 MSTORE PUSH1 0x20 ADD PUSH32 0x42793A0000000000000000000000000000000000000000000000000000000000 DUP2 MSTORE POP DUP5 PUSH1 0x5 ADD PUSH1 0x1 SWAP1 SLOAD SWAP1 PUSH2 0x100 EXP SWAP1 DIV PUSH20 0xFFFFFFFFFFFFFFFFFFFFFFFFFFFFFFFFFFFFFFFF AND PUSH2 0x199A JUMP JUMPDEST POP POP POP JUMP JUMPDEST PUSH2 0x1A36 DUP5 DUP5 DUP5 DUP5 PUSH1 0x40 MLOAD PUSH1 0x24 ADD PUSH2 0x19B4 SWAP5 SWAP4 SWAP3 SWAP2 SWAP1 PUSH2 0x2D8D JUMP JUMPDEST PUSH1 0x40 MLOAD PUSH1 0x20 DUP2 DUP4 SUB SUB DUP2 MSTORE SWAP1 PUSH1 0x40 MSTORE PUSH32 0x7C4632A400000000000000000000000000000000000000000000000000000000 PUSH28 0xFFFFFFFFFFFFFFFFFFFFFFFFFFFFFFFFFFFFFFFFFFFFFFFFFFFFFFFF NOT AND PUSH1 0x20 DUP3 ADD DUP1 MLOAD PUSH28 0xFFFFFFFFFFFFFFFFFFFFFFFFFFFFFFFFFFFFFFFFFFFFFFFFFFFFFFFF DUP4 DUP2 DUP4 AND OR DUP4 MSTORE POP POP POP POP PUSH2 0x1C19 JUMP JUMPDEST POP POP POP POP JUMP JUMPDEST PUSH2 0x1AD4 DUP3 DUP3 PUSH1 0x40 MLOAD PUSH1 0x24 ADD PUSH2 0x1A52 SWAP3 SWAP2 SWAP1 PUSH2 0x2DE0 JUMP JUMPDEST PUSH1 0x40 MLOAD PUSH1 0x20 DUP2 DUP4 SUB SUB DUP2 MSTORE SWAP1 PUSH1 0x40 MSTORE PUSH32 0xB60E72CC00000000000000000000000000000000000000000000000000000000 PUSH28 0xFFFFFFFFFFFFFFFFFFFFFFFFFFFFFFFFFFFFFFFFFFFFFFFFFFFFFFFF NOT AND PUSH1 0x20 DUP3 ADD DUP1 MLOAD PUSH28 0xFFFFFFFFFFFFFFFFFFFFFFFFFFFFFFFFFFFFFFFFFFFFFFFFFFFFFFFF DUP4 DUP2 DUP4 AND OR DUP4 MSTORE POP POP POP POP PUSH2 0x1C19 JUMP JUMPDEST POP POP JUMP JUMPDEST PUSH2 0x1B72 DUP4 DUP4 DUP4 PUSH1 0x40 MLOAD PUSH1 0x24 ADD PUSH2 0x1AF0 SWAP4 SWAP3 SWAP2 SWAP1 PUSH2 0x2E10 JUMP JUMPDEST PUSH1 0x40 MLOAD PUSH1 0x20 DUP2 DUP4 SUB SUB DUP2 MSTORE SWAP1 PUSH1 0x40 MSTORE PUSH32 0xCA47C4EB00000000000000000000000000000000000000000000000000000000 PUSH28 0xFFFFFFFFFFFFFFFFFFFFFFFFFFFFFFFFFFFFFFFFFFFFFFFFFFFFFFFF NOT AND PUSH1 0x20 DUP3 ADD DUP1 MLOAD PUSH28 0xFFFFFFFFFFFFFFFFFFFFFFFFFFFFFFFFFFFFFFFFFFFFFFFFFFFFFFFF DUP4 DUP2 DUP4 AND OR DUP4 MSTORE POP POP POP POP PUSH2 0x1C19 JUMP JUMPDEST POP POP POP JUMP JUMPDEST PUSH2 0x1C13 DUP5 DUP5 DUP5 DUP5 PUSH1 0x40 MLOAD PUSH1 0x24 ADD PUSH2 0x1B91 SWAP5 SWAP4 SWAP3 SWAP2 SWAP1 PUSH2 0x2E4E JUMP JUMPDEST PUSH1 0x40 MLOAD PUSH1 0x20 DUP2 DUP4 SUB SUB DUP2 MSTORE SWAP1 PUSH1 0x40 MSTORE PUSH32 0xC67EA9D100000000000000000000000000000000000000000000000000000000 PUSH28 0xFFFFFFFFFFFFFFFFFFFFFFFFFFFFFFFFFFFFFFFFFFFFFFFFFFFFFFFF NOT AND PUSH1 0x20 DUP3 ADD DUP1 MLOAD PUSH28 0xFFFFFFFFFFFFFFFFFFFFFFFFFFFFFFFFFFFFFFFFFFFFFFFFFFFFFFFF DUP4 DUP2 DUP4 AND OR DUP4 MSTORE POP POP POP POP PUSH2 0x1C19 JUMP JUMPDEST POP POP POP POP JUMP JUMPDEST PUSH2 0x1C30 DUP2 PUSH2 0x1C28 PUSH2 0x1C33 PUSH2 0x1C54 JUMP JUMPDEST PUSH4 0xFFFFFFFF AND JUMP JUMPDEST POP JUMP JUMPDEST PUSH1 0x0 PUSH11 0x636F6E736F6C652E6C6F67 SWAP1 POP PUSH1 0x0 DUP1 DUP4 MLOAD PUSH1 0x20 DUP6 ADD DUP5 GAS STATICCALL POP POP POP JUMP JUMPDEST PUSH2 0x1CE9 DUP2 SWAP1 POP SWAP2 SWAP1 POP JUMP JUMPDEST PUSH1 0x40 MLOAD DUP1 PUSH2 0x120 ADD PUSH1 0x40 MSTORE DUP1 PUSH1 0x0 DUP2 MSTORE PUSH1 0x20 ADD PUSH1 0x60 DUP2 MSTORE PUSH1 0x20 ADD PUSH1 0x60 DUP2 MSTORE PUSH1 0x20 ADD PUSH1 0x0 DUP2 MSTORE PUSH1 0x20 ADD PUSH1 0x0 DUP2 MSTORE PUSH1 0x20 ADD PUSH1 0x0 PUSH1 0x4 DUP2 GT ISZERO PUSH2 0x1CA2 JUMPI PUSH2 0x1CA1 PUSH2 0x1EFD JUMP JUMPDEST JUMPDEST DUP2 MSTORE PUSH1 0x20 ADD PUSH1 0x0 PUSH20 0xFFFFFFFFFFFFFFFFFFFFFFFFFFFFFFFFFFFFFFFF AND DUP2 MSTORE PUSH1 0x20 ADD PUSH1 0x0 PUSH20 0xFFFFFFFFFFFFFFFFFFFFFFFFFFFFFFFFFFFFFFFF AND DUP2 MSTORE PUSH1 0x20 ADD PUSH1 0x0 DUP2 MSTORE POP SWAP1 JUMP JUMPDEST PUSH2 0x1CF1 PUSH2 0x2EA1 JUMP JUMPDEST JUMP JUMPDEST PUSH1 0x0 PUSH1 0x40 MLOAD SWAP1 POP SWAP1 JUMP JUMPDEST PUSH1 0x0 DUP1 REVERT JUMPDEST PUSH1 0x0 DUP1 REVERT JUMPDEST PUSH1 0x0 DUP2 SWAP1 POP SWAP2 SWAP1 POP JUMP JUMPDEST PUSH2 0x1D1A DUP2 PUSH2 0x1D07 JUMP JUMPDEST DUP2 EQ PUSH2 0x1D25 JUMPI PUSH1 0x0 DUP1 REVERT JUMPDEST POP JUMP JUMPDEST PUSH1 0x0 DUP2 CALLDATALOAD SWAP1 POP PUSH2 0x1D37 DUP2 PUSH2 0x1D11 JUMP JUMPDEST SWAP3 SWAP2 POP POP JUMP JUMPDEST PUSH1 0x0 PUSH1 0x20 DUP3 DUP5 SUB SLT ISZERO PUSH2 0x1D53 JUMPI PUSH2 0x1D52 PUSH2 0x1CFD JUMP JUMPDEST JUMPDEST PUSH1 0x0 PUSH2 0x1D61 DUP5 DUP3 DUP6 ADD PUSH2 0x1D28 JUMP JUMPDEST SWAP2 POP POP SWAP3 SWAP2 POP POP JUMP JUMPDEST PUSH2 0x1D73 DUP2 PUSH2 0x1D07 JUMP JUMPDEST DUP3 MSTORE POP POP JUMP JUMPDEST PUSH1 0x0 PUSH1 0x20 DUP3 ADD SWAP1 POP PUSH2 0x1D8E PUSH1 0x0 DUP4 ADD DUP5 PUSH2 0x1D6A JUMP JUMPDEST SWAP3 SWAP2 POP POP JUMP JUMPDEST PUSH1 0x0 PUSH20 0xFFFFFFFFFFFFFFFFFFFFFFFFFFFFFFFFFFFFFFFF DUP3 AND SWAP1 POP SWAP2 SWAP1 POP JUMP JUMPDEST PUSH1 0x0 PUSH2 0x1DBF DUP3 PUSH2 0x1D94 JUMP JUMPDEST SWAP1 POP SWAP2 SWAP1 POP JUMP JUMPDEST PUSH2 0x1DCF DUP2 PUSH2 0x1DB4 JUMP JUMPDEST DUP2 EQ PUSH2 0x1DDA JUMPI PUSH1 0x0 DUP1 REVERT JUMPDEST POP JUMP JUMPDEST PUSH1 0x0 DUP2 CALLDATALOAD SWAP1 POP PUSH2 0x1DEC DUP2 PUSH2 0x1DC6 JUMP JUMPDEST SWAP3 SWAP2 POP POP JUMP JUMPDEST PUSH1 0x0 DUP1 PUSH1 0x40 DUP4 DUP6 SUB SLT ISZERO PUSH2 0x1E09 JUMPI PUSH2 0x1E08 PUSH2 0x1CFD JUMP JUMPDEST JUMPDEST PUSH1 0x0 PUSH2 0x1E17 DUP6 DUP3 DUP7 ADD PUSH2 0x1DDD JUMP JUMPDEST SWAP3 POP POP PUSH1 0x20 PUSH2 0x1E28 DUP6 DUP3 DUP7 ADD PUSH2 0x1D28 JUMP JUMPDEST SWAP2 POP POP SWAP3 POP SWAP3 SWAP1 POP JUMP JUMPDEST PUSH1 0x0 DUP2 MLOAD SWAP1 POP SWAP2 SWAP1 POP JUMP JUMPDEST PUSH1 0x0 DUP3 DUP3 MSTORE PUSH1 0x20 DUP3 ADD SWAP1 POP SWAP3 SWAP2 POP POP JUMP JUMPDEST PUSH1 0x0 DUP2 SWAP1 POP PUSH1 0x20 DUP3 ADD SWAP1 POP SWAP2 SWAP1 POP JUMP JUMPDEST PUSH2 0x1E67 DUP2 PUSH2 0x1D07 JUMP JUMPDEST DUP3 MSTORE POP POP JUMP JUMPDEST PUSH1 0x0 DUP2 MLOAD SWAP1 POP SWAP2 SWAP1 POP JUMP JUMPDEST PUSH1 0x0 DUP3 DUP3 MSTORE PUSH1 0x20 DUP3 ADD SWAP1 POP SWAP3 SWAP2 POP POP JUMP JUMPDEST PUSH1 0x0 JUMPDEST DUP4 DUP2 LT ISZERO PUSH2 0x1EA7 JUMPI DUP1 DUP3 ADD MLOAD DUP2 DUP5 ADD MSTORE PUSH1 0x20 DUP2 ADD SWAP1 POP PUSH2 0x1E8C JUMP JUMPDEST PUSH1 0x0 DUP5 DUP5 ADD MSTORE POP POP POP POP JUMP JUMPDEST PUSH1 0x0 PUSH1 0x1F NOT PUSH1 0x1F DUP4 ADD AND SWAP1 POP SWAP2 SWAP1 POP JUMP JUMPDEST PUSH1 0x0 PUSH2 0x1ECF DUP3 PUSH2 0x1E6D JUMP JUMPDEST PUSH2 0x1ED9 DUP2 DUP6 PUSH2 0x1E78 JUMP JUMPDEST SWAP4 POP PUSH2 0x1EE9 DUP2 DUP6 PUSH1 0x20 DUP7 ADD PUSH2 0x1E89 JUMP JUMPDEST PUSH2 0x1EF2 DUP2 PUSH2 0x1EB3 JUMP JUMPDEST DUP5 ADD SWAP2 POP POP SWAP3 SWAP2 POP POP JUMP JUMPDEST PUSH32 0x4E487B7100000000000000000000000000000000000000000000000000000000 PUSH1 0x0 MSTORE PUSH1 0x21 PUSH1 0x4 MSTORE PUSH1 0x24 PUSH1 0x0 REVERT JUMPDEST PUSH1 0x5 DUP2 LT PUSH2 0x1F3D JUMPI PUSH2 0x1F3C PUSH2 0x1EFD JUMP JUMPDEST JUMPDEST POP JUMP JUMPDEST PUSH1 0x0 DUP2 SWAP1 POP PUSH2 0x1F4E DUP3 PUSH2 0x1F2C JUMP JUMPDEST SWAP2 SWAP1 POP JUMP JUMPDEST PUSH1 0x0 PUSH2 0x1F5E DUP3 PUSH2 0x1F40 JUMP JUMPDEST SWAP1 POP SWAP2 SWAP1 POP JUMP JUMPDEST PUSH2 0x1F6E DUP2 PUSH2 0x1F53 JUMP JUMPDEST DUP3 MSTORE POP POP JUMP JUMPDEST PUSH1 0x0 PUSH2 0x1F7F DUP3 PUSH2 0x1D94 JUMP JUMPDEST SWAP1 POP SWAP2 SWAP1 POP JUMP JUMPDEST PUSH2 0x1F8F DUP2 PUSH2 0x1F74 JUMP JUMPDEST DUP3 MSTORE POP POP JUMP JUMPDEST PUSH1 0x0 PUSH2 0x120 DUP4 ADD PUSH1 0x0 DUP4 ADD MLOAD PUSH2 0x1FAE PUSH1 0x0 DUP7 ADD DUP3 PUSH2 0x1E5E JUMP JUMPDEST POP PUSH1 0x20 DUP4 ADD MLOAD DUP5 DUP3 SUB PUSH1 0x20 DUP7 ADD MSTORE PUSH2 0x1FC6 DUP3 DUP3 PUSH2 0x1EC4 JUMP JUMPDEST SWAP2 POP POP PUSH1 0x40 DUP4 ADD MLOAD DUP5 DUP3 SUB PUSH1 0x40 DUP7 ADD MSTORE PUSH2 0x1FE0 DUP3 DUP3 PUSH2 0x1EC4 JUMP JUMPDEST SWAP2 POP POP PUSH1 0x60 DUP4 ADD MLOAD PUSH2 0x1FF5 PUSH1 0x60 DUP7 ADD DUP3 PUSH2 0x1E5E JUMP JUMPDEST POP PUSH1 0x80 DUP4 ADD MLOAD PUSH2 0x2008 PUSH1 0x80 DUP7 ADD DUP3 PUSH2 0x1E5E JUMP JUMPDEST POP PUSH1 0xA0 DUP4 ADD MLOAD PUSH2 0x201B PUSH1 0xA0 DUP7 ADD DUP3 PUSH2 0x1F65 JUMP JUMPDEST POP PUSH1 0xC0 DUP4 ADD MLOAD PUSH2 0x202E PUSH1 0xC0 DUP7 ADD DUP3 PUSH2 0x1F86 JUMP JUMPDEST POP PUSH1 0xE0 DUP4 ADD MLOAD PUSH2 0x2041 PUSH1 0xE0 DUP7 ADD DUP3 PUSH2 0x1F86 JUMP JUMPDEST POP PUSH2 0x100 DUP4 ADD MLOAD PUSH2 0x2056 PUSH2 0x100 DUP7 ADD DUP3 PUSH2 0x1E5E JUMP JUMPDEST POP DUP1 SWAP2 POP POP SWAP3 SWAP2 POP POP JUMP JUMPDEST PUSH1 0x0 PUSH2 0x206D DUP4 DUP4 PUSH2 0x1F95 JUMP JUMPDEST SWAP1 POP SWAP3 SWAP2 POP POP JUMP JUMPDEST PUSH1 0x0 PUSH1 0x20 DUP3 ADD SWAP1 POP SWAP2 SWAP1 POP JUMP JUMPDEST PUSH1 0x0 PUSH2 0x208D DUP3 PUSH2 0x1E32 JUMP JUMPDEST PUSH2 0x2097 DUP2 DUP6 PUSH2 0x1E3D JUMP JUMPDEST SWAP4 POP DUP4 PUSH1 0x20 DUP3 MUL DUP6 ADD PUSH2 0x20A9 DUP6 PUSH2 0x1E4E JUMP JUMPDEST DUP1 PUSH1 0x0 JUMPDEST DUP6 DUP2 LT ISZERO PUSH2 0x20E5 JUMPI DUP5 DUP5 SUB DUP10 MSTORE DUP2 MLOAD PUSH2 0x20C6 DUP6 DUP3 PUSH2 0x2061 JUMP JUMPDEST SWAP5 POP PUSH2 0x20D1 DUP4 PUSH2 0x2075 JUMP JUMPDEST SWAP3 POP PUSH1 0x20 DUP11 ADD SWAP10 POP POP PUSH1 0x1 DUP2 ADD SWAP1 POP PUSH2 0x20AD JUMP JUMPDEST POP DUP3 SWAP8 POP DUP8 SWAP6 POP POP POP POP POP POP SWAP3 SWAP2 POP POP JUMP JUMPDEST PUSH1 0x0 PUSH1 0x20 DUP3 ADD SWAP1 POP DUP2 DUP2 SUB PUSH1 0x0 DUP4 ADD MSTORE PUSH2 0x2111 DUP2 DUP5 PUSH2 0x2082 JUMP JUMPDEST SWAP1 POP SWAP3 SWAP2 POP POP JUMP JUMPDEST PUSH1 0x0 DUP1 REVERT JUMPDEST PUSH1 0x0 DUP1 REVERT JUMPDEST PUSH32 0x4E487B7100000000000000000000000000000000000000000000000000000000 PUSH1 0x0 MSTORE PUSH1 0x41 PUSH1 0x4 MSTORE PUSH1 0x24 PUSH1 0x0 REVERT JUMPDEST PUSH2 0x215B DUP3 PUSH2 0x1EB3 JUMP JUMPDEST DUP2 ADD DUP2 DUP2 LT PUSH8 0xFFFFFFFFFFFFFFFF DUP3 GT OR ISZERO PUSH2 0x217A JUMPI PUSH2 0x2179 PUSH2 0x2123 JUMP JUMPDEST JUMPDEST DUP1 PUSH1 0x40 MSTORE POP POP POP JUMP JUMPDEST PUSH1 0x0 PUSH2 0x218D PUSH2 0x1CF3 JUMP JUMPDEST SWAP1 POP PUSH2 0x2199 DUP3 DUP3 PUSH2 0x2152 JUMP JUMPDEST SWAP2 SWAP1 POP JUMP JUMPDEST PUSH1 0x0 PUSH8 0xFFFFFFFFFFFFFFFF DUP3 GT ISZERO PUSH2 0x21B9 JUMPI PUSH2 0x21B8 PUSH2 0x2123 JUMP JUMPDEST JUMPDEST PUSH2 0x21C2 DUP3 PUSH2 0x1EB3 JUMP JUMPDEST SWAP1 POP PUSH1 0x20 DUP2 ADD SWAP1 POP SWAP2 SWAP1 POP JUMP JUMPDEST DUP3 DUP2 DUP4 CALLDATACOPY PUSH1 0x0 DUP4 DUP4 ADD MSTORE POP POP POP JUMP JUMPDEST PUSH1 0x0 PUSH2 0x21F1 PUSH2 0x21EC DUP5 PUSH2 0x219E JUMP JUMPDEST PUSH2 0x2183 JUMP JUMPDEST SWAP1 POP DUP3 DUP2 MSTORE PUSH1 0x20 DUP2 ADD DUP5 DUP5 DUP5 ADD GT ISZERO PUSH2 0x220D JUMPI PUSH2 0x220C PUSH2 0x211E JUMP JUMPDEST JUMPDEST PUSH2 0x2218 DUP5 DUP3 DUP6 PUSH2 0x21CF JUMP JUMPDEST POP SWAP4 SWAP3 POP POP POP JUMP JUMPDEST PUSH1 0x0 DUP3 PUSH1 0x1F DUP4 ADD SLT PUSH2 0x2235 JUMPI PUSH2 0x2234 PUSH2 0x2119 JUMP JUMPDEST JUMPDEST DUP2 CALLDATALOAD PUSH2 0x2245 DUP5 DUP3 PUSH1 0x20 DUP7 ADD PUSH2 0x21DE JUMP JUMPDEST SWAP2 POP POP SWAP3 SWAP2 POP POP JUMP JUMPDEST PUSH1 0x0 DUP1 PUSH1 0x0 PUSH1 0x60 DUP5 DUP7 SUB SLT ISZERO PUSH2 0x2267 JUMPI PUSH2 0x2266 PUSH2 0x1CFD JUMP JUMPDEST JUMPDEST PUSH1 0x0 DUP5 ADD CALLDATALOAD PUSH8 0xFFFFFFFFFFFFFFFF DUP2 GT ISZERO PUSH2 0x2285 JUMPI PUSH2 0x2284 PUSH2 0x1D02 JUMP JUMPDEST JUMPDEST PUSH2 0x2291 DUP7 DUP3 DUP8 ADD PUSH2 0x2220 JUMP JUMPDEST SWAP4 POP POP PUSH1 0x20 DUP5 ADD CALLDATALOAD PUSH8 0xFFFFFFFFFFFFFFFF DUP2 GT ISZERO PUSH2 0x22B2 JUMPI PUSH2 0x22B1 PUSH2 0x1D02 JUMP JUMPDEST JUMPDEST PUSH2 0x22BE DUP7 DUP3 DUP8 ADD PUSH2 0x2220 JUMP JUMPDEST SWAP3 POP POP PUSH1 0x40 PUSH2 0x22CF DUP7 DUP3 DUP8 ADD PUSH2 0x1D28 JUMP JUMPDEST SWAP2 POP POP SWAP3 POP SWAP3 POP SWAP3 JUMP JUMPDEST PUSH1 0x0 DUP3 DUP3 MSTORE PUSH1 0x20 DUP3 ADD SWAP1 POP SWAP3 SWAP2 POP POP JUMP JUMPDEST PUSH1 0x0 PUSH2 0x22F5 DUP3 PUSH2 0x1E6D JUMP JUMPDEST PUSH2 0x22FF DUP2 DUP6 PUSH2 0x22D9 JUMP JUMPDEST SWAP4 POP PUSH2 0x230F DUP2 DUP6 PUSH1 0x20 DUP7 ADD PUSH2 0x1E89 JUMP JUMPDEST PUSH2 0x2318 DUP2 PUSH2 0x1EB3 JUMP JUMPDEST DUP5 ADD SWAP2 POP POP SWAP3 SWAP2 POP POP JUMP JUMPDEST PUSH2 0x232C DUP2 PUSH2 0x1F53 JUMP JUMPDEST DUP3 MSTORE POP POP JUMP JUMPDEST PUSH2 0x233B DUP2 PUSH2 0x1F74 JUMP JUMPDEST DUP3 MSTORE POP POP JUMP JUMPDEST PUSH1 0x0 PUSH2 0x120 DUP3 ADD SWAP1 POP PUSH2 0x2357 PUSH1 0x0 DUP4 ADD DUP13 PUSH2 0x1D6A JUMP JUMPDEST DUP2 DUP2 SUB PUSH1 0x20 DUP4 ADD MSTORE PUSH2 0x2369 DUP2 DUP12 PUSH2 0x22EA JUMP JUMPDEST SWAP1 POP DUP2 DUP2 SUB PUSH1 0x40 DUP4 ADD MSTORE PUSH2 0x237D DUP2 DUP11 PUSH2 0x22EA JUMP JUMPDEST SWAP1 POP PUSH2 0x238C PUSH1 0x60 DUP4 ADD DUP10 PUSH2 0x1D6A JUMP JUMPDEST PUSH2 0x2399 PUSH1 0x80 DUP4 ADD DUP9 PUSH2 0x1D6A JUMP JUMPDEST PUSH2 0x23A6 PUSH1 0xA0 DUP4 ADD DUP8 PUSH2 0x2323 JUMP JUMPDEST PUSH2 0x23B3 PUSH1 0xC0 DUP4 ADD DUP7 PUSH2 0x2332 JUMP JUMPDEST PUSH2 0x23C0 PUSH1 0xE0 DUP4 ADD DUP6 PUSH2 0x2332 JUMP JUMPDEST PUSH2 0x23CE PUSH2 0x100 DUP4 ADD DUP5 PUSH2 0x1D6A JUMP JUMPDEST SWAP11 SWAP10 POP POP POP POP POP POP POP POP POP POP JUMP JUMPDEST PUSH1 0x0 PUSH1 0x20 DUP3 DUP5 SUB SLT ISZERO PUSH2 0x23F2 JUMPI PUSH2 0x23F1 PUSH2 0x1CFD JUMP JUMPDEST JUMPDEST PUSH1 0x0 PUSH2 0x2400 DUP5 DUP3 DUP6 ADD PUSH2 0x1DDD JUMP JUMPDEST SWAP2 POP POP SWAP3 SWAP2 POP POP JUMP JUMPDEST PUSH32 0x596F7520617265206E6F74207468652063726561746F72000000000000000000 PUSH1 0x0 DUP3 ADD MSTORE POP JUMP JUMPDEST PUSH1 0x0 PUSH2 0x243F PUSH1 0x17 DUP4 PUSH2 0x22D9 JUMP JUMPDEST SWAP2 POP PUSH2 0x244A DUP3 PUSH2 0x2409 JUMP JUMPDEST PUSH1 0x20 DUP3 ADD SWAP1 POP SWAP2 SWAP1 POP JUMP JUMPDEST PUSH1 0x0 PUSH1 0x20 DUP3 ADD SWAP1 POP DUP2 DUP2 SUB PUSH1 0x0 DUP4 ADD MSTORE PUSH2 0x246E DUP2 PUSH2 0x2432 JUMP JUMPDEST SWAP1 POP SWAP2 SWAP1 POP JUMP JUMPDEST PUSH32 0x546865207461736B206973206E6F742070656E64696E6720617070726F76616C PUSH1 0x0 DUP3 ADD MSTORE POP JUMP JUMPDEST PUSH1 0x0 PUSH2 0x24AB PUSH1 0x20 DUP4 PUSH2 0x22D9 JUMP JUMPDEST SWAP2 POP PUSH2 0x24B6 DUP3 PUSH2 0x2475 JUMP JUMPDEST PUSH1 0x20 DUP3 ADD SWAP1 POP SWAP2 SWAP1 POP JUMP JUMPDEST PUSH1 0x0 PUSH1 0x20 DUP3 ADD SWAP1 POP DUP2 DUP2 SUB PUSH1 0x0 DUP4 ADD MSTORE PUSH2 0x24DA DUP2 PUSH2 0x249E JUMP JUMPDEST SWAP1 POP SWAP2 SWAP1 POP JUMP JUMPDEST PUSH1 0x0 DUP2 SWAP1 POP SWAP3 SWAP2 POP POP JUMP JUMPDEST POP JUMP JUMPDEST PUSH1 0x0 PUSH2 0x24FC PUSH1 0x0 DUP4 PUSH2 0x24E1 JUMP JUMPDEST SWAP2 POP PUSH2 0x2507 DUP3 PUSH2 0x24EC JUMP JUMPDEST PUSH1 0x0 DUP3 ADD SWAP1 POP SWAP2 SWAP1 POP JUMP JUMPDEST PUSH1 0x0 PUSH2 0x251D DUP3 PUSH2 0x24EF JUMP JUMPDEST SWAP2 POP DUP2 SWAP1 POP SWAP2 SWAP1 POP JUMP JUMPDEST PUSH32 0x526577617264207061796D656E74206661696C65640000000000000000000000 PUSH1 0x0 DUP3 ADD MSTORE POP JUMP JUMPDEST PUSH1 0x0 PUSH2 0x255D PUSH1 0x15 DUP4 PUSH2 0x22D9 JUMP JUMPDEST SWAP2 POP PUSH2 0x2568 DUP3 PUSH2 0x2527 JUMP JUMPDEST PUSH1 0x20 DUP3 ADD SWAP1 POP SWAP2 SWAP1 POP JUMP JUMPDEST PUSH1 0x0 PUSH1 0x20 DUP3 ADD SWAP1 POP DUP2 DUP2 SUB PUSH1 0x0 DUP4 ADD MSTORE PUSH2 0x258C DUP2 PUSH2 0x2550 JUMP JUMPDEST SWAP1 POP SWAP2 SWAP1 POP JUMP JUMPDEST PUSH32 0x5461736B20657870697265642020000000000000000000000000000000000000 PUSH1 0x0 DUP3 ADD MSTORE POP JUMP JUMPDEST PUSH1 0x0 PUSH2 0x25C9 PUSH1 0xE DUP4 PUSH2 0x22D9 JUMP JUMPDEST SWAP2 POP PUSH2 0x25D4 DUP3 PUSH2 0x2593 JUMP JUMPDEST PUSH1 0x20 DUP3 ADD SWAP1 POP SWAP2 SWAP1 POP JUMP JUMPDEST PUSH1 0x0 PUSH1 0x20 DUP3 ADD SWAP1 POP DUP2 DUP2 SUB PUSH1 0x0 DUP4 ADD MSTORE PUSH2 0x25F8 DUP2 PUSH2 0x25BC JUMP JUMPDEST SWAP1 POP SWAP2 SWAP1 POP JUMP JUMPDEST PUSH32 0x4E6F7420756E616C6C6F63617465640000000000000000000000000000000000 PUSH1 0x0 DUP3 ADD MSTORE POP JUMP JUMPDEST PUSH1 0x0 PUSH2 0x2635 PUSH1 0xF DUP4 PUSH2 0x22D9 JUMP JUMPDEST SWAP2 POP PUSH2 0x2640 DUP3 PUSH2 0x25FF JUMP JUMPDEST PUSH1 0x20 DUP3 ADD SWAP1 POP SWAP2 SWAP1 POP JUMP JUMPDEST PUSH1 0x0 PUSH1 0x20 DUP3 ADD SWAP1 POP DUP2 DUP2 SUB PUSH1 0x0 DUP4 ADD MSTORE PUSH2 0x2664 DUP2 PUSH2 0x2628 JUMP JUMPDEST SWAP1 POP SWAP2 SWAP1 POP JUMP JUMPDEST PUSH32 0x43726561746F722063616E6E6F742074616B65206F776E207461736B00000000 PUSH1 0x0 DUP3 ADD MSTORE POP JUMP JUMPDEST PUSH1 0x0 PUSH2 0x26A1 PUSH1 0x1C DUP4 PUSH2 0x22D9 JUMP JUMPDEST SWAP2 POP PUSH2 0x26AC DUP3 PUSH2 0x266B JUMP JUMPDEST PUSH1 0x20 DUP3 ADD SWAP1 POP SWAP2 SWAP1 POP JUMP JUMPDEST PUSH1 0x0 PUSH1 0x20 DUP3 ADD SWAP1 POP DUP2 DUP2 SUB PUSH1 0x0 DUP4 ADD MSTORE PUSH2 0x26D0 DUP2 PUSH2 0x2694 JUMP JUMPDEST SWAP1 POP SWAP2 SWAP1 POP JUMP JUMPDEST PUSH2 0x26E0 DUP2 PUSH2 0x1DB4 JUMP JUMPDEST DUP3 MSTORE POP POP JUMP JUMPDEST PUSH1 0x0 PUSH1 0x40 DUP3 ADD SWAP1 POP PUSH2 0x26FB PUSH1 0x0 DUP4 ADD DUP6 PUSH2 0x1D6A JUMP JUMPDEST PUSH2 0x2708 PUSH1 0x20 DUP4 ADD DUP5 PUSH2 0x26D7 JUMP JUMPDEST SWAP4 SWAP3 POP POP POP JUMP JUMPDEST PUSH32 0x4E487B7100000000000000000000000000000000000000000000000000000000 PUSH1 0x0 MSTORE PUSH1 0x32 PUSH1 0x4 MSTORE PUSH1 0x24 PUSH1 0x0 REVERT JUMPDEST PUSH32 0x4E487B7100000000000000000000000000000000000000000000000000000000 PUSH1 0x0 MSTORE PUSH1 0x22 PUSH1 0x4 MSTORE PUSH1 0x24 PUSH1 0x0 REVERT JUMPDEST PUSH1 0x0 PUSH1 0x2 DUP3 DIV SWAP1 POP PUSH1 0x1 DUP3 AND DUP1 PUSH2 0x2785 JUMPI PUSH1 0x7F DUP3 AND SWAP2 POP JUMPDEST PUSH1 0x20 DUP3 LT DUP2 SUB PUSH2 0x2798 JUMPI PUSH2 0x2797 PUSH2 0x273E JUMP JUMPDEST JUMPDEST POP SWAP2 SWAP1 POP JUMP JUMPDEST PUSH32 0x526577617264206D757374206265203E20300000000000000000000000000000 PUSH1 0x0 DUP3 ADD MSTORE POP JUMP JUMPDEST PUSH1 0x0 PUSH2 0x27D4 PUSH1 0x12 DUP4 PUSH2 0x22D9 JUMP JUMPDEST SWAP2 POP PUSH2 0x27DF DUP3 PUSH2 0x279E JUMP JUMPDEST PUSH1 0x20 DUP3 ADD SWAP1 POP SWAP2 SWAP1 POP JUMP JUMPDEST PUSH1 0x0 PUSH1 0x20 DUP3 ADD SWAP1 POP DUP2 DUP2 SUB PUSH1 0x0 DUP4 ADD MSTORE PUSH2 0x2803 DUP2 PUSH2 0x27C7 JUMP JUMPDEST SWAP1 POP SWAP2 SWAP1 POP JUMP JUMPDEST PUSH32 0x4E487B7100000000000000000000000000000000000000000000000000000000 PUSH1 0x0 MSTORE PUSH1 0x11 PUSH1 0x4 MSTORE PUSH1 0x24 PUSH1 0x0 REVERT JUMPDEST PUSH1 0x0 PUSH2 0x2844 DUP3 PUSH2 0x1D07 JUMP JUMPDEST SWAP2 POP PUSH32 0xFFFFFFFFFFFFFFFFFFFFFFFFFFFFFFFFFFFFFFFFFFFFFFFFFFFFFFFFFFFFFFFF DUP3 SUB PUSH2 0x2876 JUMPI PUSH2 0x2875 PUSH2 0x280A JUMP JUMPDEST JUMPDEST PUSH1 0x1 DUP3 ADD SWAP1 POP SWAP2 SWAP1 POP JUMP JUMPDEST PUSH1 0x0 DUP2 SWAP1 POP DUP2 PUSH1 0x0 MSTORE PUSH1 0x20 PUSH1 0x0 KECCAK256 SWAP1 POP SWAP2 SWAP1 POP JUMP JUMPDEST PUSH1 0x0 PUSH1 0x20 PUSH1 0x1F DUP4 ADD DIV SWAP1 POP SWAP2 SWAP1 POP JUMP JUMPDEST PUSH1 0x0 DUP3 DUP3 SHL SWAP1 POP SWAP3 SWAP2 POP POP JUMP JUMPDEST PUSH1 0x0 PUSH1 0x8 DUP4 MUL PUSH2 0x28E3 PUSH32 0xFFFFFFFFFFFFFFFFFFFFFFFFFFFFFFFFFFFFFFFFFFFFFFFFFFFFFFFFFFFFFFFF DUP3 PUSH2 0x28A6 JUMP JUMPDEST PUSH2 0x28ED DUP7 DUP4 PUSH2 0x28A6 JUMP JUMPDEST SWAP6 POP DUP1 NOT DUP5 AND SWAP4 POP DUP1 DUP7 AND DUP5 OR SWAP3 POP POP POP SWAP4 SWAP3 POP POP POP JUMP JUMPDEST PUSH1 0x0 DUP2 SWAP1 POP SWAP2 SWAP1 POP JUMP JUMPDEST PUSH1 0x0 PUSH2 0x292A PUSH2 0x2925 PUSH2 0x2920 DUP5 PUSH2 0x1D07 JUMP JUMPDEST PUSH2 0x2905 JUMP JUMPDEST PUSH2 0x1D07 JUMP JUMPDEST SWAP1 POP SWAP2 SWAP1 POP JUMP JUMPDEST PUSH1 0x0 DUP2 SWAP1 POP SWAP2 SWAP1 POP JUMP JUMPDEST PUSH2 0x2944 DUP4 PUSH2 0x290F JUMP JUMPDEST PUSH2 0x2958 PUSH2 0x2950 DUP3 PUSH2 0x2931 JUMP JUMPDEST DUP5 DUP5 SLOAD PUSH2 0x28B3 JUMP JUMPDEST DUP3 SSTORE POP POP POP POP JUMP JUMPDEST PUSH1 0x0 SWAP1 JUMP JUMPDEST PUSH2 0x296D PUSH2 0x2960 JUMP JUMPDEST PUSH2 0x2978 DUP2 DUP5 DUP5 PUSH2 0x293B JUMP JUMPDEST POP POP POP JUMP JUMPDEST JUMPDEST DUP2 DUP2 LT ISZERO PUSH2 0x299C JUMPI PUSH2 0x2991 PUSH1 0x0 DUP3 PUSH2 0x2965 JUMP JUMPDEST PUSH1 0x1 DUP2 ADD SWAP1 POP PUSH2 0x297E JUMP JUMPDEST POP POP JUMP JUMPDEST PUSH1 0x1F DUP3 GT ISZERO PUSH2 0x29E1 JUMPI PUSH2 0x29B2 DUP2 PUSH2 0x2881 JUMP JUMPDEST PUSH2 0x29BB DUP5 PUSH2 0x2896 JUMP JUMPDEST DUP2 ADD PUSH1 0x20 DUP6 LT ISZERO PUSH2 0x29CA JUMPI DUP2 SWAP1 POP JUMPDEST PUSH2 0x29DE PUSH2 0x29D6 DUP6 PUSH2 0x2896 JUMP JUMPDEST DUP4 ADD DUP3 PUSH2 0x297D JUMP JUMPDEST POP POP JUMPDEST POP POP POP JUMP JUMPDEST PUSH1 0x0 DUP3 DUP3 SHR SWAP1 POP SWAP3 SWAP2 POP POP JUMP JUMPDEST PUSH1 0x0 PUSH2 0x2A04 PUSH1 0x0 NOT DUP5 PUSH1 0x8 MUL PUSH2 0x29E6 JUMP JUMPDEST NOT DUP1 DUP4 AND SWAP2 POP POP SWAP3 SWAP2 POP POP JUMP JUMPDEST PUSH1 0x0 PUSH2 0x2A1D DUP4 DUP4 PUSH2 0x29F3 JUMP JUMPDEST SWAP2 POP DUP3 PUSH1 0x2 MUL DUP3 OR SWAP1 POP SWAP3 SWAP2 POP POP JUMP JUMPDEST PUSH2 0x2A36 DUP3 PUSH2 0x1E6D JUMP JUMPDEST PUSH8 0xFFFFFFFFFFFFFFFF DUP2 GT ISZERO PUSH2 0x2A4F JUMPI PUSH2 0x2A4E PUSH2 0x2123 JUMP JUMPDEST JUMPDEST PUSH2 0x2A59 DUP3 SLOAD PUSH2 0x276D JUMP JUMPDEST PUSH2 0x2A64 DUP3 DUP3 DUP6 PUSH2 0x29A0 JUMP JUMPDEST PUSH1 0x0 PUSH1 0x20 SWAP1 POP PUSH1 0x1F DUP4 GT PUSH1 0x1 DUP2 EQ PUSH2 0x2A97 JUMPI PUSH1 0x0 DUP5 ISZERO PUSH2 0x2A85 JUMPI DUP3 DUP8 ADD MLOAD SWAP1 POP JUMPDEST PUSH2 0x2A8F DUP6 DUP3 PUSH2 0x2A11 JUMP JUMPDEST DUP7 SSTORE POP PUSH2 0x2AF7 JUMP JUMPDEST PUSH1 0x1F NOT DUP5 AND PUSH2 0x2AA5 DUP7 PUSH2 0x2881 JUMP JUMPDEST PUSH1 0x0 JUMPDEST DUP3 DUP2 LT ISZERO PUSH2 0x2ACD JUMPI DUP5 DUP10 ADD MLOAD DUP3 SSTORE PUSH1 0x1 DUP3 ADD SWAP2 POP PUSH1 0x20 DUP6 ADD SWAP5 POP PUSH1 0x20 DUP2 ADD SWAP1 POP PUSH2 0x2AA8 JUMP JUMPDEST DUP7 DUP4 LT ISZERO PUSH2 0x2AEA JUMPI DUP5 DUP10 ADD MLOAD PUSH2 0x2AE6 PUSH1 0x1F DUP10 AND DUP3 PUSH2 0x29F3 JUMP JUMPDEST DUP4 SSTORE POP JUMPDEST PUSH1 0x1 PUSH1 0x2 DUP9 MUL ADD DUP9 SSTORE POP POP POP JUMPDEST POP POP POP POP POP POP JUMP JUMPDEST PUSH1 0x0 PUSH1 0x80 DUP3 ADD SWAP1 POP PUSH2 0x2B14 PUSH1 0x0 DUP4 ADD DUP8 PUSH2 0x1D6A JUMP JUMPDEST DUP2 DUP2 SUB PUSH1 0x20 DUP4 ADD MSTORE PUSH2 0x2B26 DUP2 DUP7 PUSH2 0x22EA JUMP JUMPDEST SWAP1 POP PUSH2 0x2B35 PUSH1 0x40 DUP4 ADD DUP6 PUSH2 0x1D6A JUMP JUMPDEST PUSH2 0x2B42 PUSH1 0x60 DUP4 ADD DUP5 PUSH2 0x26D7 JUMP JUMPDEST SWAP6 SWAP5 POP POP POP POP POP JUMP JUMPDEST PUSH32 0x4E6F74207461736B2063726561746F7200000000000000000000000000000000 PUSH1 0x0 DUP3 ADD MSTORE POP JUMP JUMPDEST PUSH1 0x0 PUSH2 0x2B81 PUSH1 0x10 DUP4 PUSH2 0x22D9 JUMP JUMPDEST SWAP2 POP PUSH2 0x2B8C DUP3 PUSH2 0x2B4B JUMP JUMPDEST PUSH1 0x20 DUP3 ADD SWAP1 POP SWAP2 SWAP1 POP JUMP JUMPDEST PUSH1 0x0 PUSH1 0x20 DUP3 ADD SWAP1 POP DUP2 DUP2 SUB PUSH1 0x0 DUP4 ADD MSTORE PUSH2 0x2BB0 DUP2 PUSH2 0x2B74 JUMP JUMPDEST SWAP1 POP SWAP2 SWAP1 POP JUMP JUMPDEST PUSH32 0x5461736B20616C726561647920616C6C6F636174656400000000000000000000 PUSH1 0x0 DUP3 ADD MSTORE POP JUMP JUMPDEST PUSH1 0x0 PUSH2 0x2BED PUSH1 0x16 DUP4 PUSH2 0x22D9 JUMP JUMPDEST SWAP2 POP PUSH2 0x2BF8 DUP3 PUSH2 0x2BB7 JUMP JUMPDEST PUSH1 0x20 DUP3 ADD SWAP1 POP SWAP2 SWAP1 POP JUMP JUMPDEST PUSH1 0x0 PUSH1 0x20 DUP3 ADD SWAP1 POP DUP2 DUP2 SUB PUSH1 0x0 DUP4 ADD MSTORE PUSH2 0x2C1C DUP2 PUSH2 0x2BE0 JUMP JUMPDEST SWAP1 POP SWAP2 SWAP1 POP JUMP JUMPDEST PUSH32 0x526566756E64206661696C656400000000000000000000000000000000000000 PUSH1 0x0 DUP3 ADD MSTORE POP JUMP JUMPDEST PUSH1 0x0 PUSH2 0x2C59 PUSH1 0xD DUP4 PUSH2 0x22D9 JUMP JUMPDEST SWAP2 POP PUSH2 0x2C64 DUP3 PUSH2 0x2C23 JUMP JUMPDEST PUSH1 0x20 DUP3 ADD SWAP1 POP SWAP2 SWAP1 POP JUMP JUMPDEST PUSH1 0x0 PUSH1 0x20 DUP3 ADD SWAP1 POP DUP2 DUP2 SUB PUSH1 0x0 DUP4 ADD MSTORE PUSH2 0x2C88 DUP2 PUSH2 0x2C4C JUMP JUMPDEST SWAP1 POP SWAP2 SWAP1 POP JUMP JUMPDEST PUSH32 0x596F7520617265206E6F742061737369676E656420746F207468697320746173 PUSH1 0x0 DUP3 ADD MSTORE PUSH32 0x6B00000000000000000000000000000000000000000000000000000000000000 PUSH1 0x20 DUP3 ADD MSTORE POP JUMP JUMPDEST PUSH1 0x0 PUSH2 0x2CEB PUSH1 0x21 DUP4 PUSH2 0x22D9 JUMP JUMPDEST SWAP2 POP PUSH2 0x2CF6 DUP3 PUSH2 0x2C8F JUMP JUMPDEST PUSH1 0x40 DUP3 ADD SWAP1 POP SWAP2 SWAP1 POP JUMP JUMPDEST PUSH1 0x0 PUSH1 0x20 DUP3 ADD SWAP1 POP DUP2 DUP2 SUB PUSH1 0x0 DUP4 ADD MSTORE PUSH2 0x2D1A DUP2 PUSH2 0x2CDE JUMP JUMPDEST SWAP1 POP SWAP2 SWAP1 POP JUMP JUMPDEST PUSH32 0x5461736B206E6F7420696E2070726F6772657373000000000000000000000000 PUSH1 0x0 DUP3 ADD MSTORE POP JUMP JUMPDEST PUSH1 0x0 PUSH2 0x2D57 PUSH1 0x14 DUP4 PUSH2 0x22D9 JUMP JUMPDEST SWAP2 POP PUSH2 0x2D62 DUP3 PUSH2 0x2D21 JUMP JUMPDEST PUSH1 0x20 DUP3 ADD SWAP1 POP SWAP2 SWAP1 POP JUMP JUMPDEST PUSH1 0x0 PUSH1 0x20 DUP3 ADD SWAP1 POP DUP2 DUP2 SUB PUSH1 0x0 DUP4 ADD MSTORE PUSH2 0x2D86 DUP2 PUSH2 0x2D4A JUMP JUMPDEST SWAP1 POP SWAP2 SWAP1 POP JUMP JUMPDEST PUSH1 0x0 PUSH1 0x80 DUP3 ADD SWAP1 POP DUP2 DUP2 SUB PUSH1 0x0 DUP4 ADD MSTORE PUSH2 0x2DA7 DUP2 DUP8 PUSH2 0x22EA JUMP JUMPDEST SWAP1 POP PUSH2 0x2DB6 PUSH1 0x20 DUP4 ADD DUP7 PUSH2 0x1D6A JUMP JUMPDEST DUP2 DUP2 SUB PUSH1 0x40 DUP4 ADD MSTORE PUSH2 0x2DC8 DUP2 DUP6 PUSH2 0x22EA JUMP JUMPDEST SWAP1 POP PUSH2 0x2DD7 PUSH1 0x60 DUP4 ADD DUP5 PUSH2 0x26D7 JUMP JUMPDEST SWAP6 SWAP5 POP POP POP POP POP JUMP JUMPDEST PUSH1 0x0 PUSH1 0x40 DUP3 ADD SWAP1 POP DUP2 DUP2 SUB PUSH1 0x0 DUP4 ADD MSTORE PUSH2 0x2DFA DUP2 DUP6 PUSH2 0x22EA JUMP JUMPDEST SWAP1 POP PUSH2 0x2E09 PUSH1 0x20 DUP4 ADD DUP5 PUSH2 0x1D6A JUMP JUMPDEST SWAP4 SWAP3 POP POP POP JUMP JUMPDEST PUSH1 0x0 PUSH1 0x60 DUP3 ADD SWAP1 POP DUP2 DUP2 SUB PUSH1 0x0 DUP4 ADD MSTORE PUSH2 0x2E2A DUP2 DUP7 PUSH2 0x22EA JUMP JUMPDEST SWAP1 POP PUSH2 0x2E39 PUSH1 0x20 DUP4 ADD DUP6 PUSH2 0x1D6A JUMP JUMPDEST PUSH2 0x2E46 PUSH1 0x40 DUP4 ADD DUP5 PUSH2 0x1D6A JUMP JUMPDEST SWAP5 SWAP4 POP POP POP POP JUMP JUMPDEST PUSH1 0x0 PUSH1 0x80 DUP3 ADD SWAP1 POP DUP2 DUP2 SUB PUSH1 0x0 DUP4 ADD MSTORE PUSH2 0x2E68 DUP2 DUP8 PUSH2 0x22EA JUMP JUMPDEST SWAP1 POP PUSH2 0x2E77 PUSH1 0x20 DUP4 ADD DUP7 PUSH2 0x1D6A JUMP JUMPDEST DUP2 DUP2 SUB PUSH1 0x40 DUP4 ADD MSTORE PUSH2 0x2E89 DUP2 DUP6 PUSH2 0x22EA JUMP JUMPDEST SWAP1 POP PUSH2 0x2E98 PUSH1 0x60 DUP4 ADD DUP5 PUSH2 0x1D6A JUMP JUMPDEST SWAP6 SWAP5 POP POP POP POP POP JUMP JUMPDEST PUSH32 0x4E487B7100000000000000000000000000000000000000000000000000000000 PUSH1 0x0 MSTORE PUSH1 0x51 PUSH1 0x4 MSTORE PUSH1 0x24 PUSH1 0x0 REVERT INVALID LOG2 PUSH5 0x6970667358 0x22 SLT KECCAK256 DUP4 DUP11 MSIZE 0x26 0x2B 0xC0 0xD3 AND RETURN 0x1E CALLCODE 0xA8 0xE7 SWAP8 PUSH0 CALLER 0xF6 0x4B CREATE2 0xBF 0xA8 OR 0xEA 0xE4 0xA6 SELFBALANCE DUP1 MSIZE DUP9 0xB8 0xC1 MUL PUSH5 0x736F6C6343 STOP ADDMOD SHR STOP CALLER "},"methodIdentifiers":{"addTask(string,string,uint256)":"7cbc9ae9","approveTask(uint256)":"0a07fae6","cancelTask(uint256)":"7eec20a8","completeTask(uint256)":"e1e29558","getAllTasks()":"779900b4","getUserTasks(address)":"95d57660","numTasks()":"bda09cd4","takeTask(uint256)":"56deb110","taskIds(uint256)":"39118d25","tasks(uint256)":"8d977672","userTasks(address,uint256)":"66873a55"}}}}}