{"contracts/TaskManagement.sol":{"TaskManagement":{"abi":[{"anonymous":false,"inputs":[{"indexed":false,"internalType":"uint256","name":"taskId","type":"uint256"},{"indexed":false,"internalType":"address","name":"assignedTo","type":"address"}],"name":"TaskAssigned","type":"event"},{"anonymous":false,"inputs":[{"indexed":false,"internalType":"uint256","name":"taskId","type":"uint256"}],"name":"TaskCancelled","type":"event"},{"anonymous":false,"inputs":[{"indexed":false,"internalType":"uint256","name":"taskId","type":"uint256"}],"name":"TaskCompleted","type":"event"},{"anonymous":false,"inputs":[{"indexed":false,"internalType":"uint256","name":"taskId","type":"uint256"},{"indexed":false,"internalType":"string","name":"name","type":"string"},{"indexed":false,"internalType":"uint256","name":"expiry","type":"uint256"},{"indexed":false,"internalType":"address","name":"creator","type":"address"}],"name":"TaskCreated","type":"event"},{"inputs":[{"internalType":"string","name":"name","type":"string"},{"internalType":"string","name":"description","type":"string"},{"internalType":"uint256","name":"expiry","type":"uint256"}],"name":"addTask","outputs":[],"stateMutability":"nonpayable","type":"function"},{"inputs":[{"internalType":"uint256","name":"taskId","type":"uint256"}],"name":"cancelTask","outputs":[{"internalType":"bool","name":"","type":"bool"}],"stateMutability":"nonpayable","type":"function"},{"inputs":[{"internalType":"uint256","name":"taskId","type":"uint256"}],"name":"completeTask","outputs":[{"internalType":"bool","name":"","type":"bool"}],"stateMutability":"nonpayable","type":"function"},{"inputs":[],"name":"getAllTasks","outputs":[{"components":[{"internalType":"uint256","name":"id","type":"uint256"},{"internalType":"string","name":"name","type":"string"},{"internalType":"string","name":"description","type":"string"},{"internalType":"uint256","name":"timestamp","type":"uint256"},{"internalType":"uint256","name":"expiry","type":"uint256"},{"internalType":"enum TaskManagement.TaskStatus","name":"status","type":"uint8"},{"internalType":"address","name":"assignedTo","type":"address"},{"internalType":"address","name":"creator","type":"address"}],"internalType":"struct TaskManagement.Task[]","name":"","type":"tuple[]"}],"stateMutability":"view","type":"function"},{"inputs":[{"internalType":"address","name":"user","type":"address"}],"name":"getUserTasks","outputs":[{"components":[{"internalType":"uint256","name":"id","type":"uint256"},{"internalType":"string","name":"name","type":"string"},{"internalType":"string","name":"description","type":"string"},{"internalType":"uint256","name":"timestamp","type":"uint256"},{"internalType":"uint256","name":"expiry","type":"uint256"},{"internalType":"enum TaskManagement.TaskStatus","name":"status","type":"uint8"},{"internalType":"address","name":"assignedTo","type":"address"},{"internalType":"address","name":"creator","type":"address"}],"internalType":"struct TaskManagement.Task[]","name":"","type":"tuple[]"}],"stateMutability":"view","type":"function"},{"inputs":[],"name":"numTasks","outputs":[{"internalType":"uint256","name":"","type":"uint256"}],"stateMutability":"view","type":"function"},{"inputs":[{"internalType":"uint256","name":"taskId","type":"uint256"}],"name":"takeTask","outputs":[{"internalType":"bool","name":"","type":"bool"}],"stateMutability":"nonpayable","type":"function"},{"inputs":[{"internalType":"uint256","name":"","type":"uint256"}],"name":"taskIds","outputs":[{"internalType":"uint256","name":"","type":"uint256"}],"stateMutability":"view","type":"function"},{"inputs":[{"internalType":"uint256","name":"","type":"uint256"}],"name":"tasks","outputs":[{"internalType":"uint256","name":"id","type":"uint256"},{"internalType":"string","name":"name","type":"string"},{"internalType":"string","name":"description","type":"string"},{"internalType":"uint256","name":"timestamp","type":"uint256"},{"internalType":"uint256","name":"expiry","type":"uint256"},{"internalType":"enum TaskManagement.TaskStatus","name":"status","type":"uint8"},{"internalType":"address","name":"assignedTo","type":"address"},{"internalType":"address","name":"creator","type":"address"}],"stateMutability":"view","type":"function"},{"inputs":[{"internalType":"address","name":"","type":"address"},{"internalType":"uint256","name":"","type":"uint256"}],"name":"userTasks","outputs":[{"internalType":"uint256","name":"","type":"uint256"}],"stateMutability":"view","type":"function"}],"evm":{"bytecode":{"linkReferences":{},"object":"6080604052348015600f57600080fd5b5061248d8061001f6000396000f3fe608060405234801561001057600080fd5b506004361061009e5760003560e01c80637eec20a8116100665780637eec20a81461016d5780638d9776721461019d57806395d57660146101d4578063bda09cd414610204578063e1e29558146102225761009e565b806339118d25146100a357806356deb110146100d357806366873a5514610103578063779900b4146101335780637cbc9ae914610151575b600080fd5b6100bd60048036038101906100b891906116f2565b610252565b6040516100ca919061172e565b60405180910390f35b6100ed60048036038101906100e891906116f2565b610276565b6040516100fa9190611764565b60405180910390f35b61011d600480360381019061011891906117dd565b6104ef565b60405161012a919061172e565b60405180910390f35b61013b610520565b6040516101489190611abb565b60405180910390f35b61016b60048036038101906101669190611c12565b610867565b005b610187600480360381019061018291906116f2565b610ac6565b6040516101949190611764565b60405180910390f35b6101b760048036038101906101b291906116f2565b610cf0565b6040516101cb989796959493929190611d05565b60405180910390f35b6101ee60048036038101906101e99190611d91565b610e95565b6040516101fb9190611abb565b60405180910390f35b61020c611265565b604051610219919061172e565b60405180910390f35b61023c600480360381019061023791906116f2565b61126b565b6040516102499190611764565b60405180910390f35b6002818154811061026257600080fd5b906000526020600020016000915090505481565b6000806000808481526020019081526020016000209050600060038111156102a1576102a06118e8565b5b8160050160009054906101000a900460ff1660038111156102c5576102c46118e8565b5b14610305576040517f08c379a00000000000000000000000000000000000000000000000000000000081526004016102fc90611e0a565b60405180910390fd5b3373ffffffffffffffffffffffffffffffffffffffff168160060160009054906101000a900473ffffffffffffffffffffffffffffffffffffffff1673ffffffffffffffffffffffffffffffffffffffff1603610397576040517f08c379a000000000000000000000000000000000000000000000000000000000815260040161038e90611e76565b60405180910390fd5b338160050160016101000a81548173ffffffffffffffffffffffffffffffffffffffff021916908373ffffffffffffffffffffffffffffffffffffffff16021790555060018160050160006101000a81548160ff02191690836003811115610402576104016118e8565b5b0217905550600160003373ffffffffffffffffffffffffffffffffffffffff1673ffffffffffffffffffffffffffffffffffffffff1681526020019081526020016000208390806001815401808255809150506001900390600052602060002001600090919091909150557f52476d55ecef5cf13caa64038f297fe6bbf865d9584a98b8722a15a6d5db128f833360405161049e929190611e96565b60405180910390a16104e56040518060400160405280600f81526020017f5461736b2061737369676e65643a200000000000000000000000000000000000815250846113f8565b6001915050919050565b6001602052816000526040600020818154811061050b57600080fd5b90600052602060002001600091509150505481565b60606000600280549050905060008167ffffffffffffffff81111561054857610547611ae7565b5b60405190808252806020026020018201604052801561058157816020015b61056e61161b565b8152602001906001900390816105665790505b50905060005b8281101561081f57600080600283815481106105a6576105a5611ebf565b5b9060005260206000200154815260200190815260200160002060405180610100016040529081600082015481526020016001820180546105e590611f1d565b80601f016020809104026020016040519081016040528092919081815260200182805461061190611f1d565b801561065e5780601f106106335761010080835404028352916020019161065e565b820191906000526020600020905b81548152906001019060200180831161064157829003601f168201915b5050505050815260200160028201805461067790611f1d565b80601f01602080910402602001604051908101604052809291908181526020018280546106a390611f1d565b80156106f05780601f106106c5576101008083540402835291602001916106f0565b820191906000526020600020905b8154815290600101906020018083116106d357829003601f168201915b5050505050815260200160038201548152602001600482015481526020016005820160009054906101000a900460ff166003811115610732576107316118e8565b5b6003811115610744576107436118e8565b5b81526020016005820160019054906101000a900473ffffffffffffffffffffffffffffffffffffffff1673ffffffffffffffffffffffffffffffffffffffff1673ffffffffffffffffffffffffffffffffffffffff1681526020016006820160009054906101000a900473ffffffffffffffffffffffffffffffffffffffff1673ffffffffffffffffffffffffffffffffffffffff1673ffffffffffffffffffffffffffffffffffffffff168152505082828151811061080757610806611ebf565b5b60200260200101819052508080600101915050610587565b5061085f6040518060400160405280601181526020017f5461736b73205265747269657665643a20000000000000000000000000000000815250836113f8565b809250505090565b60006003600081548092919061087c90611f7d565b919050559050604051806101000160405280828152602001858152602001848152602001428152602001838152602001600060038111156108c0576108bf6118e8565b5b8152602001600073ffffffffffffffffffffffffffffffffffffffff1681526020013373ffffffffffffffffffffffffffffffffffffffff1681525060008083815260200190815260200160002060008201518160000155602082015181600101908161092d9190612171565b5060408201518160020190816109439190612171565b50606082015181600301556080820151816004015560a08201518160050160006101000a81548160ff02191690836003811115610983576109826118e8565b5b021790555060c08201518160050160016101000a81548173ffffffffffffffffffffffffffffffffffffffff021916908373ffffffffffffffffffffffffffffffffffffffff16021790555060e08201518160060160006101000a81548173ffffffffffffffffffffffffffffffffffffffff021916908373ffffffffffffffffffffffffffffffffffffffff16021790555090505060028190806001815401808255809150506001900390600052602060002001600090919091909150557f29c8f9924c46286774869ac7896e10bcaed1aaedfeea403b45bdf64cdd3f45ba81858433604051610a779493929190612243565b60405180910390a1610ac06040518060400160405280601081526020017f4e6577205461736b2041646465643a2000000000000000000000000000000000815250828633611494565b50505050565b6000813373ffffffffffffffffffffffffffffffffffffffff1660008083815260200190815260200160002060060160009054906101000a900473ffffffffffffffffffffffffffffffffffffffff1673ffffffffffffffffffffffffffffffffffffffff1614610b6c576040517f08c379a0000000000000000000000000000000000000000000000000000000008152600401610b63906122db565b60405180910390fd5b6000806000858152602001908152602001600020905060006003811115610b9657610b956118e8565b5b8160050160009054906101000a900460ff166003811115610bba57610bb96118e8565b5b14610bfa576040517f08c379a0000000000000000000000000000000000000000000000000000000008152600401610bf190612347565b60405180910390fd5b60006003811115610c0e57610c0d6118e8565b5b8160050160009054906101000a900460ff166003811115610c3257610c316118e8565b5b03610ce45760038160050160006101000a81548160ff02191690836003811115610c5f57610c5e6118e8565b5b02179055507fc6eacc3aa5b2aa77b5a826b832a804ca0b71830ec74f9aa57a15edd978c31ed684604051610c93919061172e565b60405180910390a1610cda6040518060400160405280601081526020017f5461736b2063616e63656c6c65643a2000000000000000000000000000000000815250856113f8565b6001925050610cea565b60009250505b50919050565b6000602052806000526040600020600091509050806000015490806001018054610d1990611f1d565b80601f0160208091040260200160405190810160405280929190818152602001828054610d4590611f1d565b8015610d925780601f10610d6757610100808354040283529160200191610d92565b820191906000526020600020905b815481529060010190602001808311610d7557829003601f168201915b505050505090806002018054610da790611f1d565b80601f0160208091040260200160405190810160405280929190818152602001828054610dd390611f1d565b8015610e205780601f10610df557610100808354040283529160200191610e20565b820191906000526020600020905b815481529060010190602001808311610e0357829003601f168201915b5050505050908060030154908060040154908060050160009054906101000a900460ff16908060050160019054906101000a900473ffffffffffffffffffffffffffffffffffffffff16908060060160009054906101000a900473ffffffffffffffffffffffffffffffffffffffff16905088565b60606000600160008473ffffffffffffffffffffffffffffffffffffffff1673ffffffffffffffffffffffffffffffffffffffff168152602001908152602001600020805480602002602001604051908101604052809291908181526020018280548015610f2257602002820191906000526020600020905b815481526020019060010190808311610f0e575b505050505090506000815167ffffffffffffffff811115610f4657610f45611ae7565b5b604051908082528060200260200182016040528015610f7f57816020015b610f6c61161b565b815260200190600190039081610f645790505b50905060005b825181101561121a57600080848381518110610fa457610fa3611ebf565b5b602002602001015181526020019081526020016000206040518061010001604052908160008201548152602001600182018054610fe090611f1d565b80601f016020809104026020016040519081016040528092919081815260200182805461100c90611f1d565b80156110595780601f1061102e57610100808354040283529160200191611059565b820191906000526020600020905b81548152906001019060200180831161103c57829003601f168201915b5050505050815260200160028201805461107290611f1d565b80601f016020809104026020016040519081016040528092919081815260200182805461109e90611f1d565b80156110eb5780601f106110c0576101008083540402835291602001916110eb565b820191906000526020600020905b8154815290600101906020018083116110ce57829003601f168201915b5050505050815260200160038201548152602001600482015481526020016005820160009054906101000a900460ff16600381111561112d5761112c6118e8565b5b600381111561113f5761113e6118e8565b5b81526020016005820160019054906101000a900473ffffffffffffffffffffffffffffffffffffffff1673ffffffffffffffffffffffffffffffffffffffff1673ffffffffffffffffffffffffffffffffffffffff1681526020016006820160009054906101000a900473ffffffffffffffffffffffffffffffffffffffff1673ffffffffffffffffffffffffffffffffffffffff1673ffffffffffffffffffffffffffffffffffffffff168152505082828151811061120257611201611ebf565b5b60200260200101819052508080600101915050610f85565b5061125b6040518060400160405280601181526020017f5461736b73205265747269657665643a2000000000000000000000000000000081525083516113f8565b8092505050919050565b60035481565b60008060008084815260200190815260200160002090503373ffffffffffffffffffffffffffffffffffffffff168160050160019054906101000a900473ffffffffffffffffffffffffffffffffffffffff1673ffffffffffffffffffffffffffffffffffffffff161480156113165750600160038111156112f0576112ef6118e8565b5b8160050160009054906101000a900460ff166003811115611314576113136118e8565b5b145b156113ed5760028160050160006101000a81548160ff02191690836003811115611343576113426118e8565b5b02179055507fc1fa7142cfb933d0855114a3bffde296944c30b727f297c14d0db4d553d3a5c783604051611377919061172e565b60405180910390a16113e36040518060400160405280601081526020017f5461736b20636f6d706c657465643a2000000000000000000000000000000000815250848360050160019054906101000a900473ffffffffffffffffffffffffffffffffffffffff16611536565b60019150506113f3565b60009150505b919050565b611490828260405160240161140e929190612367565b6040516020818303038152906040527fb60e72cc000000000000000000000000000000000000000000000000000000007bffffffffffffffffffffffffffffffffffffffffffffffffffffffff19166020820180517bffffffffffffffffffffffffffffffffffffffffffffffffffffffff83818316178352505050506115d5565b5050565b611530848484846040516024016114ae9493929190612397565b6040516020818303038152906040527f7c4632a4000000000000000000000000000000000000000000000000000000007bffffffffffffffffffffffffffffffffffffffffffffffffffffffff19166020820180517bffffffffffffffffffffffffffffffffffffffffffffffffffffffff83818316178352505050506115d5565b50505050565b6115d083838360405160240161154e939291906123ea565b6040516020818303038152906040527f1c7ec448000000000000000000000000000000000000000000000000000000007bffffffffffffffffffffffffffffffffffffffffffffffffffffffff19166020820180517bffffffffffffffffffffffffffffffffffffffffffffffffffffffff83818316178352505050506115d5565b505050565b6115ec816115e46115ef611610565b63ffffffff16565b50565b60006a636f6e736f6c652e6c6f679050600080835160208501845afa505050565b61169e819050919050565b60405180610100016040528060008152602001606081526020016060815260200160008152602001600081526020016000600381111561165e5761165d6118e8565b5b8152602001600073ffffffffffffffffffffffffffffffffffffffff168152602001600073ffffffffffffffffffffffffffffffffffffffff1681525090565b6116a6612428565b565b6000604051905090565b600080fd5b600080fd5b6000819050919050565b6116cf816116bc565b81146116da57600080fd5b50565b6000813590506116ec816116c6565b92915050565b600060208284031215611708576117076116b2565b5b6000611716848285016116dd565b91505092915050565b611728816116bc565b82525050565b6000602082019050611743600083018461171f565b92915050565b60008115159050919050565b61175e81611749565b82525050565b60006020820190506117796000830184611755565b92915050565b600073ffffffffffffffffffffffffffffffffffffffff82169050919050565b60006117aa8261177f565b9050919050565b6117ba8161179f565b81146117c557600080fd5b50565b6000813590506117d7816117b1565b92915050565b600080604083850312156117f4576117f36116b2565b5b6000611802858286016117c8565b9250506020611813858286016116dd565b9150509250929050565b600081519050919050565b600082825260208201905092915050565b6000819050602082019050919050565b611852816116bc565b82525050565b600081519050919050565b600082825260208201905092915050565b60005b83811015611892578082015181840152602081019050611877565b60008484015250505050565b6000601f19601f8301169050919050565b60006118ba82611858565b6118c48185611863565b93506118d4818560208601611874565b6118dd8161189e565b840191505092915050565b7f4e487b7100000000000000000000000000000000000000000000000000000000600052602160045260246000fd5b60048110611928576119276118e8565b5b50565b600081905061193982611917565b919050565b60006119498261192b565b9050919050565b6119598161193e565b82525050565b6119688161179f565b82525050565b6000610100830160008301516119876000860182611849565b506020830151848203602086015261199f82826118af565b915050604083015184820360408601526119b982826118af565b91505060608301516119ce6060860182611849565b5060808301516119e16080860182611849565b5060a08301516119f460a0860182611950565b5060c0830151611a0760c086018261195f565b5060e0830151611a1a60e086018261195f565b508091505092915050565b6000611a31838361196e565b905092915050565b6000602082019050919050565b6000611a518261181d565b611a5b8185611828565b935083602082028501611a6d85611839565b8060005b85811015611aa95784840389528151611a8a8582611a25565b9450611a9583611a39565b925060208a01995050600181019050611a71565b50829750879550505050505092915050565b60006020820190508181036000830152611ad58184611a46565b905092915050565b600080fd5b600080fd5b7f4e487b7100000000000000000000000000000000000000000000000000000000600052604160045260246000fd5b611b1f8261189e565b810181811067ffffffffffffffff82111715611b3e57611b3d611ae7565b5b80604052505050565b6000611b516116a8565b9050611b5d8282611b16565b919050565b600067ffffffffffffffff821115611b7d57611b7c611ae7565b5b611b868261189e565b9050602081019050919050565b82818337600083830152505050565b6000611bb5611bb084611b62565b611b47565b905082815260208101848484011115611bd157611bd0611ae2565b5b611bdc848285611b93565b509392505050565b600082601f830112611bf957611bf8611add565b5b8135611c09848260208601611ba2565b91505092915050565b600080600060608486031215611c2b57611c2a6116b2565b5b600084013567ffffffffffffffff811115611c4957611c486116b7565b5b611c5586828701611be4565b935050602084013567ffffffffffffffff811115611c7657611c756116b7565b5b611c8286828701611be4565b9250506040611c93868287016116dd565b9150509250925092565b600082825260208201905092915050565b6000611cb982611858565b611cc38185611c9d565b9350611cd3818560208601611874565b611cdc8161189e565b840191505092915050565b611cf08161193e565b82525050565b611cff8161179f565b82525050565b600061010082019050611d1b600083018b61171f565b8181036020830152611d2d818a611cae565b90508181036040830152611d418189611cae565b9050611d50606083018861171f565b611d5d608083018761171f565b611d6a60a0830186611ce7565b611d7760c0830185611cf6565b611d8460e0830184611cf6565b9998505050505050505050565b600060208284031215611da757611da66116b2565b5b6000611db5848285016117c8565b91505092915050565b7f4e6f7420756e616c6c6f63617465640000000000000000000000000000000000600082015250565b6000611df4600f83611c9d565b9150611dff82611dbe565b602082019050919050565b60006020820190508181036000830152611e2381611de7565b9050919050565b7f43726561746f722063616e6e6f742074616b65206f776e207461736b00000000600082015250565b6000611e60601c83611c9d565b9150611e6b82611e2a565b602082019050919050565b60006020820190508181036000830152611e8f81611e53565b9050919050565b6000604082019050611eab600083018561171f565b611eb86020830184611cf6565b9392505050565b7f4e487b7100000000000000000000000000000000000000000000000000000000600052603260045260246000fd5b7f4e487b7100000000000000000000000000000000000000000000000000000000600052602260045260246000fd5b60006002820490506001821680611f3557607f821691505b602082108103611f4857611f47611eee565b5b50919050565b7f4e487b7100000000000000000000000000000000000000000000000000000000600052601160045260246000fd5b6000611f88826116bc565b91507fffffffffffffffffffffffffffffffffffffffffffffffffffffffffffffffff8203611fba57611fb9611f4e565b5b600182019050919050565b60008190508160005260206000209050919050565b60006020601f8301049050919050565b600082821b905092915050565b6000600883026120277fffffffffffffffffffffffffffffffffffffffffffffffffffffffffffffffff82611fea565b6120318683611fea565b95508019841693508086168417925050509392505050565b6000819050919050565b600061206e612069612064846116bc565b612049565b6116bc565b9050919050565b6000819050919050565b61208883612053565b61209c61209482612075565b848454611ff7565b825550505050565b600090565b6120b16120a4565b6120bc81848461207f565b505050565b5b818110156120e0576120d56000826120a9565b6001810190506120c2565b5050565b601f821115612125576120f681611fc5565b6120ff84611fda565b8101602085101561210e578190505b61212261211a85611fda565b8301826120c1565b50505b505050565b600082821c905092915050565b60006121486000198460080261212a565b1980831691505092915050565b60006121618383612137565b9150826002028217905092915050565b61217a82611858565b67ffffffffffffffff81111561219357612192611ae7565b5b61219d8254611f1d565b6121a88282856120e4565b600060209050601f8311600181146121db57600084156121c9578287015190505b6121d38582612155565b86555061223b565b601f1984166121e986611fc5565b60005b82811015612211578489015182556001820191506020850194506020810190506121ec565b8683101561222e578489015161222a601f891682612137565b8355505b6001600288020188555050505b505050505050565b6000608082019050612258600083018761171f565b818103602083015261226a8186611cae565b9050612279604083018561171f565b6122866060830184611cf6565b95945050505050565b7f4e6f74207461736b2063726561746f7200000000000000000000000000000000600082015250565b60006122c5601083611c9d565b91506122d08261228f565b602082019050919050565b600060208201905081810360008301526122f4816122b8565b9050919050565b7f5461736b20616c726561647920616c6c6f636174656400000000000000000000600082015250565b6000612331601683611c9d565b915061233c826122fb565b602082019050919050565b6000602082019050818103600083015261236081612324565b9050919050565b600060408201905081810360008301526123818185611cae565b9050612390602083018461171f565b9392505050565b600060808201905081810360008301526123b18187611cae565b90506123c0602083018661171f565b81810360408301526123d28185611cae565b90506123e16060830184611cf6565b95945050505050565b600060608201905081810360008301526124048186611cae565b9050612413602083018561171f565b6124206040830184611cf6565b949350505050565b7f4e487b7100000000000000000000000000000000000000000000000000000000600052605160045260246000fdfea2646970667358221220d8120de2fbd5726216b947a2089dab4eafa77502a63035334712626afca61d9f64736f6c634300081c0033","opcodes":"PUSH1 0x80 PUSH1 0x40 MSTORE CALLVALUE DUP1 ISZERO PUSH1 0xF JUMPI PUSH1 0x0 DUP1 REVERT JUMPDEST POP PUSH2 0x248D DUP1 PUSH2 0x1F PUSH1 0x0 CODECOPY PUSH1 0x0 RETURN INVALID PUSH1 0x80 PUSH1 0x40 MSTORE CALLVALUE DUP1 ISZERO PUSH2 0x10 JUMPI PUSH1 0x0 DUP1 REVERT JUMPDEST POP PUSH1 0x4 CALLDATASIZE LT PUSH2 0x9E JUMPI PUSH1 0x0 CALLDATALOAD PUSH1 0xE0 SHR DUP1 PUSH4 0x7EEC20A8 GT PUSH2 0x66 JUMPI DUP1 PUSH4 0x7EEC20A8 EQ PUSH2 0x16D JUMPI DUP1 PUSH4 0x8D977672 EQ PUSH2 0x19D JUMPI DUP1 PUSH4 0x95D57660 EQ PUSH2 0x1D4 JUMPI DUP1 PUSH4 0xBDA09CD4 EQ PUSH2 0x204 JUMPI DUP1 PUSH4 0xE1E29558 EQ PUSH2 0x222 JUMPI PUSH2 0x9E JUMP JUMPDEST DUP1 PUSH4 0x39118D25 EQ PUSH2 0xA3 JUMPI DUP1 PUSH4 0x56DEB110 EQ PUSH2 0xD3 JUMPI DUP1 PUSH4 0x66873A55 EQ PUSH2 0x103 JUMPI DUP1 PUSH4 0x779900B4 EQ PUSH2 0x133 JUMPI DUP1 PUSH4 0x7CBC9AE9 EQ PUSH2 0x151 JUMPI JUMPDEST PUSH1 0x0 DUP1 REVERT JUMPDEST PUSH2 0xBD PUSH1 0x4 DUP1 CALLDATASIZE SUB DUP2 ADD SWAP1 PUSH2 0xB8 SWAP2 SWAP1 PUSH2 0x16F2 JUMP JUMPDEST PUSH2 0x252 JUMP JUMPDEST PUSH1 0x40 MLOAD PUSH2 0xCA SWAP2 SWAP1 PUSH2 0x172E JUMP JUMPDEST PUSH1 0x40 MLOAD DUP1 SWAP2 SUB SWAP1 RETURN JUMPDEST PUSH2 0xED PUSH1 0x4 DUP1 CALLDATASIZE SUB DUP2 ADD SWAP1 PUSH2 0xE8 SWAP2 SWAP1 PUSH2 0x16F2 JUMP JUMPDEST PUSH2 0x276 JUMP JUMPDEST PUSH1 0x40 MLOAD PUSH2 0xFA SWAP2 SWAP1 PUSH2 0x1764 JUMP JUMPDEST PUSH1 0x40 MLOAD DUP1 SWAP2 SUB SWAP1 RETURN JUMPDEST PUSH2 0x11D PUSH1 0x4 DUP1 CALLDATASIZE SUB DUP2 ADD SWAP1 PUSH2 0x118 SWAP2 SWAP1 PUSH2 0x17DD JUMP JUMPDEST PUSH2 0x4EF JUMP JUMPDEST PUSH1 0x40 MLOAD PUSH2 0x12A SWAP2 SWAP1 PUSH2 0x172E JUMP JUMPDEST PUSH1 0x40 MLOAD DUP1 SWAP2 SUB SWAP1 RETURN JUMPDEST PUSH2 0x13B PUSH2 0x520 JUMP JUMPDEST PUSH1 0x40 MLOAD PUSH2 0x148 SWAP2 SWAP1 PUSH2 0x1ABB JUMP JUMPDEST PUSH1 0x40 MLOAD DUP1 SWAP2 SUB SWAP1 RETURN JUMPDEST PUSH2 0x16B PUSH1 0x4 DUP1 CALLDATASIZE SUB DUP2 ADD SWAP1 PUSH2 0x166 SWAP2 SWAP1 PUSH2 0x1C12 JUMP JUMPDEST PUSH2 0x867 JUMP JUMPDEST STOP JUMPDEST PUSH2 0x187 PUSH1 0x4 DUP1 CALLDATASIZE SUB DUP2 ADD SWAP1 PUSH2 0x182 SWAP2 SWAP1 PUSH2 0x16F2 JUMP JUMPDEST PUSH2 0xAC6 JUMP JUMPDEST PUSH1 0x40 MLOAD PUSH2 0x194 SWAP2 SWAP1 PUSH2 0x1764 JUMP JUMPDEST PUSH1 0x40 MLOAD DUP1 SWAP2 SUB SWAP1 RETURN JUMPDEST PUSH2 0x1B7 PUSH1 0x4 DUP1 CALLDATASIZE SUB DUP2 ADD SWAP1 PUSH2 0x1B2 SWAP2 SWAP1 PUSH2 0x16F2 JUMP JUMPDEST PUSH2 0xCF0 JUMP JUMPDEST PUSH1 0x40 MLOAD PUSH2 0x1CB SWAP9 SWAP8 SWAP7 SWAP6 SWAP5 SWAP4 SWAP3 SWAP2 SWAP1 PUSH2 0x1D05 JUMP JUMPDEST PUSH1 0x40 MLOAD DUP1 SWAP2 SUB SWAP1 RETURN JUMPDEST PUSH2 0x1EE PUSH1 0x4 DUP1 CALLDATASIZE SUB DUP2 ADD SWAP1 PUSH2 0x1E9 SWAP2 SWAP1 PUSH2 0x1D91 JUMP JUMPDEST PUSH2 0xE95 JUMP JUMPDEST PUSH1 0x40 MLOAD PUSH2 0x1FB SWAP2 SWAP1 PUSH2 0x1ABB JUMP JUMPDEST PUSH1 0x40 MLOAD DUP1 SWAP2 SUB SWAP1 RETURN JUMPDEST PUSH2 0x20C PUSH2 0x1265 JUMP JUMPDEST PUSH1 0x40 MLOAD PUSH2 0x219 SWAP2 SWAP1 PUSH2 0x172E JUMP JUMPDEST PUSH1 0x40 MLOAD DUP1 SWAP2 SUB SWAP1 RETURN JUMPDEST PUSH2 0x23C PUSH1 0x4 DUP1 CALLDATASIZE SUB DUP2 ADD SWAP1 PUSH2 0x237 SWAP2 SWAP1 PUSH2 0x16F2 JUMP JUMPDEST PUSH2 0x126B JUMP JUMPDEST PUSH1 0x40 MLOAD PUSH2 0x249 SWAP2 SWAP1 PUSH2 0x1764 JUMP JUMPDEST PUSH1 0x40 MLOAD DUP1 SWAP2 SUB SWAP1 RETURN JUMPDEST PUSH1 0x2 DUP2 DUP2 SLOAD DUP2 LT PUSH2 0x262 JUMPI PUSH1 0x0 DUP1 REVERT JUMPDEST SWAP1 PUSH1 0x0 MSTORE PUSH1 0x20 PUSH1 0x0 KECCAK256 ADD PUSH1 0x0 SWAP2 POP SWAP1 POP SLOAD DUP2 JUMP JUMPDEST PUSH1 0x0 DUP1 PUSH1 0x0 DUP1 DUP5 DUP2 MSTORE PUSH1 0x20 ADD SWAP1 DUP2 MSTORE PUSH1 0x20 ADD PUSH1 0x0 KECCAK256 SWAP1 POP PUSH1 0x0 PUSH1 0x3 DUP2 GT ISZERO PUSH2 0x2A1 JUMPI PUSH2 0x2A0 PUSH2 0x18E8 JUMP JUMPDEST JUMPDEST DUP2 PUSH1 0x5 ADD PUSH1 0x0 SWAP1 SLOAD SWAP1 PUSH2 0x100 EXP SWAP1 DIV PUSH1 0xFF AND PUSH1 0x3 DUP2 GT ISZERO PUSH2 0x2C5 JUMPI PUSH2 0x2C4 PUSH2 0x18E8 JUMP JUMPDEST JUMPDEST EQ PUSH2 0x305 JUMPI PUSH1 0x40 MLOAD PUSH32 0x8C379A000000000000000000000000000000000000000000000000000000000 DUP2 MSTORE PUSH1 0x4 ADD PUSH2 0x2FC SWAP1 PUSH2 0x1E0A JUMP JUMPDEST PUSH1 0x40 MLOAD DUP1 SWAP2 SUB SWAP1 REVERT JUMPDEST CALLER PUSH20 0xFFFFFFFFFFFFFFFFFFFFFFFFFFFFFFFFFFFFFFFF AND DUP2 PUSH1 0x6 ADD PUSH1 0x0 SWAP1 SLOAD SWAP1 PUSH2 0x100 EXP SWAP1 DIV PUSH20 0xFFFFFFFFFFFFFFFFFFFFFFFFFFFFFFFFFFFFFFFF AND PUSH20 0xFFFFFFFFFFFFFFFFFFFFFFFFFFFFFFFFFFFFFFFF AND SUB PUSH2 0x397 JUMPI PUSH1 0x40 MLOAD PUSH32 0x8C379A000000000000000000000000000000000000000000000000000000000 DUP2 MSTORE PUSH1 0x4 ADD PUSH2 0x38E SWAP1 PUSH2 0x1E76 JUMP JUMPDEST PUSH1 0x40 MLOAD DUP1 SWAP2 SUB SWAP1 REVERT JUMPDEST CALLER DUP2 PUSH1 0x5 ADD PUSH1 0x1 PUSH2 0x100 EXP DUP2 SLOAD DUP2 PUSH20 0xFFFFFFFFFFFFFFFFFFFFFFFFFFFFFFFFFFFFFFFF MUL NOT AND SWAP1 DUP4 PUSH20 0xFFFFFFFFFFFFFFFFFFFFFFFFFFFFFFFFFFFFFFFF AND MUL OR SWAP1 SSTORE POP PUSH1 0x1 DUP2 PUSH1 0x5 ADD PUSH1 0x0 PUSH2 0x100 EXP DUP2 SLOAD DUP2 PUSH1 0xFF MUL NOT AND SWAP1 DUP4 PUSH1 0x3 DUP2 GT ISZERO PUSH2 0x402 JUMPI PUSH2 0x401 PUSH2 0x18E8 JUMP JUMPDEST JUMPDEST MUL OR SWAP1 SSTORE POP PUSH1 0x1 PUSH1 0x0 CALLER PUSH20 0xFFFFFFFFFFFFFFFFFFFFFFFFFFFFFFFFFFFFFFFF AND PUSH20 0xFFFFFFFFFFFFFFFFFFFFFFFFFFFFFFFFFFFFFFFF AND DUP2 MSTORE PUSH1 0x20 ADD SWAP1 DUP2 MSTORE PUSH1 0x20 ADD PUSH1 0x0 KECCAK256 DUP4 SWAP1 DUP1 PUSH1 0x1 DUP2 SLOAD ADD DUP1 DUP3 SSTORE DUP1 SWAP2 POP POP PUSH1 0x1 SWAP1 SUB SWAP1 PUSH1 0x0 MSTORE PUSH1 0x20 PUSH1 0x0 KECCAK256 ADD PUSH1 0x0 SWAP1 SWAP2 SWAP1 SWAP2 SWAP1 SWAP2 POP SSTORE PUSH32 0x52476D55ECEF5CF13CAA64038F297FE6BBF865D9584A98B8722A15A6D5DB128F DUP4 CALLER PUSH1 0x40 MLOAD PUSH2 0x49E SWAP3 SWAP2 SWAP1 PUSH2 0x1E96 JUMP JUMPDEST PUSH1 0x40 MLOAD DUP1 SWAP2 SUB SWAP1 LOG1 PUSH2 0x4E5 PUSH1 0x40 MLOAD DUP1 PUSH1 0x40 ADD PUSH1 0x40 MSTORE DUP1 PUSH1 0xF DUP2 MSTORE PUSH1 0x20 ADD PUSH32 0x5461736B2061737369676E65643A200000000000000000000000000000000000 DUP2 MSTORE POP DUP5 PUSH2 0x13F8 JUMP JUMPDEST PUSH1 0x1 SWAP2 POP POP SWAP2 SWAP1 POP JUMP JUMPDEST PUSH1 0x1 PUSH1 0x20 MSTORE DUP2 PUSH1 0x0 MSTORE PUSH1 0x40 PUSH1 0x0 KECCAK256 DUP2 DUP2 SLOAD DUP2 LT PUSH2 0x50B JUMPI PUSH1 0x0 DUP1 REVERT JUMPDEST SWAP1 PUSH1 0x0 MSTORE PUSH1 0x20 PUSH1 0x0 KECCAK256 ADD PUSH1 0x0 SWAP2 POP SWAP2 POP POP SLOAD DUP2 JUMP JUMPDEST PUSH1 0x60 PUSH1 0x0 PUSH1 0x2 DUP1 SLOAD SWAP1 POP SWAP1 POP PUSH1 0x0 DUP2 PUSH8 0xFFFFFFFFFFFFFFFF DUP2 GT ISZERO PUSH2 0x548 JUMPI PUSH2 0x547 PUSH2 0x1AE7 JUMP JUMPDEST JUMPDEST PUSH1 0x40 MLOAD SWAP1 DUP1 DUP3 MSTORE DUP1 PUSH1 0x20 MUL PUSH1 0x20 ADD DUP3 ADD PUSH1 0x40 MSTORE DUP1 ISZERO PUSH2 0x581 JUMPI DUP2 PUSH1 0x20 ADD JUMPDEST PUSH2 0x56E PUSH2 0x161B JUMP JUMPDEST DUP2 MSTORE PUSH1 0x20 ADD SWAP1 PUSH1 0x1 SWAP1 SUB SWAP1 DUP2 PUSH2 0x566 JUMPI SWAP1 POP JUMPDEST POP SWAP1 POP PUSH1 0x0 JUMPDEST DUP3 DUP2 LT ISZERO PUSH2 0x81F JUMPI PUSH1 0x0 DUP1 PUSH1 0x2 DUP4 DUP2 SLOAD DUP2 LT PUSH2 0x5A6 JUMPI PUSH2 0x5A5 PUSH2 0x1EBF JUMP JUMPDEST JUMPDEST SWAP1 PUSH1 0x0 MSTORE PUSH1 0x20 PUSH1 0x0 KECCAK256 ADD SLOAD DUP2 MSTORE PUSH1 0x20 ADD SWAP1 DUP2 MSTORE PUSH1 0x20 ADD PUSH1 0x0 KECCAK256 PUSH1 0x40 MLOAD DUP1 PUSH2 0x100 ADD PUSH1 0x40 MSTORE SWAP1 DUP2 PUSH1 0x0 DUP3 ADD SLOAD DUP2 MSTORE PUSH1 0x20 ADD PUSH1 0x1 DUP3 ADD DUP1 SLOAD PUSH2 0x5E5 SWAP1 PUSH2 0x1F1D JUMP JUMPDEST DUP1 PUSH1 0x1F ADD PUSH1 0x20 DUP1 SWAP2 DIV MUL PUSH1 0x20 ADD PUSH1 0x40 MLOAD SWAP1 DUP2 ADD PUSH1 0x40 MSTORE DUP1 SWAP3 SWAP2 SWAP1 DUP2 DUP2 MSTORE PUSH1 0x20 ADD DUP3 DUP1 SLOAD PUSH2 0x611 SWAP1 PUSH2 0x1F1D JUMP JUMPDEST DUP1 ISZERO PUSH2 0x65E JUMPI DUP1 PUSH1 0x1F LT PUSH2 0x633 JUMPI PUSH2 0x100 DUP1 DUP4 SLOAD DIV MUL DUP4 MSTORE SWAP2 PUSH1 0x20 ADD SWAP2 PUSH2 0x65E JUMP JUMPDEST DUP3 ADD SWAP2 SWAP1 PUSH1 0x0 MSTORE PUSH1 0x20 PUSH1 0x0 KECCAK256 SWAP1 JUMPDEST DUP2 SLOAD DUP2 MSTORE SWAP1 PUSH1 0x1 ADD SWAP1 PUSH1 0x20 ADD DUP1 DUP4 GT PUSH2 0x641 JUMPI DUP3 SWAP1 SUB PUSH1 0x1F AND DUP3 ADD SWAP2 JUMPDEST POP POP POP POP POP DUP2 MSTORE PUSH1 0x20 ADD PUSH1 0x2 DUP3 ADD DUP1 SLOAD PUSH2 0x677 SWAP1 PUSH2 0x1F1D JUMP JUMPDEST DUP1 PUSH1 0x1F ADD PUSH1 0x20 DUP1 SWAP2 DIV MUL PUSH1 0x20 ADD PUSH1 0x40 MLOAD SWAP1 DUP2 ADD PUSH1 0x40 MSTORE DUP1 SWAP3 SWAP2 SWAP1 DUP2 DUP2 MSTORE PUSH1 0x20 ADD DUP3 DUP1 SLOAD PUSH2 0x6A3 SWAP1 PUSH2 0x1F1D JUMP JUMPDEST DUP1 ISZERO PUSH2 0x6F0 JUMPI DUP1 PUSH1 0x1F LT PUSH2 0x6C5 JUMPI PUSH2 0x100 DUP1 DUP4 SLOAD DIV MUL DUP4 MSTORE SWAP2 PUSH1 0x20 ADD SWAP2 PUSH2 0x6F0 JUMP JUMPDEST DUP3 ADD SWAP2 SWAP1 PUSH1 0x0 MSTORE PUSH1 0x20 PUSH1 0x0 KECCAK256 SWAP1 JUMPDEST DUP2 SLOAD DUP2 MSTORE SWAP1 PUSH1 0x1 ADD SWAP1 PUSH1 0x20 ADD DUP1 DUP4 GT PUSH2 0x6D3 JUMPI DUP3 SWAP1 SUB PUSH1 0x1F AND DUP3 ADD SWAP2 JUMPDEST POP POP POP POP POP DUP2 MSTORE PUSH1 0x20 ADD PUSH1 0x3 DUP3 ADD SLOAD DUP2 MSTORE PUSH1 0x20 ADD PUSH1 0x4 DUP3 ADD SLOAD DUP2 MSTORE PUSH1 0x20 ADD PUSH1 0x5 DUP3 ADD PUSH1 0x0 SWAP1 SLOAD SWAP1 PUSH2 0x100 EXP SWAP1 DIV PUSH1 0xFF AND PUSH1 0x3 DUP2 GT ISZERO PUSH2 0x732 JUMPI PUSH2 0x731 PUSH2 0x18E8 JUMP JUMPDEST JUMPDEST PUSH1 0x3 DUP2 GT ISZERO PUSH2 0x744 JUMPI PUSH2 0x743 PUSH2 0x18E8 JUMP JUMPDEST JUMPDEST DUP2 MSTORE PUSH1 0x20 ADD PUSH1 0x5 DUP3 ADD PUSH1 0x1 SWAP1 SLOAD SWAP1 PUSH2 0x100 EXP SWAP1 DIV PUSH20 0xFFFFFFFFFFFFFFFFFFFFFFFFFFFFFFFFFFFFFFFF AND PUSH20 0xFFFFFFFFFFFFFFFFFFFFFFFFFFFFFFFFFFFFFFFF AND PUSH20 0xFFFFFFFFFFFFFFFFFFFFFFFFFFFFFFFFFFFFFFFF AND DUP2 MSTORE PUSH1 0x20 ADD PUSH1 0x6 DUP3 ADD PUSH1 0x0 SWAP1 SLOAD SWAP1 PUSH2 0x100 EXP SWAP1 DIV PUSH20 0xFFFFFFFFFFFFFFFFFFFFFFFFFFFFFFFFFFFFFFFF AND PUSH20 0xFFFFFFFFFFFFFFFFFFFFFFFFFFFFFFFFFFFFFFFF AND PUSH20 0xFFFFFFFFFFFFFFFFFFFFFFFFFFFFFFFFFFFFFFFF AND DUP2 MSTORE POP POP DUP3 DUP3 DUP2 MLOAD DUP2 LT PUSH2 0x807 JUMPI PUSH2 0x806 PUSH2 0x1EBF JUMP JUMPDEST JUMPDEST PUSH1 0x20 MUL PUSH1 0x20 ADD ADD DUP2 SWAP1 MSTORE POP DUP1 DUP1 PUSH1 0x1 ADD SWAP2 POP POP PUSH2 0x587 JUMP JUMPDEST POP PUSH2 0x85F PUSH1 0x40 MLOAD DUP1 PUSH1 0x40 ADD PUSH1 0x40 MSTORE DUP1 PUSH1 0x11 DUP2 MSTORE PUSH1 0x20 ADD PUSH32 0x5461736B73205265747269657665643A20000000000000000000000000000000 DUP2 MSTORE POP DUP4 PUSH2 0x13F8 JUMP JUMPDEST DUP1 SWAP3 POP POP POP SWAP1 JUMP JUMPDEST PUSH1 0x0 PUSH1 0x3 PUSH1 0x0 DUP2 SLOAD DUP1 SWAP3 SWAP2 SWAP1 PUSH2 0x87C SWAP1 PUSH2 0x1F7D JUMP JUMPDEST SWAP2 SWAP1 POP SSTORE SWAP1 POP PUSH1 0x40 MLOAD DUP1 PUSH2 0x100 ADD PUSH1 0x40 MSTORE DUP1 DUP3 DUP2 MSTORE PUSH1 0x20 ADD DUP6 DUP2 MSTORE PUSH1 0x20 ADD DUP5 DUP2 MSTORE PUSH1 0x20 ADD TIMESTAMP DUP2 MSTORE PUSH1 0x20 ADD DUP4 DUP2 MSTORE PUSH1 0x20 ADD PUSH1 0x0 PUSH1 0x3 DUP2 GT ISZERO PUSH2 0x8C0 JUMPI PUSH2 0x8BF PUSH2 0x18E8 JUMP JUMPDEST JUMPDEST DUP2 MSTORE PUSH1 0x20 ADD PUSH1 0x0 PUSH20 0xFFFFFFFFFFFFFFFFFFFFFFFFFFFFFFFFFFFFFFFF AND DUP2 MSTORE PUSH1 0x20 ADD CALLER PUSH20 0xFFFFFFFFFFFFFFFFFFFFFFFFFFFFFFFFFFFFFFFF AND DUP2 MSTORE POP PUSH1 0x0 DUP1 DUP4 DUP2 MSTORE PUSH1 0x20 ADD SWAP1 DUP2 MSTORE PUSH1 0x20 ADD PUSH1 0x0 KECCAK256 PUSH1 0x0 DUP3 ADD MLOAD DUP2 PUSH1 0x0 ADD SSTORE PUSH1 0x20 DUP3 ADD MLOAD DUP2 PUSH1 0x1 ADD SWAP1 DUP2 PUSH2 0x92D SWAP2 SWAP1 PUSH2 0x2171 JUMP JUMPDEST POP PUSH1 0x40 DUP3 ADD MLOAD DUP2 PUSH1 0x2 ADD SWAP1 DUP2 PUSH2 0x943 SWAP2 SWAP1 PUSH2 0x2171 JUMP JUMPDEST POP PUSH1 0x60 DUP3 ADD MLOAD DUP2 PUSH1 0x3 ADD SSTORE PUSH1 0x80 DUP3 ADD MLOAD DUP2 PUSH1 0x4 ADD SSTORE PUSH1 0xA0 DUP3 ADD MLOAD DUP2 PUSH1 0x5 ADD PUSH1 0x0 PUSH2 0x100 EXP DUP2 SLOAD DUP2 PUSH1 0xFF MUL NOT AND SWAP1 DUP4 PUSH1 0x3 DUP2 GT ISZERO PUSH2 0x983 JUMPI PUSH2 0x982 PUSH2 0x18E8 JUMP JUMPDEST JUMPDEST MUL OR SWAP1 SSTORE POP PUSH1 0xC0 DUP3 ADD MLOAD DUP2 PUSH1 0x5 ADD PUSH1 0x1 PUSH2 0x100 EXP DUP2 SLOAD DUP2 PUSH20 0xFFFFFFFFFFFFFFFFFFFFFFFFFFFFFFFFFFFFFFFF MUL NOT AND SWAP1 DUP4 PUSH20 0xFFFFFFFFFFFFFFFFFFFFFFFFFFFFFFFFFFFFFFFF AND MUL OR SWAP1 SSTORE POP PUSH1 0xE0 DUP3 ADD MLOAD DUP2 PUSH1 0x6 ADD PUSH1 0x0 PUSH2 0x100 EXP DUP2 SLOAD DUP2 PUSH20 0xFFFFFFFFFFFFFFFFFFFFFFFFFFFFFFFFFFFFFFFF MUL NOT AND SWAP1 DUP4 PUSH20 0xFFFFFFFFFFFFFFFFFFFFFFFFFFFFFFFFFFFFFFFF AND MUL OR SWAP1 SSTORE POP SWAP1 POP POP PUSH1 0x2 DUP2 SWAP1 DUP1 PUSH1 0x1 DUP2 SLOAD ADD DUP1 DUP3 SSTORE DUP1 SWAP2 POP POP PUSH1 0x1 SWAP1 SUB SWAP1 PUSH1 0x0 MSTORE PUSH1 0x20 PUSH1 0x0 KECCAK256 ADD PUSH1 0x0 SWAP1 SWAP2 SWAP1 SWAP2 SWAP1 SWAP2 POP SSTORE PUSH32 0x29C8F9924C46286774869AC7896E10BCAED1AAEDFEEA403B45BDF64CDD3F45BA DUP2 DUP6 DUP5 CALLER PUSH1 0x40 MLOAD PUSH2 0xA77 SWAP5 SWAP4 SWAP3 SWAP2 SWAP1 PUSH2 0x2243 JUMP JUMPDEST PUSH1 0x40 MLOAD DUP1 SWAP2 SUB SWAP1 LOG1 PUSH2 0xAC0 PUSH1 0x40 MLOAD DUP1 PUSH1 0x40 ADD PUSH1 0x40 MSTORE DUP1 PUSH1 0x10 DUP2 MSTORE PUSH1 0x20 ADD PUSH32 0x4E6577205461736B2041646465643A2000000000000000000000000000000000 DUP2 MSTORE POP DUP3 DUP7 CALLER PUSH2 0x1494 JUMP JUMPDEST POP POP POP POP JUMP JUMPDEST PUSH1 0x0 DUP2 CALLER PUSH20 0xFFFFFFFFFFFFFFFFFFFFFFFFFFFFFFFFFFFFFFFF AND PUSH1 0x0 DUP1 DUP4 DUP2 MSTORE PUSH1 0x20 ADD SWAP1 DUP2 MSTORE PUSH1 0x20 ADD PUSH1 0x0 KECCAK256 PUSH1 0x6 ADD PUSH1 0x0 SWAP1 SLOAD SWAP1 PUSH2 0x100 EXP SWAP1 DIV PUSH20 0xFFFFFFFFFFFFFFFFFFFFFFFFFFFFFFFFFFFFFFFF AND PUSH20 0xFFFFFFFFFFFFFFFFFFFFFFFFFFFFFFFFFFFFFFFF AND EQ PUSH2 0xB6C JUMPI PUSH1 0x40 MLOAD PUSH32 0x8C379A000000000000000000000000000000000000000000000000000000000 DUP2 MSTORE PUSH1 0x4 ADD PUSH2 0xB63 SWAP1 PUSH2 0x22DB JUMP JUMPDEST PUSH1 0x40 MLOAD DUP1 SWAP2 SUB SWAP1 REVERT JUMPDEST PUSH1 0x0 DUP1 PUSH1 0x0 DUP6 DUP2 MSTORE PUSH1 0x20 ADD SWAP1 DUP2 MSTORE PUSH1 0x20 ADD PUSH1 0x0 KECCAK256 SWAP1 POP PUSH1 0x0 PUSH1 0x3 DUP2 GT ISZERO PUSH2 0xB96 JUMPI PUSH2 0xB95 PUSH2 0x18E8 JUMP JUMPDEST JUMPDEST DUP2 PUSH1 0x5 ADD PUSH1 0x0 SWAP1 SLOAD SWAP1 PUSH2 0x100 EXP SWAP1 DIV PUSH1 0xFF AND PUSH1 0x3 DUP2 GT ISZERO PUSH2 0xBBA JUMPI PUSH2 0xBB9 PUSH2 0x18E8 JUMP JUMPDEST JUMPDEST EQ PUSH2 0xBFA JUMPI PUSH1 0x40 MLOAD PUSH32 0x8C379A000000000000000000000000000000000000000000000000000000000 DUP2 MSTORE PUSH1 0x4 ADD PUSH2 0xBF1 SWAP1 PUSH2 0x2347 JUMP JUMPDEST PUSH1 0x40 MLOAD DUP1 SWAP2 SUB SWAP1 REVERT JUMPDEST PUSH1 0x0 PUSH1 0x3 DUP2 GT ISZERO PUSH2 0xC0E JUMPI PUSH2 0xC0D PUSH2 0x18E8 JUMP JUMPDEST JUMPDEST DUP2 PUSH1 0x5 ADD PUSH1 0x0 SWAP1 SLOAD SWAP1 PUSH2 0x100 EXP SWAP1 DIV PUSH1 0xFF AND PUSH1 0x3 DUP2 GT ISZERO PUSH2 0xC32 JUMPI PUSH2 0xC31 PUSH2 0x18E8 JUMP JUMPDEST JUMPDEST SUB PUSH2 0xCE4 JUMPI PUSH1 0x3 DUP2 PUSH1 0x5 ADD PUSH1 0x0 PUSH2 0x100 EXP DUP2 SLOAD DUP2 PUSH1 0xFF MUL NOT AND SWAP1 DUP4 PUSH1 0x3 DUP2 GT ISZERO PUSH2 0xC5F JUMPI PUSH2 0xC5E PUSH2 0x18E8 JUMP JUMPDEST JUMPDEST MUL OR SWAP1 SSTORE POP PUSH32 0xC6EACC3AA5B2AA77B5A826B832A804CA0B71830EC74F9AA57A15EDD978C31ED6 DUP5 PUSH1 0x40 MLOAD PUSH2 0xC93 SWAP2 SWAP1 PUSH2 0x172E JUMP JUMPDEST PUSH1 0x40 MLOAD DUP1 SWAP2 SUB SWAP1 LOG1 PUSH2 0xCDA PUSH1 0x40 MLOAD DUP1 PUSH1 0x40 ADD PUSH1 0x40 MSTORE DUP1 PUSH1 0x10 DUP2 MSTORE PUSH1 0x20 ADD PUSH32 0x5461736B2063616E63656C6C65643A2000000000000000000000000000000000 DUP2 MSTORE POP DUP6 PUSH2 0x13F8 JUMP JUMPDEST PUSH1 0x1 SWAP3 POP POP PUSH2 0xCEA JUMP JUMPDEST PUSH1 0x0 SWAP3 POP POP JUMPDEST POP SWAP2 SWAP1 POP JUMP JUMPDEST PUSH1 0x0 PUSH1 0x20 MSTORE DUP1 PUSH1 0x0 MSTORE PUSH1 0x40 PUSH1 0x0 KECCAK256 PUSH1 0x0 SWAP2 POP SWAP1 POP DUP1 PUSH1 0x0 ADD SLOAD SWAP1 DUP1 PUSH1 0x1 ADD DUP1 SLOAD PUSH2 0xD19 SWAP1 PUSH2 0x1F1D JUMP JUMPDEST DUP1 PUSH1 0x1F ADD PUSH1 0x20 DUP1 SWAP2 DIV MUL PUSH1 0x20 ADD PUSH1 0x40 MLOAD SWAP1 DUP2 ADD PUSH1 0x40 MSTORE DUP1 SWAP3 SWAP2 SWAP1 DUP2 DUP2 MSTORE PUSH1 0x20 ADD DUP3 DUP1 SLOAD PUSH2 0xD45 SWAP1 PUSH2 0x1F1D JUMP JUMPDEST DUP1 ISZERO PUSH2 0xD92 JUMPI DUP1 PUSH1 0x1F LT PUSH2 0xD67 JUMPI PUSH2 0x100 DUP1 DUP4 SLOAD DIV MUL DUP4 MSTORE SWAP2 PUSH1 0x20 ADD SWAP2 PUSH2 0xD92 JUMP JUMPDEST DUP3 ADD SWAP2 SWAP1 PUSH1 0x0 MSTORE PUSH1 0x20 PUSH1 0x0 KECCAK256 SWAP1 JUMPDEST DUP2 SLOAD DUP2 MSTORE SWAP1 PUSH1 0x1 ADD SWAP1 PUSH1 0x20 ADD DUP1 DUP4 GT PUSH2 0xD75 JUMPI DUP3 SWAP1 SUB PUSH1 0x1F AND DUP3 ADD SWAP2 JUMPDEST POP POP POP POP POP SWAP1 DUP1 PUSH1 0x2 ADD DUP1 SLOAD PUSH2 0xDA7 SWAP1 PUSH2 0x1F1D JUMP JUMPDEST DUP1 PUSH1 0x1F ADD PUSH1 0x20 DUP1 SWAP2 DIV MUL PUSH1 0x20 ADD PUSH1 0x40 MLOAD SWAP1 DUP2 ADD PUSH1 0x40 MSTORE DUP1 SWAP3 SWAP2 SWAP1 DUP2 DUP2 MSTORE PUSH1 0x20 ADD DUP3 DUP1 SLOAD PUSH2 0xDD3 SWAP1 PUSH2 0x1F1D JUMP JUMPDEST DUP1 ISZERO PUSH2 0xE20 JUMPI DUP1 PUSH1 0x1F LT PUSH2 0xDF5 JUMPI PUSH2 0x100 DUP1 DUP4 SLOAD DIV MUL DUP4 MSTORE SWAP2 PUSH1 0x20 ADD SWAP2 PUSH2 0xE20 JUMP JUMPDEST DUP3 ADD SWAP2 SWAP1 PUSH1 0x0 MSTORE PUSH1 0x20 PUSH1 0x0 KECCAK256 SWAP1 JUMPDEST DUP2 SLOAD DUP2 MSTORE SWAP1 PUSH1 0x1 ADD SWAP1 PUSH1 0x20 ADD DUP1 DUP4 GT PUSH2 0xE03 JUMPI DUP3 SWAP1 SUB PUSH1 0x1F AND DUP3 ADD SWAP2 JUMPDEST POP POP POP POP POP SWAP1 DUP1 PUSH1 0x3 ADD SLOAD SWAP1 DUP1 PUSH1 0x4 ADD SLOAD SWAP1 DUP1 PUSH1 0x5 ADD PUSH1 0x0 SWAP1 SLOAD SWAP1 PUSH2 0x100 EXP SWAP1 DIV PUSH1 0xFF AND SWAP1 DUP1 PUSH1 0x5 ADD PUSH1 0x1 SWAP1 SLOAD SWAP1 PUSH2 0x100 EXP SWAP1 DIV PUSH20 0xFFFFFFFFFFFFFFFFFFFFFFFFFFFFFFFFFFFFFFFF AND SWAP1 DUP1 PUSH1 0x6 ADD PUSH1 0x0 SWAP1 SLOAD SWAP1 PUSH2 0x100 EXP SWAP1 DIV PUSH20 0xFFFFFFFFFFFFFFFFFFFFFFFFFFFFFFFFFFFFFFFF AND SWAP1 POP DUP9 JUMP JUMPDEST PUSH1 0x60 PUSH1 0x0 PUSH1 0x1 PUSH1 0x0 DUP5 PUSH20 0xFFFFFFFFFFFFFFFFFFFFFFFFFFFFFFFFFFFFFFFF AND PUSH20 0xFFFFFFFFFFFFFFFFFFFFFFFFFFFFFFFFFFFFFFFF AND DUP2 MSTORE PUSH1 0x20 ADD SWAP1 DUP2 MSTORE PUSH1 0x20 ADD PUSH1 0x0 KECCAK256 DUP1 SLOAD DUP1 PUSH1 0x20 MUL PUSH1 0x20 ADD PUSH1 0x40 MLOAD SWAP1 DUP2 ADD PUSH1 0x40 MSTORE DUP1 SWAP3 SWAP2 SWAP1 DUP2 DUP2 MSTORE PUSH1 0x20 ADD DUP3 DUP1 SLOAD DUP1 ISZERO PUSH2 0xF22 JUMPI PUSH1 0x20 MUL DUP3 ADD SWAP2 SWAP1 PUSH1 0x0 MSTORE PUSH1 0x20 PUSH1 0x0 KECCAK256 SWAP1 JUMPDEST DUP2 SLOAD DUP2 MSTORE PUSH1 0x20 ADD SWAP1 PUSH1 0x1 ADD SWAP1 DUP1 DUP4 GT PUSH2 0xF0E JUMPI JUMPDEST POP POP POP POP POP SWAP1 POP PUSH1 0x0 DUP2 MLOAD PUSH8 0xFFFFFFFFFFFFFFFF DUP2 GT ISZERO PUSH2 0xF46 JUMPI PUSH2 0xF45 PUSH2 0x1AE7 JUMP JUMPDEST JUMPDEST PUSH1 0x40 MLOAD SWAP1 DUP1 DUP3 MSTORE DUP1 PUSH1 0x20 MUL PUSH1 0x20 ADD DUP3 ADD PUSH1 0x40 MSTORE DUP1 ISZERO PUSH2 0xF7F JUMPI DUP2 PUSH1 0x20 ADD JUMPDEST PUSH2 0xF6C PUSH2 0x161B JUMP JUMPDEST DUP2 MSTORE PUSH1 0x20 ADD SWAP1 PUSH1 0x1 SWAP1 SUB SWAP1 DUP2 PUSH2 0xF64 JUMPI SWAP1 POP JUMPDEST POP SWAP1 POP PUSH1 0x0 JUMPDEST DUP3 MLOAD DUP2 LT ISZERO PUSH2 0x121A JUMPI PUSH1 0x0 DUP1 DUP5 DUP4 DUP2 MLOAD DUP2 LT PUSH2 0xFA4 JUMPI PUSH2 0xFA3 PUSH2 0x1EBF JUMP JUMPDEST JUMPDEST PUSH1 0x20 MUL PUSH1 0x20 ADD ADD MLOAD DUP2 MSTORE PUSH1 0x20 ADD SWAP1 DUP2 MSTORE PUSH1 0x20 ADD PUSH1 0x0 KECCAK256 PUSH1 0x40 MLOAD DUP1 PUSH2 0x100 ADD PUSH1 0x40 MSTORE SWAP1 DUP2 PUSH1 0x0 DUP3 ADD SLOAD DUP2 MSTORE PUSH1 0x20 ADD PUSH1 0x1 DUP3 ADD DUP1 SLOAD PUSH2 0xFE0 SWAP1 PUSH2 0x1F1D JUMP JUMPDEST DUP1 PUSH1 0x1F ADD PUSH1 0x20 DUP1 SWAP2 DIV MUL PUSH1 0x20 ADD PUSH1 0x40 MLOAD SWAP1 DUP2 ADD PUSH1 0x40 MSTORE DUP1 SWAP3 SWAP2 SWAP1 DUP2 DUP2 MSTORE PUSH1 0x20 ADD DUP3 DUP1 SLOAD PUSH2 0x100C SWAP1 PUSH2 0x1F1D JUMP JUMPDEST DUP1 ISZERO PUSH2 0x1059 JUMPI DUP1 PUSH1 0x1F LT PUSH2 0x102E JUMPI PUSH2 0x100 DUP1 DUP4 SLOAD DIV MUL DUP4 MSTORE SWAP2 PUSH1 0x20 ADD SWAP2 PUSH2 0x1059 JUMP JUMPDEST DUP3 ADD SWAP2 SWAP1 PUSH1 0x0 MSTORE PUSH1 0x20 PUSH1 0x0 KECCAK256 SWAP1 JUMPDEST DUP2 SLOAD DUP2 MSTORE SWAP1 PUSH1 0x1 ADD SWAP1 PUSH1 0x20 ADD DUP1 DUP4 GT PUSH2 0x103C JUMPI DUP3 SWAP1 SUB PUSH1 0x1F AND DUP3 ADD SWAP2 JUMPDEST POP POP POP POP POP DUP2 MSTORE PUSH1 0x20 ADD PUSH1 0x2 DUP3 ADD DUP1 SLOAD PUSH2 0x1072 SWAP1 PUSH2 0x1F1D JUMP JUMPDEST DUP1 PUSH1 0x1F ADD PUSH1 0x20 DUP1 SWAP2 DIV MUL PUSH1 0x20 ADD PUSH1 0x40 MLOAD SWAP1 DUP2 ADD PUSH1 0x40 MSTORE DUP1 SWAP3 SWAP2 SWAP1 DUP2 DUP2 MSTORE PUSH1 0x20 ADD DUP3 DUP1 SLOAD PUSH2 0x109E SWAP1 PUSH2 0x1F1D JUMP JUMPDEST DUP1 ISZERO PUSH2 0x10EB JUMPI DUP1 PUSH1 0x1F LT PUSH2 0x10C0 JUMPI PUSH2 0x100 DUP1 DUP4 SLOAD DIV MUL DUP4 MSTORE SWAP2 PUSH1 0x20 ADD SWAP2 PUSH2 0x10EB JUMP JUMPDEST DUP3 ADD SWAP2 SWAP1 PUSH1 0x0 MSTORE PUSH1 0x20 PUSH1 0x0 KECCAK256 SWAP1 JUMPDEST DUP2 SLOAD DUP2 MSTORE SWAP1 PUSH1 0x1 ADD SWAP1 PUSH1 0x20 ADD DUP1 DUP4 GT PUSH2 0x10CE JUMPI DUP3 SWAP1 SUB PUSH1 0x1F AND DUP3 ADD SWAP2 JUMPDEST POP POP POP POP POP DUP2 MSTORE PUSH1 0x20 ADD PUSH1 0x3 DUP3 ADD SLOAD DUP2 MSTORE PUSH1 0x20 ADD PUSH1 0x4 DUP3 ADD SLOAD DUP2 MSTORE PUSH1 0x20 ADD PUSH1 0x5 DUP3 ADD PUSH1 0x0 SWAP1 SLOAD SWAP1 PUSH2 0x100 EXP SWAP1 DIV PUSH1 0xFF AND PUSH1 0x3 DUP2 GT ISZERO PUSH2 0x112D JUMPI PUSH2 0x112C PUSH2 0x18E8 JUMP JUMPDEST JUMPDEST PUSH1 0x3 DUP2 GT ISZERO PUSH2 0x113F JUMPI PUSH2 0x113E PUSH2 0x18E8 JUMP JUMPDEST JUMPDEST DUP2 MSTORE PUSH1 0x20 ADD PUSH1 0x5 DUP3 ADD PUSH1 0x1 SWAP1 SLOAD SWAP1 PUSH2 0x100 EXP SWAP1 DIV PUSH20 0xFFFFFFFFFFFFFFFFFFFFFFFFFFFFFFFFFFFFFFFF AND PUSH20 0xFFFFFFFFFFFFFFFFFFFFFFFFFFFFFFFFFFFFFFFF AND PUSH20 0xFFFFFFFFFFFFFFFFFFFFFFFFFFFFFFFFFFFFFFFF AND DUP2 MSTORE PUSH1 0x20 ADD PUSH1 0x6 DUP3 ADD PUSH1 0x0 SWAP1 SLOAD SWAP1 PUSH2 0x100 EXP SWAP1 DIV PUSH20 0xFFFFFFFFFFFFFFFFFFFFFFFFFFFFFFFFFFFFFFFF AND PUSH20 0xFFFFFFFFFFFFFFFFFFFFFFFFFFFFFFFFFFFFFFFF AND PUSH20 0xFFFFFFFFFFFFFFFFFFFFFFFFFFFFFFFFFFFFFFFF AND DUP2 MSTORE POP POP DUP3 DUP3 DUP2 MLOAD DUP2 LT PUSH2 0x1202 JUMPI PUSH2 0x1201 PUSH2 0x1EBF JUMP JUMPDEST JUMPDEST PUSH1 0x20 MUL PUSH1 0x20 ADD ADD DUP2 SWAP1 MSTORE POP DUP1 DUP1 PUSH1 0x1 ADD SWAP2 POP POP PUSH2 0xF85 JUMP JUMPDEST POP PUSH2 0x125B PUSH1 0x40 MLOAD DUP1 PUSH1 0x40 ADD PUSH1 0x40 MSTORE DUP1 PUSH1 0x11 DUP2 MSTORE PUSH1 0x20 ADD PUSH32 0x5461736B73205265747269657665643A20000000000000000000000000000000 DUP2 MSTORE POP DUP4 MLOAD PUSH2 0x13F8 JUMP JUMPDEST DUP1 SWAP3 POP POP POP SWAP2 SWAP1 POP JUMP JUMPDEST PUSH1 0x3 SLOAD DUP2 JUMP JUMPDEST PUSH1 0x0 DUP1 PUSH1 0x0 DUP1 DUP5 DUP2 MSTORE PUSH1 0x20 ADD SWAP1 DUP2 MSTORE PUSH1 0x20 ADD PUSH1 0x0 KECCAK256 SWAP1 POP CALLER PUSH20 0xFFFFFFFFFFFFFFFFFFFFFFFFFFFFFFFFFFFFFFFF AND DUP2 PUSH1 0x5 ADD PUSH1 0x1 SWAP1 SLOAD SWAP1 PUSH2 0x100 EXP SWAP1 DIV PUSH20 0xFFFFFFFFFFFFFFFFFFFFFFFFFFFFFFFFFFFFFFFF AND PUSH20 0xFFFFFFFFFFFFFFFFFFFFFFFFFFFFFFFFFFFFFFFF AND EQ DUP1 ISZERO PUSH2 0x1316 JUMPI POP PUSH1 0x1 PUSH1 0x3 DUP2 GT ISZERO PUSH2 0x12F0 JUMPI PUSH2 0x12EF PUSH2 0x18E8 JUMP JUMPDEST JUMPDEST DUP2 PUSH1 0x5 ADD PUSH1 0x0 SWAP1 SLOAD SWAP1 PUSH2 0x100 EXP SWAP1 DIV PUSH1 0xFF AND PUSH1 0x3 DUP2 GT ISZERO PUSH2 0x1314 JUMPI PUSH2 0x1313 PUSH2 0x18E8 JUMP JUMPDEST JUMPDEST EQ JUMPDEST ISZERO PUSH2 0x13ED JUMPI PUSH1 0x2 DUP2 PUSH1 0x5 ADD PUSH1 0x0 PUSH2 0x100 EXP DUP2 SLOAD DUP2 PUSH1 0xFF MUL NOT AND SWAP1 DUP4 PUSH1 0x3 DUP2 GT ISZERO PUSH2 0x1343 JUMPI PUSH2 0x1342 PUSH2 0x18E8 JUMP JUMPDEST JUMPDEST MUL OR SWAP1 SSTORE POP PUSH32 0xC1FA7142CFB933D0855114A3BFFDE296944C30B727F297C14D0DB4D553D3A5C7 DUP4 PUSH1 0x40 MLOAD PUSH2 0x1377 SWAP2 SWAP1 PUSH2 0x172E JUMP JUMPDEST PUSH1 0x40 MLOAD DUP1 SWAP2 SUB SWAP1 LOG1 PUSH2 0x13E3 PUSH1 0x40 MLOAD DUP1 PUSH1 0x40 ADD PUSH1 0x40 MSTORE DUP1 PUSH1 0x10 DUP2 MSTORE PUSH1 0x20 ADD PUSH32 0x5461736B20636F6D706C657465643A2000000000000000000000000000000000 DUP2 MSTORE POP DUP5 DUP4 PUSH1 0x5 ADD PUSH1 0x1 SWAP1 SLOAD SWAP1 PUSH2 0x100 EXP SWAP1 DIV PUSH20 0xFFFFFFFFFFFFFFFFFFFFFFFFFFFFFFFFFFFFFFFF AND PUSH2 0x1536 JUMP JUMPDEST PUSH1 0x1 SWAP2 POP POP PUSH2 0x13F3 JUMP JUMPDEST PUSH1 0x0 SWAP2 POP POP JUMPDEST SWAP2 SWAP1 POP JUMP JUMPDEST PUSH2 0x1490 DUP3 DUP3 PUSH1 0x40 MLOAD PUSH1 0x24 ADD PUSH2 0x140E SWAP3 SWAP2 SWAP1 PUSH2 0x2367 JUMP JUMPDEST PUSH1 0x40 MLOAD PUSH1 0x20 DUP2 DUP4 SUB SUB DUP2 MSTORE SWAP1 PUSH1 0x40 MSTORE PUSH32 0xB60E72CC00000000000000000000000000000000000000000000000000000000 PUSH28 0xFFFFFFFFFFFFFFFFFFFFFFFFFFFFFFFFFFFFFFFFFFFFFFFFFFFFFFFF NOT AND PUSH1 0x20 DUP3 ADD DUP1 MLOAD PUSH28 0xFFFFFFFFFFFFFFFFFFFFFFFFFFFFFFFFFFFFFFFFFFFFFFFFFFFFFFFF DUP4 DUP2 DUP4 AND OR DUP4 MSTORE POP POP POP POP PUSH2 0x15D5 JUMP JUMPDEST POP POP JUMP JUMPDEST PUSH2 0x1530 DUP5 DUP5 DUP5 DUP5 PUSH1 0x40 MLOAD PUSH1 0x24 ADD PUSH2 0x14AE SWAP5 SWAP4 SWAP3 SWAP2 SWAP1 PUSH2 0x2397 JUMP JUMPDEST PUSH1 0x40 MLOAD PUSH1 0x20 DUP2 DUP4 SUB SUB DUP2 MSTORE SWAP1 PUSH1 0x40 MSTORE PUSH32 0x7C4632A400000000000000000000000000000000000000000000000000000000 PUSH28 0xFFFFFFFFFFFFFFFFFFFFFFFFFFFFFFFFFFFFFFFFFFFFFFFFFFFFFFFF NOT AND PUSH1 0x20 DUP3 ADD DUP1 MLOAD PUSH28 0xFFFFFFFFFFFFFFFFFFFFFFFFFFFFFFFFFFFFFFFFFFFFFFFFFFFFFFFF DUP4 DUP2 DUP4 AND OR DUP4 MSTORE POP POP POP POP PUSH2 0x15D5 JUMP JUMPDEST POP POP POP POP JUMP JUMPDEST PUSH2 0x15D0 DUP4 DUP4 DUP4 PUSH1 0x40 MLOAD PUSH1 0x24 ADD PUSH2 0x154E SWAP4 SWAP3 SWAP2 SWAP1 PUSH2 0x23EA JUMP JUMPDEST PUSH1 0x40 MLOAD PUSH1 0x20 DUP2 DUP4 SUB SUB DUP2 MSTORE SWAP1 PUSH1 0x40 MSTORE PUSH32 0x1C7EC44800000000000000000000000000000000000000000000000000000000 PUSH28 0xFFFFFFFFFFFFFFFFFFFFFFFFFFFFFFFFFFFFFFFFFFFFFFFFFFFFFFFF NOT AND PUSH1 0x20 DUP3 ADD DUP1 MLOAD PUSH28 0xFFFFFFFFFFFFFFFFFFFFFFFFFFFFFFFFFFFFFFFFFFFFFFFFFFFFFFFF DUP4 DUP2 DUP4 AND OR DUP4 MSTORE POP POP POP POP PUSH2 0x15D5 JUMP JUMPDEST POP POP POP JUMP JUMPDEST PUSH2 0x15EC DUP2 PUSH2 0x15E4 PUSH2 0x15EF PUSH2 0x1610 JUMP JUMPDEST PUSH4 0xFFFFFFFF AND JUMP JUMPDEST POP JUMP JUMPDEST PUSH1 0x0 PUSH11 0x636F6E736F6C652E6C6F67 SWAP1 POP PUSH1 0x0 DUP1 DUP4 MLOAD PUSH1 0x20 DUP6 ADD DUP5 GAS STATICCALL POP POP POP JUMP JUMPDEST PUSH2 0x169E DUP2 SWAP1 POP SWAP2 SWAP1 POP JUMP JUMPDEST PUSH1 0x40 MLOAD DUP1 PUSH2 0x100 ADD PUSH1 0x40 MSTORE DUP1 PUSH1 0x0 DUP2 MSTORE PUSH1 0x20 ADD PUSH1 0x60 DUP2 MSTORE PUSH1 0x20 ADD PUSH1 0x60 DUP2 MSTORE PUSH1 0x20 ADD PUSH1 0x0 DUP2 MSTORE PUSH1 0x20 ADD PUSH1 0x0 DUP2 MSTORE PUSH1 0x20 ADD PUSH1 0x0 PUSH1 0x3 DUP2 GT ISZERO PUSH2 0x165E JUMPI PUSH2 0x165D PUSH2 0x18E8 JUMP JUMPDEST JUMPDEST DUP2 MSTORE PUSH1 0x20 ADD PUSH1 0x0 PUSH20 0xFFFFFFFFFFFFFFFFFFFFFFFFFFFFFFFFFFFFFFFF AND DUP2 MSTORE PUSH1 0x20 ADD PUSH1 0x0 PUSH20 0xFFFFFFFFFFFFFFFFFFFFFFFFFFFFFFFFFFFFFFFF AND DUP2 MSTORE POP SWAP1 JUMP JUMPDEST PUSH2 0x16A6 PUSH2 0x2428 JUMP JUMPDEST JUMP JUMPDEST PUSH1 0x0 PUSH1 0x40 MLOAD SWAP1 POP SWAP1 JUMP JUMPDEST PUSH1 0x0 DUP1 REVERT JUMPDEST PUSH1 0x0 DUP1 REVERT JUMPDEST PUSH1 0x0 DUP2 SWAP1 POP SWAP2 SWAP1 POP JUMP JUMPDEST PUSH2 0x16CF DUP2 PUSH2 0x16BC JUMP JUMPDEST DUP2 EQ PUSH2 0x16DA JUMPI PUSH1 0x0 DUP1 REVERT JUMPDEST POP JUMP JUMPDEST PUSH1 0x0 DUP2 CALLDATALOAD SWAP1 POP PUSH2 0x16EC DUP2 PUSH2 0x16C6 JUMP JUMPDEST SWAP3 SWAP2 POP POP JUMP JUMPDEST PUSH1 0x0 PUSH1 0x20 DUP3 DUP5 SUB SLT ISZERO PUSH2 0x1708 JUMPI PUSH2 0x1707 PUSH2 0x16B2 JUMP JUMPDEST JUMPDEST PUSH1 0x0 PUSH2 0x1716 DUP5 DUP3 DUP6 ADD PUSH2 0x16DD JUMP JUMPDEST SWAP2 POP POP SWAP3 SWAP2 POP POP JUMP JUMPDEST PUSH2 0x1728 DUP2 PUSH2 0x16BC JUMP JUMPDEST DUP3 MSTORE POP POP JUMP JUMPDEST PUSH1 0x0 PUSH1 0x20 DUP3 ADD SWAP1 POP PUSH2 0x1743 PUSH1 0x0 DUP4 ADD DUP5 PUSH2 0x171F JUMP JUMPDEST SWAP3 SWAP2 POP POP JUMP JUMPDEST PUSH1 0x0 DUP2 ISZERO ISZERO SWAP1 POP SWAP2 SWAP1 POP JUMP JUMPDEST PUSH2 0x175E DUP2 PUSH2 0x1749 JUMP JUMPDEST DUP3 MSTORE POP POP JUMP JUMPDEST PUSH1 0x0 PUSH1 0x20 DUP3 ADD SWAP1 POP PUSH2 0x1779 PUSH1 0x0 DUP4 ADD DUP5 PUSH2 0x1755 JUMP JUMPDEST SWAP3 SWAP2 POP POP JUMP JUMPDEST PUSH1 0x0 PUSH20 0xFFFFFFFFFFFFFFFFFFFFFFFFFFFFFFFFFFFFFFFF DUP3 AND SWAP1 POP SWAP2 SWAP1 POP JUMP JUMPDEST PUSH1 0x0 PUSH2 0x17AA DUP3 PUSH2 0x177F JUMP JUMPDEST SWAP1 POP SWAP2 SWAP1 POP JUMP JUMPDEST PUSH2 0x17BA DUP2 PUSH2 0x179F JUMP JUMPDEST DUP2 EQ PUSH2 0x17C5 JUMPI PUSH1 0x0 DUP1 REVERT JUMPDEST POP JUMP JUMPDEST PUSH1 0x0 DUP2 CALLDATALOAD SWAP1 POP PUSH2 0x17D7 DUP2 PUSH2 0x17B1 JUMP JUMPDEST SWAP3 SWAP2 POP POP JUMP JUMPDEST PUSH1 0x0 DUP1 PUSH1 0x40 DUP4 DUP6 SUB SLT ISZERO PUSH2 0x17F4 JUMPI PUSH2 0x17F3 PUSH2 0x16B2 JUMP JUMPDEST JUMPDEST PUSH1 0x0 PUSH2 0x1802 DUP6 DUP3 DUP7 ADD PUSH2 0x17C8 JUMP JUMPDEST SWAP3 POP POP PUSH1 0x20 PUSH2 0x1813 DUP6 DUP3 DUP7 ADD PUSH2 0x16DD JUMP JUMPDEST SWAP2 POP POP SWAP3 POP SWAP3 SWAP1 POP JUMP JUMPDEST PUSH1 0x0 DUP2 MLOAD SWAP1 POP SWAP2 SWAP1 POP JUMP JUMPDEST PUSH1 0x0 DUP3 DUP3 MSTORE PUSH1 0x20 DUP3 ADD SWAP1 POP SWAP3 SWAP2 POP POP JUMP JUMPDEST PUSH1 0x0 DUP2 SWAP1 POP PUSH1 0x20 DUP3 ADD SWAP1 POP SWAP2 SWAP1 POP JUMP JUMPDEST PUSH2 0x1852 DUP2 PUSH2 0x16BC JUMP JUMPDEST DUP3 MSTORE POP POP JUMP JUMPDEST PUSH1 0x0 DUP2 MLOAD SWAP1 POP SWAP2 SWAP1 POP JUMP JUMPDEST PUSH1 0x0 DUP3 DUP3 MSTORE PUSH1 0x20 DUP3 ADD SWAP1 POP SWAP3 SWAP2 POP POP JUMP JUMPDEST PUSH1 0x0 JUMPDEST DUP4 DUP2 LT ISZERO PUSH2 0x1892 JUMPI DUP1 DUP3 ADD MLOAD DUP2 DUP5 ADD MSTORE PUSH1 0x20 DUP2 ADD SWAP1 POP PUSH2 0x1877 JUMP JUMPDEST PUSH1 0x0 DUP5 DUP5 ADD MSTORE POP POP POP POP JUMP JUMPDEST PUSH1 0x0 PUSH1 0x1F NOT PUSH1 0x1F DUP4 ADD AND SWAP1 POP SWAP2 SWAP1 POP JUMP JUMPDEST PUSH1 0x0 PUSH2 0x18BA DUP3 PUSH2 0x1858 JUMP JUMPDEST PUSH2 0x18C4 DUP2 DUP6 PUSH2 0x1863 JUMP JUMPDEST SWAP4 POP PUSH2 0x18D4 DUP2 DUP6 PUSH1 0x20 DUP7 ADD PUSH2 0x1874 JUMP JUMPDEST PUSH2 0x18DD DUP2 PUSH2 0x189E JUMP JUMPDEST DUP5 ADD SWAP2 POP POP SWAP3 SWAP2 POP POP JUMP JUMPDEST PUSH32 0x4E487B7100000000000000000000000000000000000000000000000000000000 PUSH1 0x0 MSTORE PUSH1 0x21 PUSH1 0x4 MSTORE PUSH1 0x24 PUSH1 0x0 REVERT JUMPDEST PUSH1 0x4 DUP2 LT PUSH2 0x1928 JUMPI PUSH2 0x1927 PUSH2 0x18E8 JUMP JUMPDEST JUMPDEST POP JUMP JUMPDEST PUSH1 0x0 DUP2 SWAP1 POP PUSH2 0x1939 DUP3 PUSH2 0x1917 JUMP JUMPDEST SWAP2 SWAP1 POP JUMP JUMPDEST PUSH1 0x0 PUSH2 0x1949 DUP3 PUSH2 0x192B JUMP JUMPDEST SWAP1 POP SWAP2 SWAP1 POP JUMP JUMPDEST PUSH2 0x1959 DUP2 PUSH2 0x193E JUMP JUMPDEST DUP3 MSTORE POP POP JUMP JUMPDEST PUSH2 0x1968 DUP2 PUSH2 0x179F JUMP JUMPDEST DUP3 MSTORE POP POP JUMP JUMPDEST PUSH1 0x0 PUSH2 0x100 DUP4 ADD PUSH1 0x0 DUP4 ADD MLOAD PUSH2 0x1987 PUSH1 0x0 DUP7 ADD DUP3 PUSH2 0x1849 JUMP JUMPDEST POP PUSH1 0x20 DUP4 ADD MLOAD DUP5 DUP3 SUB PUSH1 0x20 DUP7 ADD MSTORE PUSH2 0x199F DUP3 DUP3 PUSH2 0x18AF JUMP JUMPDEST SWAP2 POP POP PUSH1 0x40 DUP4 ADD MLOAD DUP5 DUP3 SUB PUSH1 0x40 DUP7 ADD MSTORE PUSH2 0x19B9 DUP3 DUP3 PUSH2 0x18AF JUMP JUMPDEST SWAP2 POP POP PUSH1 0x60 DUP4 ADD MLOAD PUSH2 0x19CE PUSH1 0x60 DUP7 ADD DUP3 PUSH2 0x1849 JUMP JUMPDEST POP PUSH1 0x80 DUP4 ADD MLOAD PUSH2 0x19E1 PUSH1 0x80 DUP7 ADD DUP3 PUSH2 0x1849 JUMP JUMPDEST POP PUSH1 0xA0 DUP4 ADD MLOAD PUSH2 0x19F4 PUSH1 0xA0 DUP7 ADD DUP3 PUSH2 0x1950 JUMP JUMPDEST POP PUSH1 0xC0 DUP4 ADD MLOAD PUSH2 0x1A07 PUSH1 0xC0 DUP7 ADD DUP3 PUSH2 0x195F JUMP JUMPDEST POP PUSH1 0xE0 DUP4 ADD MLOAD PUSH2 0x1A1A PUSH1 0xE0 DUP7 ADD DUP3 PUSH2 0x195F JUMP JUMPDEST POP DUP1 SWAP2 POP POP SWAP3 SWAP2 POP POP JUMP JUMPDEST PUSH1 0x0 PUSH2 0x1A31 DUP4 DUP4 PUSH2 0x196E JUMP JUMPDEST SWAP1 POP SWAP3 SWAP2 POP POP JUMP JUMPDEST PUSH1 0x0 PUSH1 0x20 DUP3 ADD SWAP1 POP SWAP2 SWAP1 POP JUMP JUMPDEST PUSH1 0x0 PUSH2 0x1A51 DUP3 PUSH2 0x181D JUMP JUMPDEST PUSH2 0x1A5B DUP2 DUP6 PUSH2 0x1828 JUMP JUMPDEST SWAP4 POP DUP4 PUSH1 0x20 DUP3 MUL DUP6 ADD PUSH2 0x1A6D DUP6 PUSH2 0x1839 JUMP JUMPDEST DUP1 PUSH1 0x0 JUMPDEST DUP6 DUP2 LT ISZERO PUSH2 0x1AA9 JUMPI DUP5 DUP5 SUB DUP10 MSTORE DUP2 MLOAD PUSH2 0x1A8A DUP6 DUP3 PUSH2 0x1A25 JUMP JUMPDEST SWAP5 POP PUSH2 0x1A95 DUP4 PUSH2 0x1A39 JUMP JUMPDEST SWAP3 POP PUSH1 0x20 DUP11 ADD SWAP10 POP POP PUSH1 0x1 DUP2 ADD SWAP1 POP PUSH2 0x1A71 JUMP JUMPDEST POP DUP3 SWAP8 POP DUP8 SWAP6 POP POP POP POP POP POP SWAP3 SWAP2 POP POP JUMP JUMPDEST PUSH1 0x0 PUSH1 0x20 DUP3 ADD SWAP1 POP DUP2 DUP2 SUB PUSH1 0x0 DUP4 ADD MSTORE PUSH2 0x1AD5 DUP2 DUP5 PUSH2 0x1A46 JUMP JUMPDEST SWAP1 POP SWAP3 SWAP2 POP POP JUMP JUMPDEST PUSH1 0x0 DUP1 REVERT JUMPDEST PUSH1 0x0 DUP1 REVERT JUMPDEST PUSH32 0x4E487B7100000000000000000000000000000000000000000000000000000000 PUSH1 0x0 MSTORE PUSH1 0x41 PUSH1 0x4 MSTORE PUSH1 0x24 PUSH1 0x0 REVERT JUMPDEST PUSH2 0x1B1F DUP3 PUSH2 0x189E JUMP JUMPDEST DUP2 ADD DUP2 DUP2 LT PUSH8 0xFFFFFFFFFFFFFFFF DUP3 GT OR ISZERO PUSH2 0x1B3E JUMPI PUSH2 0x1B3D PUSH2 0x1AE7 JUMP JUMPDEST JUMPDEST DUP1 PUSH1 0x40 MSTORE POP POP POP JUMP JUMPDEST PUSH1 0x0 PUSH2 0x1B51 PUSH2 0x16A8 JUMP JUMPDEST SWAP1 POP PUSH2 0x1B5D DUP3 DUP3 PUSH2 0x1B16 JUMP JUMPDEST SWAP2 SWAP1 POP JUMP JUMPDEST PUSH1 0x0 PUSH8 0xFFFFFFFFFFFFFFFF DUP3 GT ISZERO PUSH2 0x1B7D JUMPI PUSH2 0x1B7C PUSH2 0x1AE7 JUMP JUMPDEST JUMPDEST PUSH2 0x1B86 DUP3 PUSH2 0x189E JUMP JUMPDEST SWAP1 POP PUSH1 0x20 DUP2 ADD SWAP1 POP SWAP2 SWAP1 POP JUMP JUMPDEST DUP3 DUP2 DUP4 CALLDATACOPY PUSH1 0x0 DUP4 DUP4 ADD MSTORE POP POP POP JUMP JUMPDEST PUSH1 0x0 PUSH2 0x1BB5 PUSH2 0x1BB0 DUP5 PUSH2 0x1B62 JUMP JUMPDEST PUSH2 0x1B47 JUMP JUMPDEST SWAP1 POP DUP3 DUP2 MSTORE PUSH1 0x20 DUP2 ADD DUP5 DUP5 DUP5 ADD GT ISZERO PUSH2 0x1BD1 JUMPI PUSH2 0x1BD0 PUSH2 0x1AE2 JUMP JUMPDEST JUMPDEST PUSH2 0x1BDC DUP5 DUP3 DUP6 PUSH2 0x1B93 JUMP JUMPDEST POP SWAP4 SWAP3 POP POP POP JUMP JUMPDEST PUSH1 0x0 DUP3 PUSH1 0x1F DUP4 ADD SLT PUSH2 0x1BF9 JUMPI PUSH2 0x1BF8 PUSH2 0x1ADD JUMP JUMPDEST JUMPDEST DUP2 CALLDATALOAD PUSH2 0x1C09 DUP5 DUP3 PUSH1 0x20 DUP7 ADD PUSH2 0x1BA2 JUMP JUMPDEST SWAP2 POP POP SWAP3 SWAP2 POP POP JUMP JUMPDEST PUSH1 0x0 DUP1 PUSH1 0x0 PUSH1 0x60 DUP5 DUP7 SUB SLT ISZERO PUSH2 0x1C2B JUMPI PUSH2 0x1C2A PUSH2 0x16B2 JUMP JUMPDEST JUMPDEST PUSH1 0x0 DUP5 ADD CALLDATALOAD PUSH8 0xFFFFFFFFFFFFFFFF DUP2 GT ISZERO PUSH2 0x1C49 JUMPI PUSH2 0x1C48 PUSH2 0x16B7 JUMP JUMPDEST JUMPDEST PUSH2 0x1C55 DUP7 DUP3 DUP8 ADD PUSH2 0x1BE4 JUMP JUMPDEST SWAP4 POP POP PUSH1 0x20 DUP5 ADD CALLDATALOAD PUSH8 0xFFFFFFFFFFFFFFFF DUP2 GT ISZERO PUSH2 0x1C76 JUMPI PUSH2 0x1C75 PUSH2 0x16B7 JUMP JUMPDEST JUMPDEST PUSH2 0x1C82 DUP7 DUP3 DUP8 ADD PUSH2 0x1BE4 JUMP JUMPDEST SWAP3 POP POP PUSH1 0x40 PUSH2 0x1C93 DUP7 DUP3 DUP8 ADD PUSH2 0x16DD JUMP JUMPDEST SWAP2 POP POP SWAP3 POP SWAP3 POP SWAP3 JUMP JUMPDEST PUSH1 0x0 DUP3 DUP3 MSTORE PUSH1 0x20 DUP3 ADD SWAP1 POP SWAP3 SWAP2 POP POP JUMP JUMPDEST PUSH1 0x0 PUSH2 0x1CB9 DUP3 PUSH2 0x1858 JUMP JUMPDEST PUSH2 0x1CC3 DUP2 DUP6 PUSH2 0x1C9D JUMP JUMPDEST SWAP4 POP PUSH2 0x1CD3 DUP2 DUP6 PUSH1 0x20 DUP7 ADD PUSH2 0x1874 JUMP JUMPDEST PUSH2 0x1CDC DUP2 PUSH2 0x189E JUMP JUMPDEST DUP5 ADD SWAP2 POP POP SWAP3 SWAP2 POP POP JUMP JUMPDEST PUSH2 0x1CF0 DUP2 PUSH2 0x193E JUMP JUMPDEST DUP3 MSTORE POP POP JUMP JUMPDEST PUSH2 0x1CFF DUP2 PUSH2 0x179F JUMP JUMPDEST DUP3 MSTORE POP POP JUMP JUMPDEST PUSH1 0x0 PUSH2 0x100 DUP3 ADD SWAP1 POP PUSH2 0x1D1B PUSH1 0x0 DUP4 ADD DUP12 PUSH2 0x171F JUMP JUMPDEST DUP2 DUP2 SUB PUSH1 0x20 DUP4 ADD MSTORE PUSH2 0x1D2D DUP2 DUP11 PUSH2 0x1CAE JUMP JUMPDEST SWAP1 POP DUP2 DUP2 SUB PUSH1 0x40 DUP4 ADD MSTORE PUSH2 0x1D41 DUP2 DUP10 PUSH2 0x1CAE JUMP JUMPDEST SWAP1 POP PUSH2 0x1D50 PUSH1 0x60 DUP4 ADD DUP9 PUSH2 0x171F JUMP JUMPDEST PUSH2 0x1D5D PUSH1 0x80 DUP4 ADD DUP8 PUSH2 0x171F JUMP JUMPDEST PUSH2 0x1D6A PUSH1 0xA0 DUP4 ADD DUP7 PUSH2 0x1CE7 JUMP JUMPDEST PUSH2 0x1D77 PUSH1 0xC0 DUP4 ADD DUP6 PUSH2 0x1CF6 JUMP JUMPDEST PUSH2 0x1D84 PUSH1 0xE0 DUP4 ADD DUP5 PUSH2 0x1CF6 JUMP JUMPDEST SWAP10 SWAP9 POP POP POP POP POP POP POP POP POP JUMP JUMPDEST PUSH1 0x0 PUSH1 0x20 DUP3 DUP5 SUB SLT ISZERO PUSH2 0x1DA7 JUMPI PUSH2 0x1DA6 PUSH2 0x16B2 JUMP JUMPDEST JUMPDEST PUSH1 0x0 PUSH2 0x1DB5 DUP5 DUP3 DUP6 ADD PUSH2 0x17C8 JUMP JUMPDEST SWAP2 POP POP SWAP3 SWAP2 POP POP JUMP JUMPDEST PUSH32 0x4E6F7420756E616C6C6F63617465640000000000000000000000000000000000 PUSH1 0x0 DUP3 ADD MSTORE POP JUMP JUMPDEST PUSH1 0x0 PUSH2 0x1DF4 PUSH1 0xF DUP4 PUSH2 0x1C9D JUMP JUMPDEST SWAP2 POP PUSH2 0x1DFF DUP3 PUSH2 0x1DBE JUMP JUMPDEST PUSH1 0x20 DUP3 ADD SWAP1 POP SWAP2 SWAP1 POP JUMP JUMPDEST PUSH1 0x0 PUSH1 0x20 DUP3 ADD SWAP1 POP DUP2 DUP2 SUB PUSH1 0x0 DUP4 ADD MSTORE PUSH2 0x1E23 DUP2 PUSH2 0x1DE7 JUMP JUMPDEST SWAP1 POP SWAP2 SWAP1 POP JUMP JUMPDEST PUSH32 0x43726561746F722063616E6E6F742074616B65206F776E207461736B00000000 PUSH1 0x0 DUP3 ADD MSTORE POP JUMP JUMPDEST PUSH1 0x0 PUSH2 0x1E60 PUSH1 0x1C DUP4 PUSH2 0x1C9D JUMP JUMPDEST SWAP2 POP PUSH2 0x1E6B DUP3 PUSH2 0x1E2A JUMP JUMPDEST PUSH1 0x20 DUP3 ADD SWAP1 POP SWAP2 SWAP1 POP JUMP JUMPDEST PUSH1 0x0 PUSH1 0x20 DUP3 ADD SWAP1 POP DUP2 DUP2 SUB PUSH1 0x0 DUP4 ADD MSTORE PUSH2 0x1E8F DUP2 PUSH2 0x1E53 JUMP JUMPDEST SWAP1 POP SWAP2 SWAP1 POP JUMP JUMPDEST PUSH1 0x0 PUSH1 0x40 DUP3 ADD SWAP1 POP PUSH2 0x1EAB PUSH1 0x0 DUP4 ADD DUP6 PUSH2 0x171F JUMP JUMPDEST PUSH2 0x1EB8 PUSH1 0x20 DUP4 ADD DUP5 PUSH2 0x1CF6 JUMP JUMPDEST SWAP4 SWAP3 POP POP POP JUMP JUMPDEST PUSH32 0x4E487B7100000000000000000000000000000000000000000000000000000000 PUSH1 0x0 MSTORE PUSH1 0x32 PUSH1 0x4 MSTORE PUSH1 0x24 PUSH1 0x0 REVERT JUMPDEST PUSH32 0x4E487B7100000000000000000000000000000000000000000000000000000000 PUSH1 0x0 MSTORE PUSH1 0x22 PUSH1 0x4 MSTORE PUSH1 0x24 PUSH1 0x0 REVERT JUMPDEST PUSH1 0x0 PUSH1 0x2 DUP3 DIV SWAP1 POP PUSH1 0x1 DUP3 AND DUP1 PUSH2 0x1F35 JUMPI PUSH1 0x7F DUP3 AND SWAP2 POP JUMPDEST PUSH1 0x20 DUP3 LT DUP2 SUB PUSH2 0x1F48 JUMPI PUSH2 0x1F47 PUSH2 0x1EEE JUMP JUMPDEST JUMPDEST POP SWAP2 SWAP1 POP JUMP JUMPDEST PUSH32 0x4E487B7100000000000000000000000000000000000000000000000000000000 PUSH1 0x0 MSTORE PUSH1 0x11 PUSH1 0x4 MSTORE PUSH1 0x24 PUSH1 0x0 REVERT JUMPDEST PUSH1 0x0 PUSH2 0x1F88 DUP3 PUSH2 0x16BC JUMP JUMPDEST SWAP2 POP PUSH32 0xFFFFFFFFFFFFFFFFFFFFFFFFFFFFFFFFFFFFFFFFFFFFFFFFFFFFFFFFFFFFFFFF DUP3 SUB PUSH2 0x1FBA JUMPI PUSH2 0x1FB9 PUSH2 0x1F4E JUMP JUMPDEST JUMPDEST PUSH1 0x1 DUP3 ADD SWAP1 POP SWAP2 SWAP1 POP JUMP JUMPDEST PUSH1 0x0 DUP2 SWAP1 POP DUP2 PUSH1 0x0 MSTORE PUSH1 0x20 PUSH1 0x0 KECCAK256 SWAP1 POP SWAP2 SWAP1 POP JUMP JUMPDEST PUSH1 0x0 PUSH1 0x20 PUSH1 0x1F DUP4 ADD DIV SWAP1 POP SWAP2 SWAP1 POP JUMP JUMPDEST PUSH1 0x0 DUP3 DUP3 SHL SWAP1 POP SWAP3 SWAP2 POP POP JUMP JUMPDEST PUSH1 0x0 PUSH1 0x8 DUP4 MUL PUSH2 0x2027 PUSH32 0xFFFFFFFFFFFFFFFFFFFFFFFFFFFFFFFFFFFFFFFFFFFFFFFFFFFFFFFFFFFFFFFF DUP3 PUSH2 0x1FEA JUMP JUMPDEST PUSH2 0x2031 DUP7 DUP4 PUSH2 0x1FEA JUMP JUMPDEST SWAP6 POP DUP1 NOT DUP5 AND SWAP4 POP DUP1 DUP7 AND DUP5 OR SWAP3 POP POP POP SWAP4 SWAP3 POP POP POP JUMP JUMPDEST PUSH1 0x0 DUP2 SWAP1 POP SWAP2 SWAP1 POP JUMP JUMPDEST PUSH1 0x0 PUSH2 0x206E PUSH2 0x2069 PUSH2 0x2064 DUP5 PUSH2 0x16BC JUMP JUMPDEST PUSH2 0x2049 JUMP JUMPDEST PUSH2 0x16BC JUMP JUMPDEST SWAP1 POP SWAP2 SWAP1 POP JUMP JUMPDEST PUSH1 0x0 DUP2 SWAP1 POP SWAP2 SWAP1 POP JUMP JUMPDEST PUSH2 0x2088 DUP4 PUSH2 0x2053 JUMP JUMPDEST PUSH2 0x209C PUSH2 0x2094 DUP3 PUSH2 0x2075 JUMP JUMPDEST DUP5 DUP5 SLOAD PUSH2 0x1FF7 JUMP JUMPDEST DUP3 SSTORE POP POP POP POP JUMP JUMPDEST PUSH1 0x0 SWAP1 JUMP JUMPDEST PUSH2 0x20B1 PUSH2 0x20A4 JUMP JUMPDEST PUSH2 0x20BC DUP2 DUP5 DUP5 PUSH2 0x207F JUMP JUMPDEST POP POP POP JUMP JUMPDEST JUMPDEST DUP2 DUP2 LT ISZERO PUSH2 0x20E0 JUMPI PUSH2 0x20D5 PUSH1 0x0 DUP3 PUSH2 0x20A9 JUMP JUMPDEST PUSH1 0x1 DUP2 ADD SWAP1 POP PUSH2 0x20C2 JUMP JUMPDEST POP POP JUMP JUMPDEST PUSH1 0x1F DUP3 GT ISZERO PUSH2 0x2125 JUMPI PUSH2 0x20F6 DUP2 PUSH2 0x1FC5 JUMP JUMPDEST PUSH2 0x20FF DUP5 PUSH2 0x1FDA JUMP JUMPDEST DUP2 ADD PUSH1 0x20 DUP6 LT ISZERO PUSH2 0x210E JUMPI DUP2 SWAP1 POP JUMPDEST PUSH2 0x2122 PUSH2 0x211A DUP6 PUSH2 0x1FDA JUMP JUMPDEST DUP4 ADD DUP3 PUSH2 0x20C1 JUMP JUMPDEST POP POP JUMPDEST POP POP POP JUMP JUMPDEST PUSH1 0x0 DUP3 DUP3 SHR SWAP1 POP SWAP3 SWAP2 POP POP JUMP JUMPDEST PUSH1 0x0 PUSH2 0x2148 PUSH1 0x0 NOT DUP5 PUSH1 0x8 MUL PUSH2 0x212A JUMP JUMPDEST NOT DUP1 DUP4 AND SWAP2 POP POP SWAP3 SWAP2 POP POP JUMP JUMPDEST PUSH1 0x0 PUSH2 0x2161 DUP4 DUP4 PUSH2 0x2137 JUMP JUMPDEST SWAP2 POP DUP3 PUSH1 0x2 MUL DUP3 OR SWAP1 POP SWAP3 SWAP2 POP POP JUMP JUMPDEST PUSH2 0x217A DUP3 PUSH2 0x1858 JUMP JUMPDEST PUSH8 0xFFFFFFFFFFFFFFFF DUP2 GT ISZERO PUSH2 0x2193 JUMPI PUSH2 0x2192 PUSH2 0x1AE7 JUMP JUMPDEST JUMPDEST PUSH2 0x219D DUP3 SLOAD PUSH2 0x1F1D JUMP JUMPDEST PUSH2 0x21A8 DUP3 DUP3 DUP6 PUSH2 0x20E4 JUMP JUMPDEST PUSH1 0x0 PUSH1 0x20 SWAP1 POP PUSH1 0x1F DUP4 GT PUSH1 0x1 DUP2 EQ PUSH2 0x21DB JUMPI PUSH1 0x0 DUP5 ISZERO PUSH2 0x21C9 JUMPI DUP3 DUP8 ADD MLOAD SWAP1 POP JUMPDEST PUSH2 0x21D3 DUP6 DUP3 PUSH2 0x2155 JUMP JUMPDEST DUP7 SSTORE POP PUSH2 0x223B JUMP JUMPDEST PUSH1 0x1F NOT DUP5 AND PUSH2 0x21E9 DUP7 PUSH2 0x1FC5 JUMP JUMPDEST PUSH1 0x0 JUMPDEST DUP3 DUP2 LT ISZERO PUSH2 0x2211 JUMPI DUP5 DUP10 ADD MLOAD DUP3 SSTORE PUSH1 0x1 DUP3 ADD SWAP2 POP PUSH1 0x20 DUP6 ADD SWAP5 POP PUSH1 0x20 DUP2 ADD SWAP1 POP PUSH2 0x21EC JUMP JUMPDEST DUP7 DUP4 LT ISZERO PUSH2 0x222E JUMPI DUP5 DUP10 ADD MLOAD PUSH2 0x222A PUSH1 0x1F DUP10 AND DUP3 PUSH2 0x2137 JUMP JUMPDEST DUP4 SSTORE POP JUMPDEST PUSH1 0x1 PUSH1 0x2 DUP9 MUL ADD DUP9 SSTORE POP POP POP JUMPDEST POP POP POP POP POP POP JUMP JUMPDEST PUSH1 0x0 PUSH1 0x80 DUP3 ADD SWAP1 POP PUSH2 0x2258 PUSH1 0x0 DUP4 ADD DUP8 PUSH2 0x171F JUMP JUMPDEST DUP2 DUP2 SUB PUSH1 0x20 DUP4 ADD MSTORE PUSH2 0x226A DUP2 DUP7 PUSH2 0x1CAE JUMP JUMPDEST SWAP1 POP PUSH2 0x2279 PUSH1 0x40 DUP4 ADD DUP6 PUSH2 0x171F JUMP JUMPDEST PUSH2 0x2286 PUSH1 0x60 DUP4 ADD DUP5 PUSH2 0x1CF6 JUMP JUMPDEST SWAP6 SWAP5 POP POP POP POP POP JUMP JUMPDEST PUSH32 0x4E6F74207461736B2063726561746F7200000000000000000000000000000000 PUSH1 0x0 DUP3 ADD MSTORE POP JUMP JUMPDEST PUSH1 0x0 PUSH2 0x22C5 PUSH1 0x10 DUP4 PUSH2 0x1C9D JUMP JUMPDEST SWAP2 POP PUSH2 0x22D0 DUP3 PUSH2 0x228F JUMP JUMPDEST PUSH1 0x20 DUP3 ADD SWAP1 POP SWAP2 SWAP1 POP JUMP JUMPDEST PUSH1 0x0 PUSH1 0x20 DUP3 ADD SWAP1 POP DUP2 DUP2 SUB PUSH1 0x0 DUP4 ADD MSTORE PUSH2 0x22F4 DUP2 PUSH2 0x22B8 JUMP JUMPDEST SWAP1 POP SWAP2 SWAP1 POP JUMP JUMPDEST PUSH32 0x5461736B20616C726561647920616C6C6F636174656400000000000000000000 PUSH1 0x0 DUP3 ADD MSTORE POP JUMP JUMPDEST PUSH1 0x0 PUSH2 0x2331 PUSH1 0x16 DUP4 PUSH2 0x1C9D JUMP JUMPDEST SWAP2 POP PUSH2 0x233C DUP3 PUSH2 0x22FB JUMP JUMPDEST PUSH1 0x20 DUP3 ADD SWAP1 POP SWAP2 SWAP1 POP JUMP JUMPDEST PUSH1 0x0 PUSH1 0x20 DUP3 ADD SWAP1 POP DUP2 DUP2 SUB PUSH1 0x0 DUP4 ADD MSTORE PUSH2 0x2360 DUP2 PUSH2 0x2324 JUMP JUMPDEST SWAP1 POP SWAP2 SWAP1 POP JUMP JUMPDEST PUSH1 0x0 PUSH1 0x40 DUP3 ADD SWAP1 POP DUP2 DUP2 SUB PUSH1 0x0 DUP4 ADD MSTORE PUSH2 0x2381 DUP2 DUP6 PUSH2 0x1CAE JUMP JUMPDEST SWAP1 POP PUSH2 0x2390 PUSH1 0x20 DUP4 ADD DUP5 PUSH2 0x171F JUMP JUMPDEST SWAP4 SWAP3 POP POP POP JUMP JUMPDEST PUSH1 0x0 PUSH1 0x80 DUP3 ADD SWAP1 POP DUP2 DUP2 SUB PUSH1 0x0 DUP4 ADD MSTORE PUSH2 0x23B1 DUP2 DUP8 PUSH2 0x1CAE JUMP JUMPDEST SWAP1 POP PUSH2 0x23C0 PUSH1 0x20 DUP4 ADD DUP7 PUSH2 0x171F JUMP JUMPDEST DUP2 DUP2 SUB PUSH1 0x40 DUP4 ADD MSTORE PUSH2 0x23D2 DUP2 DUP6 PUSH2 0x1CAE JUMP JUMPDEST SWAP1 POP PUSH2 0x23E1 PUSH1 0x60 DUP4 ADD DUP5 PUSH2 0x1CF6 JUMP JUMPDEST SWAP6 SWAP5 POP POP POP POP POP JUMP JUMPDEST PUSH1 0x0 PUSH1 0x60 DUP3 ADD SWAP1 POP DUP2 DUP2 SUB PUSH1 0x0 DUP4 ADD MSTORE PUSH2 0x2404 DUP2 DUP7 PUSH2 0x1CAE JUMP JUMPDEST SWAP1 POP PUSH2 0x2413 PUSH1 0x20 DUP4 ADD DUP6 PUSH2 0x171F JUMP JUMPDEST PUSH2 0x2420 PUSH1 0x40 DUP4 ADD DUP5 PUSH2 0x1CF6 JUMP JUMPDEST SWAP5 SWAP4 POP POP POP POP JUMP JUMPDEST PUSH32 0x4E487B7100000000000000000000000000000000000000000000000000000000 PUSH1 0x0 MSTORE PUSH1 0x51 PUSH1 0x4 MSTORE PUSH1 0x24 PUSH1 0x0 REVERT INVALID LOG2 PUSH5 0x6970667358 0x22 SLT KECCAK256 0xD8 SLT 0xD 0xE2 0xFB 0xD5 PUSH19 0x6216B947A2089DAB4EAFA77502A63035334712 PUSH3 0x6AFCA6 SAR SWAP16 PUSH5 0x736F6C6343 STOP ADDMOD SHR STOP CALLER "},"methodIdentifiers":{"addTask(string,string,uint256)":"7cbc9ae9","cancelTask(uint256)":"7eec20a8","completeTask(uint256)":"e1e29558","getAllTasks()":"779900b4","getUserTasks(address)":"95d57660","numTasks()":"bda09cd4","takeTask(uint256)":"56deb110","taskIds(uint256)":"39118d25","tasks(uint256)":"8d977672","userTasks(address,uint256)":"66873a55"}}}}}